:020000040000fa
:04005c002403000079
:020000040000fa
:0400100024030000c5
:020000040000fa
:04025c002403000077
:020000040000fa
:0402100024030000c3
:020000040000fa
:04027400240300005f
:020000040000fa
:0403240024030000ae
:020000040000fa
:040350002403000082
:020000040000fa
:04022c0024030000a7
:020000040000fa
:04023c002403000097
:020000040000fa
:040280002403000053
:020000040000fa
:04028400240300004f
:020000040000fa
:0402280024030000ab
:020000040000fa
:04027800240300005b
:020000040000fa
:04029c002403000037
:020000040000fa
:040260002403000073
:020000040000fa
:04026400240300006f
:020000040000fa
:040270002403000063
:020000040000fa
:04027c002403000057
:020000040000fa
:04028800240300004b
:020000040000fa
:04028c002403000047
:020000040000fa
:040290002403000043
:020000040000fa
:04029400240300003f
:020000040000fa
:04029800240300003b
:020000040000fa
:0402a0002403000033
:020000040000fa
:0402a400240300002f
:020000040000fa
:0402a800240300002b
:020000040000fa
:0402ac002403000027
:020000040000fa
:0402b0002403000023
:020000040000fa
:0402b400240300001f
:020000040000fa
:0402b800240300001b
:020000040000fa
:0402bc002403000017
:020000040000fa
:0402c0002403000013
:020000040000fa
:0402c400240300000f
:020000040000fa
:04023800240300009b
:020000040000fa
:0402c800240300000b
:020000040000fa
:0402cc002403000007
:020000040000fa
:0402d0002403000003
:020000040000fa
:0402d40024030000ff
:020000040000fa
:0402d80024030000fb
:020000040000fa
:0402dc0024030000f7
:020000040000fa
:0402e00024030000f3
:020000040000fa
:0402e40024030000ef
:020000040000fa
:0402e80024030000eb
:020000040000fa
:0402ec0024030000e7
:020000040000fa
:0402f00024030000e3
:020000040000fa
:0402f40024030000df
:020000040000fa
:0402f80024030000db
:020000040000fa
:0402fc0024030000d7
:020000040000fa
:0403000024030000d2
:020000040000fa
:0403040024030000ce
:020000040000fa
:0403080024030000ca
:020000040000fa
:0403140024030000be
:020000040000fa
:0403180024030000ba
:020000040000fa
:04031c0024030000b6
:020000040000fa
:0403200024030000b2
:020000040000fa
:0403280024030000aa
:020000040000fa
:0403300024030000a2
:020000040000fa
:04033400240300009e
:020000040000fa
:04033800240300009a
:020000040000fa
:04033c002403000096
:020000040000fa
:040340002403000092
:020000040000fa
:04034400240300008e
:020000040000fa
:04034800240300008a
:020000040000fa
:04026c002403000067
:020000040000fa
:04030c0024030000c6
:020000040000fa
:04034c002403000086
:020000040000fa
:0402180024030000bb
:020000040000fa
:0402300024030000a3
:020000040000fa
:040240002403000093
:020000040000fa
:04020c0024030000c7
:020000040000fa
:0403100024030000c2
:020000040000fa
:0402080024030000cb
:020000040000fa
:04021c0024030000b7
:020000040000fa
:0402200024030000b3
:020000040000fa
:0402240024030000af
:020000040000fa
:04026800240300006b
:020000040000fa
:04024c002403000087
:020000040000fa
:040250002403000083
:020000040000fa
:0402140024030000bf
:020000040000fa
:04023400c8020000fc
:020000040000fa
:04024400240300008f
:020000040000fa
:04024800240300008b
:020000040000fa
:04032c0024030000a6
:020000040000fa
:04025400240300007f
:020000040000fa
:04025800240300007b
:020000040000fa
:040074002403000061
:020000040000fa
:0401240024030000b0
:020000040000fa
:040150002403000084
:020000040000fa
:04002c0024030000a9
:020000040000fa
:04003c002403000099
:020000040000fa
:040080002403000055
:020000040000fa
:040084002403000051
:020000040000fa
:0400280024030000ad
:020000040000fa
:04007800240300005d
:020000040000fa
:04009c002403000039
:020000040000fa
:040060002403000075
:020000040000fa
:040064002403000071
:020000040000fa
:040070002403000065
:020000040000fa
:04007c002403000059
:020000040000fa
:04008800240300004d
:020000040000fa
:04008c002403000049
:020000040000fa
:040090002403000045
:020000040000fa
:040094002403000041
:020000040000fa
:04009800240300003d
:020000040000fa
:0400a0002403000035
:020000040000fa
:0400a4002403000031
:020000040000fa
:0400a800240300002d
:020000040000fa
:0400ac002403000029
:020000040000fa
:0400b0002403000025
:020000040000fa
:0400b4002403000021
:020000040000fa
:0400b800240300001d
:020000040000fa
:0400bc002403000019
:020000040000fa
:0400c0002403000015
:020000040000fa
:0400c4002403000011
:020000040000fa
:04003800240300009d
:020000040000fa
:0400c800240300000d
:020000040000fa
:0400cc002403000009
:020000040000fa
:0400d0002403000005
:020000040000fa
:0400d4002403000001
:020000040000fa
:0400d80024030000fd
:020000040000fa
:0400dc0024030000f9
:020000040000fa
:0400e00024030000f5
:020000040000fa
:0400e40024030000f1
:020000040000fa
:0400e80024030000ed
:020000040000fa
:0400ec0024030000e9
:020000040000fa
:0400f00024030000e5
:020000040000fa
:0400f40024030000e1
:020000040000fa
:0400f80024030000dd
:020000040000fa
:0400fc0024030000d9
:020000040000fa
:0401000024030000d4
:020000040000fa
:0401040024030000d0
:020000040000fa
:0401080024030000cc
:020000040000fa
:0401140024030000c0
:020000040000fa
:0401180024030000bc
:020000040000fa
:04011c0024030000b8
:020000040000fa
:0401200024030000b4
:020000040000fa
:0401280024030000ac
:020000040000fa
:0401300024030000a4
:020000040000fa
:0401340024030000a0
:020000040000fa
:04013800240300009c
:020000040000fa
:04013c002403000098
:020000040000fa
:040140002403000094
:020000040000fa
:040144002403000090
:020000040000fa
:04014800240300008c
:020000040000fa
:04006c002403000069
:020000040000fa
:04010c0024030000c8
:020000040000fa
:04014c002403000088
:020000040000fa
:0400180024030000bd
:020000040000fa
:0400300024030000a5
:020000040000fa
:040040002403000095
:020000040000fa
:04000c0024030000c9
:020000040000fa
:0401100024030000c4
:020000040000fa
:0400080024030000cd
:020000040000fa
:04001c0024030000b9
:020000040000fa
:0400200024030000b5
:020000040000fa
:0400240024030000b1
:020000040000fa
:04006800240300006d
:020000040000fa
:04004c002403000089
:020000040000fa
:040050002403000085
:020000040000fa
:0400140024030000c1
:020000040000fa
:040044002403000091
:020000040000fa
:04004800240300008d
:020000040000fa
:04012c0024030000a8
:020000040000fa
:040054002403000081
:020000040000fa
:04005800240300007d
:020000040000fa
:080000000002040000000000f2
:020000040000fa
:100400004f8420000eff20000e0188000000000035
:10041000000020000000e000020032000001200087
:100420002002880014000700cd0407000000e0004f
:1004300003003a00e03e21000100200002003700e6
:100440000000200001002000810f70000100320038
:1004500014000700000020000000e000020032004d
:1004600000000200000000005a130200000000001b
:100470000040da000000fe004440a9000000200017
:100480000000e0000300320000002000a00188000e
:100490004440a800000006008a1f78008b1f7800e7
:1004a0000000060091018800800478000000eb0045
:1004b0001a003700e284440032a0b4009905ba0063
:1004c000e284440032a0b4009906ba00e2844400f9
:1004d00032a0b4000006eb00476fde00fd07b2005b
:1004e000636ce10003003a00ebff07000000eb0043
:1004f0000a003700606ce10004003a00005deb0088
:100500008b05e900fdff3e00040037006168e10053
:10051000010032000086eb000b00070019c7ba008b
:100520001905ba000e04e00003003a000a00e000da
:10053000e0ff3a0000000600fe07b2009e018800be
:100540008a047800f5ff3700395dba008b05e900b1
:100550000c003200295dba008b05e900080032006a
:100560000c00e00003003a00e284440032a0b40032
:10057000f5ff370019ddba008b05e900faff3a00f4
:100580008904e800e184440032a0b40000000600c1
:100590003600f800809fbe00829fbe00849fbe0090
:1005a000869fbe003400f80000002000a0018800f3
:1005b0008460a900f2418000034280006100510084
:1005c000e0805900f041880001428800e00f5000af
:1005d000e08f580005003a00036a2800f3418800c4
:1005e00013002000034288002008a8000a06070024
:1005f0008460ab000d003a0042a0a80042c0a900f0
:100600002208ab0009003a002008ab0004003200c9
:100610002208a8002008a9002008ab00fcff3a002f
:100620002208a90042c0a80042a0a9003400f90095
:100630004f03be004f02be004f01be004f00be0080
:100640003600f900004006000040da000000fe001d
:1006500003f0a200889fbe008a9fbe008c1f780016
:100660006f010700760133006450e1004f00320053
:100670006420e1005200320003826c0007003b005e
:100680000905d0000306d000820f54000c065d005f
:100690000200390002003200890178000306780068
:1006a0008582550004003d000003fd008103fd002c
:1006b0008502ea008b854200840f720002003b0035
:1006c00060001000e08018006011b8000005eb0029
:1006d0007a28e1000a00390006007800c75ddd00d5
:1006e000f707b200878075002d0037008281710006
:1006f0000a017800610560008180d1000080d3008c
:100700008502e900f9ff3b000604400087844800a9
:1007100002003b0060041400e0841c000988a30070
:10072000070032008a8171008281710061016400da
:100730008904d1000884d3008b05e8001700370036
:100740000978a30013003a000b00e0001300340006
:100750008b05e9000804440089844c000a447400b5
:100760000978a3000d003a000b00e00007003400f8
:100770008b05e9000804440089844c0001003a001c
:100780000b0020000978a300f7ff32000001eb0006
:1007900002003700828171000a017800e50007003d
:1007a0000cf0a70001f0a0002e0137006420e1004a
:1007b00002003a00838f6c002e0133000801be0056
:1007c0000200be0027013700889fbe008a9fbe003e
:1007d0008c1f7800120107001901330003866c009a
:1007e0006450e1002e0032006420e100330032004a
:1007f0006150e1002f0032006120e1003100320041
:1008000085855500eb07b000090020000804200092
:10081000050037000804440089844c000a003100b8
:100820000603430087834b000001530081815b0076
:10083000f8ff33000203be000800a00008044400d3
:1008400089844c00f6ff3900c639dd00830173004e
:1008500001003200130020008904d1000884d30075
:100860000998a300050032000800a7000300a000bb
:100870008904d1000884d3008b05e8008904d100e5
:100880000884d3000001eb000281d200a900070018
:1008900001f0a1000cf0a70001f0a000f10037006a
:1008a0006420e100f30032000801be000200be0037
:1008b000f7ff37006120e100ee0032006000b80071
:1008c000f3ff37000000200001f82700f0ff370099
:1008d00014002000cc023700f4ff2f00ca023700ba
:1008e0000001be00b90007000470a70003f0a100da
:1008f0006509b100160032000d0035006828e100de
:1009000006003500f0ff2f00f1ff27000300e00094
:1009100013003b000100280000000500000040001b
:10092000818048008502e900fcff3a00080037009a
:10093000f88f420002003c008000eb000000050040
:100940008100d1000080d3008502e800fcff3a005e
:100950000300e00002003b0060001000e08018008f
:10096000000006000001be00980007000470a70008
:1009700003f0a10003f8a30013003a006509b100d9
:1009800010003200090035006928e100020035003e
:1009900001002800000005000000400081804800a0
:1009a0008502e900fcff3a0000000600f88f4200d3
:1009b000050035008100d1000080d3008502e800e9
:1009c000fcff3a00000006008000eb00000005007c
:1009d0000001eb0065020700040032000200200065
:1009e00003f8230001f0a70019ff0700000006002c
:1009f0000400200000003700889fbe008a9fbe00d0
:100a00008c1f78004f26dd00850007008c00330026
:100a10006120e100430032006250e10041003e00ed
:100a20003e0039006420e1003c00320005825500a0
:100a30000f003b000402e80038003a00800f53002a
:100a4000818f5b00350034000800be0003f0a10078
:100a500001f0a60003f0a0000cf0a700fdfe0700c7
:100a6000800037000603430087834b000c46460096
:100a70000005530081855b00020033000a03be00bd
:100a80000c00a0000402e900f6ff3b008505780099
:100a90000602430087824b0004003a006000b80061
:100aa00009f0a70001f0a0006e003700000252001c
:100ab00081825a000704e00004003300060343006b
:100ac00087834b008b05e900faff370009057800a2
:100ad0000604be000203be006011b8001500070046
:100ae000e00f5200e08f5a000700350002003c0082
:100af0000c08a300040032000601be0003f0a000b1
:100b00000cf0a700d3fe07000a85680001f0a100e1
:100b10000af0a70001f0a000520037000800be0054
:100b200050003700100220000cf0a6001042880090
:100b30005000370081002000618055000b003d000f
:100b40000b00200061fe2f000100e1001d003400b9
:100b500082817100610164008904d1000884d3009e
:100b60000000e800faff3a00710020006100640014
:100b700003007000020060000900320061044400bc
:100b8000e0844c000988a500050032008b05e800d0
:100b90006808e10002003a008904d1000884d3000b
:100ba000f20f20000258e10005003d00c75ddd00a6
:100bb000f907b2008980750008007800000006007f
:100bc0000bf827008b00780000000500c70ade0044
:100bd000f107b200f50fb20008003200e1cf420089
:100be000020032000170a00024000500810f700097
:100bf000010032000408050044000500810f700068
:100c000002003a00140005008502e90000004000df
:100c100081c04800fcff3b000170a00024000500db
:100c20000004be00e9ff07000003be000405be008b
:100c30000200be00e5ff0700844f750000000600bb
:100c40000200be006450e100050036006420e100af
:100c5000020036000968a30001003a000800be0047
:100c60000160a0004f0678004f05be004f04be0093
:100c700000000600f0ff2f00f1ff2700f9ff37000a
:100c8000889fbe008a9fbe008c1f7800e4ff07008b
:100c9000ebff330003866c006450e1002400320057
:100ca0006420e100270032006150e10022003200a0
:100cb0006120e100210032008b854200eb07b1008a
:100cc0000134b800003ab8000804420089844a00a0
:100cd000013ab8000030b8008880400009014a009d
:100ce00004003300000040008180480002014900f8
:100cf0008b05e900c909dd008301700001003200a5
:100d000013002000c814de004814dd004709de008f
:100d10001200b200c808de000884700085ff0700da
:100d200001f0a1000cf0a70001f0a000cdff3700fa
:100d30006120e100cfff32000801be000200be00ca
:100d4000f7ff37006150e100fcff3a00c9ff3700b0
:100d50000c00fa00889fbe008a9fbe008c9fbe00d8
:100d6000afff07000206be00840578000200be0047
:100d7000020020007d01070005003a008b02b3004d
:100d8000120020007901070001003a00f8856d008b
:100d90000c01be00c60007000800be009b00320028
:100da0000b08a3009e003a000df0a7000be0a00086
:100db00009f0a7000bf0a00009f0a1000801be0097
:100dc000bb0007000bf0a6009500320001003c00bc
:100dd0000bd0a0008acf7500b20033006000b800cd
:100de0006250e10099003900a1003e000b28a300e9
:100df000a2003a000bf8a300060032000b58a30033
:100e0000a70032000801be00a90007000800be00cc
:100e1000940032000800be00e50007000004be0098
:100e2000050578000bf0a7000b30a6000bf0a10021
:100e30005b079800324f200053f32300a4fe070005
:100e400005003d000800be00120020008c010700d4
:100e50000004be000a05e9004a0798006150b90085
:100e600084010700008fbe000c01be0084ff070054
:100e70009bfe0700300798000100e00002003d00e3
:100e800060001000e0801800f2ff2700820f500081
:100e9000e08f580064003e000c00be0090fe07008a
:100ea00020079800f2072000820f5000e08f5800c2
:100eb00005003c0012f82f00f3ff2f00820f5000b6
:100ec000838f580009003d000a00e0000300320053
:100ed00001003c000201ea00020578006000b80051
:100ee000200798003a079800190037003e0090004c
:100ef0006100b9005f010700809fbe000c00be00ca
:100f00004109dd004811de007208b1001701070039
:100f10000005be001e01be0059ff07004f01be00c4
:100f2000cbfd0700809fbe000c00be000a01be0082
:100f3000c7fd07001e01be0051ff07004f01be00a4
:100f4000c4fd07008221270013f323004cff070094
:100f50000005be002e0090006100b90045010700a9
:100f600001f0a2000c01be00bafd07000006be00a1
:100f70000800be00640107000c01be0040ff07002e
:100f80000a01be00b3fd0700809fbe004a000700b3
:100f90002e0590000af0a7000a05ea0005003700b8
:100fa0000800be000801be0035ff07000004be00b7
:100fb0000c00be000801be000a00a70030ff0700b9
:100fc0000006be000a05d100f5ff3a005e01900060
:100fd00002e0a600030037000001be003600070053
:100fe000f9fd07000004be004f00be007d000700b1
:100ff0000801be0022ff07003e019000200107000b
:10100000de0590000bf0a70001f0a2004f06be0025
:101010004f05be004f04be000080fa00000006002d
:1010200025000700f9ff3700270007006000b8001f
:101030000bd0a7000bc0a0000be0a7000bc0a200c4
:101040000bc0a70001f82700f0ff37000df8a30040
:10105000020032001e000700190007000bf8a30071
:10106000eaff32000b30a70001f0a200e7ff3700d3
:101070000df8a300f9ff3a00f7ff37000801be00a2
:101080000b000700e6ff320001003c000df0a2005b
:101090006000b8000df0a70009000700dbff370073
:1010a0000b000700f1ff2700f0ff2f00d7ff3700ec
:1010b0000100070006fe370001f8230000000500cc
:1010c00001f8270000000500200220000100370081
:1010d000100220001042880000000600889fbe0019
:1010e0008a9fbe008c1f78000004be00b7fe070078
:1010f0000478a30026003a006120e10025003200b8
:1011000009f8a30025003a006420e1002100320024
:10111000f507b1000508a3000200320000004000fe
:10112000818048006044b8000310200002002000c5
:1011300000004000818048000805440089854c007b
:101140000a0541008b8549000a0550008b8558002f
:10115000030033000a00be0002047400838474009c
:101160008301d1000281d300830f7100f0ff3a00a8
:101170008904d1000884d30060014900820178000d
:10118000c1adde00fb07b0006afe0700b5fe370008
:101190000960a0000800be00b2fe37001202200065
:1011a00012428800f0ff2f00f1ff2700adfe37004c
:1011b0000003be0085fe07006220e100020032004d
:1011c0000600be0005000500e507b100f107b2000a
:1011d00004f023008480700007f0a70001f0a00055
:1011e00024000500889fbe008a9fbe008c9fbe0021
:1011f0000004be0075fe07000800be006420e10088
:1012000048003e005500320072212700132b2400b5
:10121000b1fd070047003c000800be00c2ec2800fa
:10122000e32c2c00aafd0700470035000800be0093
:1012300001f0a1000200200003382300a4fd0700f4
:10124000430035000800be00b2a32a0083fb230040
:101250008bfe07000200200003f0230001f0a7002e
:1012600003f0a000fbfc07009dfd07000005be0089
:101270008000070001f0a2000006be000200280066
:1012800013f323007efe07000801be00f1fc0700f7
:10129000809fbe000c00be0032082800e3952b00a2
:1012a00077fe07004f01be00eafc07000006be0003
:1012b0000001be0072fe0700809fbe004241250073
:1012c00083b823006efe07000200200003e823001d
:1012d000e0fc07000c01be0069fe07000006be002e
:1012e0004f00be00f2f92b00c3d4230064fe0700b8
:1012f0000200200003f02300d6fc07000c01be0012
:10130000d3fc07000001be000c00be002efd07004c
:101310000200200003f02300cefc0700610145001d
:10132000570007004f06be004f05be004f04be0029
:101330000000060001f82700000020002202200023
:1013400012428800f7ff37006000b800fbff37004b
:1013500001f8230000002000f2ff370009f8a30085
:10136000f0ff32006000b800eeff3700889fbe003b
:101370008a9fbe000003be0014fe070085057800aa
:1013800082815200020020006220e10004003a0045
:10139000f307b100040035007718e10004003500c0
:1013a0000600be00140037006000b8000f003700d0
:1013b000f50f2000faff2f008502d1000a85d30027
:1013c0008301e900fcff3b008184620000046500aa
:1013d000890f7400f2ff32008582ea000a85ea0074
:1013e0008184620000046500d2fd070007f0a700b9
:1013f00001f0a0000081eb000200e0004f05be00fc
:101400004f04be0000000600889fbe008a9fbe00f9
:10141000841f780002fe07004f007800110033009f
:10142000f0ff2f00838f6c0006003b000405650071
:101430000a00a7000800370009f0a60010002000ed
:1014400008003700820f5400838f5c0003003900ce
:101450001000200001003e000000200009f0a7005d
:101460000000ea004f05be004f04be000000e0008f
:10147000000006004f89de00820178007900370005
:101480000003be00d1fd07006220e100020032002f
:101490000600be000000060085024100e30f2000a8
:1014a0000328e10005003c00a3fe2f000328e10013
:1014b00007003d000500200001003700f50f200067
:1014c00020022000104288006000b80008003700a9
:1014d000130020008381520005003d008100d100ef
:1014e0000080d3008301e800fcff3a0005002000e3
:1014f000c72add00f107b2008580700007f0a70061
:1015000001f0a00000000600889fbe008a9fbe0078
:101510008c9fbe0026ff0700850478000005be00f2
:101520006420e10049003e006220e1000300320037
:10153000090035000bf8a300440032000bf8a300ab
:10154000080032001002200010428800f0ff2f0037
:10155000f1ff27003d00370001f82f0000002000b8
:101560003a0037003d00070039fc07000006be00c6
:101570000a00be00324f200053f32300d6fc0700c0
:10158000060034000c00be003400070030fc0700e9
:101590000006be000a00be00020037008904e90010
:1015a0000c00be002d000700b5fd07002b00070052
:1015b00028fc07000001be000c00be0082fc0700f2
:1015c0000005be000001be00adfd07000006be0024
:1015d000a2f32300430d2c001efc0700809fbe00d9
:1015e0000c00be00d2e32700d3f02b00a4fd0700bf
:1015f0004f01be0074fc07000006be000a01be00d9
:101600009ffd07000a01be0012fc07000006be0095
:101610006148b90097ff07000005be0032082800a6
:10162000e3952b0096fd07000c01be0009fc0700a6
:101630000006be000a00be000200280013f32300cb
:101640008ffd07000c01be0002fc07004f06be0024
:101650004f05be004f04be000000060003f023004b
:1016600002000500881f7800030478000300e000f2
:1016700007003d0060001000e080180060011900c4
:10168000e081190002003b0001f02d00030037004b
:101690000400070008f0a70001f0a0004f04780044
:1016a00000000600889fbe008a9fbe000082700076
:1016b0000402710004827100260032000004be00a2
:1016c0000200be006011b8006b09200095022000e6
:1016d0000182cf000a0039000541b1000082cf002d
:1016e000070039000541b1000982cf00040039002c
:1016f0000541b1000882cf00010039000541b10069
:1017000005425200120032000a003b008281710043
:10171000610164008100d1000080d3008984d3007e
:101720000884d3008b05e8000442e800f7ff3a0084
:10173000070037000804440089844c00000048007a
:10174000818048008b05e9000442e900f9ff3a0076
:10175000f8fc07004f05be004f04be000000060065
:041760000000050080
:020000040000fa
:0200000401f009
:04001c00dfff000002
:020000040000fa
:0200000401f009
:040014005f00000089
:020000040000fa
:0200000401f009
:04001000620000008a
:020000040000fa
:0200000401f009
:04000c00820000006e
:020000040000fa
:04003400c8020000fe
:020000040000fa
:10176400ec874700889fbe008a9fbe008c9fbe0006
:101774008e1f78000005be00820478000304780000
:101784006011b80009007800880078004ffc070059
:101794000000e00034003a006011b8000a00be0006
:1017a4004afc07000000e00022003a000907780024
:1017b400080378008e0178000601780003007800a1
:1017c400820078004f0778004f06be004f05be0028
:1017d4004f04be00cf00b1000000060009007800ed
:1017e40088007800540307000004e0004f00320032
:1017f4001dc0b3006011b8000900780088007800ab
:1018040032fc07000000e000010035008046eb00d8
:101814001cc0b3006011b8000a00be002bfc070016
:101824000000e000010035000046eb008ccf5600bc
:10183400deff3a000a0778000b0378008e01780077
:101844000601780003007800820078004f077800d2
:101854004f06be004f05be004f04be00cf00b100ce
:1018640000000600ddff37000a00be006203070027
:101874000004e0000d0032006e41800076418000db
:101884008e01780006017800030078008200780059
:101894004f0778004f06be004f05be004f04be0040
:1018a400cf00b10000000600ccff3700090078002b
:1018b40088007800500307000004e000eeff3a00bf
:1018c4000a00be001c0307000004e000eaff3a001f
:1018d4006011b8000a00be00fcfb07000000e00035
:1018e400beff3a000800be000101780080017800c4
:1018f4006000b800b3fb070000077800010378001c
:101904008e017800060178000300780082007800d8
:101914004f0778004f06be004f05be004f04be00bf
:10192400cf00b10000000600acff370009017800c9
:10193400880178000a00be002cfc0700d0b79f0085
:10194400c1b79f0000077800010378006011b80058
:101954000e0078008600780086bf9f00dbfb07003e
:101964000000e00058003200090078008800780088
:1019740016fc07000901780088017800d3fb0700f2
:101984000fbb97000000e00021003d000901780032
:10199400880178000a00be008afb07000006be002a
:1019a4000df0a1000200200003f023000c00be0093
:1019b40027fb070005fc07000001be000c00be0069
:1019c40022fb07000002be0005f0a1000200200077
:1019d400034023000c00be00e4b79f00f5b79f004e
:1019e400a6fc07000001be001cc0b3006fb2970044
:1019f400ffb297000400be00b6fb07000fbb9700c0
:101a04000000e000420034000c04e0002e0032002c
:101a14001cc0b3006011b800090078008800780089
:101a240086bf9f00a9fb07000fbb97000000e000e2
:101a3400010035000046eb001dc0b3006011b80082
:101a44008a0078000b007800010278008002780098
:101a54000400be0086bf9f009cfb07000fbb9700dd
:101a64000000e000010035008046eb008d4f560079
:101a740050ff32000800be000101780080017800a8
:101a8400dfb297004fb29700050078008400780019
:101a9400effa070000077800010378008e01780050
:101aa4000601780003007800820078004f07780070
:101ab4004f06be004f05be004f04be00cf00b1006c
:101ac4000000060045ff37006011b8000802be00a0
:101ad400050078008400780068fc0700000778009f
:101ae400010378008e017800060178000300780075
:101af400820078004f0778004f06be004f05be00f5
:101b04004f04be00cf00b1000000060033ff3700d1
:101b14000046eb000c04e000bdff3a00eaff37008a
:101b2400889fbe008a9fbe008c9fbe000004be003a
:101b34000205be00b00207000004e0000a00320003
:101b440062418000714180000202780081017800c6
:101b540004007800830078004f06be004f05be00e5
:101b64004f04be00000006000a00be00a2020700e7
:101b74000004e000f2ff3a000a00be006e02070013
:101b84000004e0001d00320009f0a1000200200062
:101b940003f823000800be004cfb07000000e0002f
:101ba4001d0032000200200003f823000800be00dc
:101bb40048fb07000000e0006d0034006011b8002d
:101bc4000a00be0043fb07000000e0006f003c0079
:101bd4000001eb00820078000202780081017800a5
:101be40004007800830078004f06be004f05be0055
:101bf4004f04be0000000600dbff37000a06be00eb
:101c04000df0a1006011b8000c00be002ffb07000e
:101c14000000e0000b003a000001eb0001f8230093
:101c240002027800810178000400780083007800c3
:101c34004f06be004f05be004f04be000000060064
:101c4400c9ff37000200200003f823000c00be0087
:101c54001efb07000000e00012003a006011b8000b
:101c64000a00be001bfb07000000e00052003c001d
:101c74000801be000000200001f82300d1fa07008b
:101c84000002780081017800040078008300780065
:101c94004f06be004f05be004f04be000000060004
:101ca400b1ff370002002000030024000a00be0038
:101cb40006fb07000000e0004a003200020020009a
:101cc40003f023000a00be0000fb07000000e00050
:101cd40005003a006011b8000800be00fdfa0700d4
:101ce4000000e00017003d006011b8000800be00cd
:101cf400f6fa07000000e00006003d000a00be00fe
:101d040032fb07000a01be00f0fa07000000e00001
:101d14008bff35000a01be000800be000bfc070063
:101d240000027800810178000400780083007800c4
:101d34004f06be004f05be004f04be000000060063
:101d440089ff37000800be00e3fc070000027800aa
:101d54008101780004007800830078004f06be00fb
:101d64004f05be004f04be00000006007eff370092
:101d74006011b8000a00be00d6fa07000001eb00ab
:101d8400820078000000e0006fff3c0022418000e8
:101d9400314180000202780081017800040078005b
:101da400830078004f06be004f05be004f04be00fe
:101db400000006006cff37000801780089007800f5
:101dc4000202780081017800040078008300780022
:101dd4004f06be004f05be004f04be0000000600c3
:101de40061ff37000801be000800be00a3fb070026
:101df40000027800810178000400780083007800f4
:101e04004f06be004f05be004f04be000000060092
:101e140055ff3700ee874700889fbe008a9fbe00ab
:101e24008c9fbe008e1f780002002000034824000f
:101e3400004080001140800049fe07000004be00fd
:101e4400020020000328240045fe07000005be0010
:101e54000200200003c823000800be0087fb07001f
:101e6400dafa070002002000030024003cfe070009
:101e74000006be006011b80096fa07000000e000fa
:101e84007b00340002002000031024000800be0080
:101e940033fe070000077800b1b79f006011b80057
:101ea4000a00be0089fa07006011b800c2b79f009b
:101eb400d3b79f000000e0000600320002002000bb
:101ec400c32724000a00be0080fa07000000e000d7
:101ed4008f003a004fb09700dfb09700c6010700ab
:101ee4000004e000ac0032000e68ef0020408000e7
:101ef40031408000b5fa0700c0b79f00d1b79f00fa
:101f0400bd0107000004e000640032000000eb00a3
:101f1400404088000a00be00acfa07000005be007d
:101f2400b50107000004e000280032000a28ef0091
:101f34000200200003c023000800be004ffb07007e
:101f4400a2fa0700020020000310240004fe070088
:101f54000005be00a80107000004e0002a003a00c2
:101f64000a00be005dfa07000001780062408800a4
:101f7400e38020009341780051408000404080007d
:101f8400250107000200200003f823000800be001a
:101f9400aff90700004088001140880002002000cb
:101fa40003f823000c00be00a9f9070020408800b4
:101fb400314088004f0778004f06be004f05be0031
:101fc4004f04be00ef00b100000006000a00be008e
:101fd40042fa0700504088000200200003c023009a
:101fe4000800be0025fb070078fa07000200200065
:101ff40003102400dafd07000005be007e0107007f
:102004000004e000d6ff32000c28ef000001eb00d2
:10201400e3802000934178005140800040408000dc
:10202400fd0007000200200003f823000800be00a2
:1020340087f9070000408800114088000200200052
:1020440003f823000c00be0081f90700204088003b
:10205400314088004f0778004f06be004f05be0090
:102064004f04be00ef00b10000000600d7ff3700a8
:1020740002002000031024000800be00b8fd070081
:102084000001be0000002000010e24006ff90700cb
:1020940000077800b1b79f0080ff37004fb097006a
:1020a400dfb09700240107000004e00097ff3a0026
:1020b40002002000037824004fb09700dfb097009f
:1020c4004afa070000077800010378006011b8009d
:1020d4000e00780086007800eeb79f00f6b79f00e8
:1020e40086bf9f00f9f907006fb29700ffb297000f
:1020f4000fbb97000000e0003b003d000400be0061
:1021040001f0a20016fa07000000ea0080ff370081
:102114000200200003b023000800be00d7fa070025
:102124002afa07004fb19700dfb19700e9f90700d9
:102134000000e000090034008e0078003fb09700f2
:10214400010178008001780000002000010e2400c5
:102154003ef9070000077800b1b79f008e007800b1
:102164003fb0970001017800800178000000200052
:10217400010024006afe070014fa0700c0b79f009c
:10218400d1b79f004fb09700dfb097001a01070046
:102194000004e00054ff3a00020020000338240049
:1021a4004fb09700dfb0970010fa07008001780065
:1021b400010178000300780082007800e8f9070044
:1021c4000ee8b7002040800031408000fff907008e
:1021d400c0b79f00d1b79f00070107000004e000cb
:1021e4004aff3a00adff37000e0078008600780001
:1021f400dbf9070046ff370000000600400020001e
:10220400ba00070010002000c04088001a28ef0020
:10221400006a2800e040880010002000f040880098
:10222400630007000428ef0000f823003040880012
:102234000000060000000600cca2a8000000e00098
:1022440004003a00cc22a900cc42a900cca2a900e7
:1022540000000600e10f500005003a00cc22a8005f
:10226400cc42a900cca2a90000000600f9ff370067
:10227400e20f5000f5ff3a00cc22a900cc42a8009e
:10228400cca2a90000000600f2ff3700cca2a800ef
:10229400cc62a900cc82a900e0032000901688003b
:1022a40010002000e4ff070000642000010020006b
:1022b4005801070020002000dfff07000064200011
:1022c4000100200053010700cca2a9000000060071
:1022d400cca2a800cc62a900cc82a900f003200003
:1022e4009016880010002000d3ff0700006420002f
:1022f400010020004701070020002000ceff070056
:10230400006420000100200042010700cca2a900c3
:1023140000000600881f780001447800c6ff07000b
:10232400cc82a9000884fb009816880000192000bc
:102334000100200037010700cca2a80000192000ea
:102344000100200033010700cca2a9000000eb002b
:10235400b9ff07004f04780000000600881f7800ca
:10236400f10f200081168800cc82a8000080fb00b9
:10237400b1ff07000019200001002000250107001b
:10238400cca2a800001920000100200021010700b0
:1023940098168000cca2a900d022ef000000eb0028
:1023a400a5ff0700084078004f04780000000600ed
:1023b400cca2a800d022ef00cc02a800cca2a90095
:1023c4000000eb009cff0700cc62a90001ccb30025
:1023d40010002000cfff070001ccb3002000200034
:1023e400ccff070001c4b30010002000c9ff0700a0
:1023f40001c4b30020002000c6ff070081cbb30056
:1024040010002000c3ff070081cbb3002000200090
:10241400c0ff0700aeff3700889fbe008a9fbe0042
:102424008c1f78000004be00820578000346780003
:102434000800780080ff0700cc62a900cc82a900c4
:10244400f0032000808f54000100340080047800e1
:102454008acbb300e78f5500100034008900780060
:10246400f107b2000160a00008007800a9ff07008e
:102474008a40780008007800a6ff0700cc62a80014
:10248400cc82a9000c86fb009c1688004f067800bd
:102494004f05be004f04be00000006000b05780087
:1024a400fa0bb2008a0bb30089007800f107b2007e
:1024b4000160a0000800780096ff07008a407800b9
:1024c4000800780093ff0700cc62a800cc82a90022
:1024d4000c86fb009c1688004f0678004f05be0052
:1024e4004f04be0000000600ecff3700e3000700c5
:1024f4006041880071418800e3000700c041880002
:10250400d1418800d1000700204188003141880072
:10251400d10007008041880091418800d100070064
:102524004041880051418800d1000700a041880043
:10253400b141880000000600889fbe008a1f780011
:102544000004be002241800033418000dff8070010
:102554001ac0b3000000e0000600320042418000cf
:10256400534180000800be00d8f807000000e000d6
:1025740004003a000a4078004f0578004f04be007a
:10258400000006000040eb004f0578004f04be0039
:1025940000000600fbff3700889fbe008a1f7800fa
:1025a4000004be008241800093418000c7f8070008
:1025b4001ac0b3000000e00006003200a24180000f
:1025c400b34180000800be00c0f807000000e0002e
:1025d40004003a000a4078004f0578004f04be001a
:1025e400000006000040eb004f0578004f04be00d9
:1025f40000000600fbff3700000378000400200001
:1026040005f82700058160008001eb00c011dd00a2
:10261400020020000040eb00840f5100858f590018
:10262400010032000000060001007800f007b2004b
:1026340080007800060078000001be00028171006d
:1026440002f0a7000201ea000201ea004f10de00d6
:1026540000000600000378000400200005f82700ad
:10266400058160008001eb00c011dd000200200044
:102674000040eb00840f5100858f590001003200a7
:102684000000060001007800f007b2008000780026
:10269400060078000001be000281710002f0a7006c
:1026a4000201ea000201ea004f10de000000060009
:1026b4004387ab0004003200103a80004c00de0077
:1026c400640060002d003200e0062000303a8800eb
:1026d40050002000203a8800a10920003200200088
:1026e40080072000337420008049780081497800f5
:1026f4008249780071052000120020006004200047
:102704002374200080497800814978008249780048
:10271400c01f20006019880000f02f0040168800b8
:10272400801688000100270000002300133a80006f
:1027340003816000800f5100fcff3a0042a7ab0008
:10274400feff3200adfe07000421ef00f0ff280079
:10275400a400b60000d0a000200588008460a90071
:102764009460a800f0182000100888000000e90018
:102774000008880005e1a800ffff3700a209200037
:102784008107200033742000814978008249780051
:1027940080497800710520001200200060042000a8
:1027a40023742000804978008149780082497800a8
:1027b400000000000000000000002700123a800022
:1027c40082006000c0ff3200123a80008200600084
:0827d400faff3a00bcff3700d8
:020000040000fa
:1027dc002408000018000000000000003c08000065
:1027ec0006000000020000001008010000000000bc
:1027fc000008000024000000000000004208000057
:0c280c00020000000000000000000000be
:020000040000fa
:10281800f03fb1000180b10006003500ee03090069
:1028280000000000403fb1000180b100fbff3d0007
:102838001000b000203fb000020035000080090001
:08284800000000000000060082
:020000040000fa
:102850000000200001f82700000006000000200012
:1028600001f82700000006000000200001f82f00fa
:10287000000006000000200001f82f000000060004
:102880000000200001fc2f000000060000002000d6
:0828900001fc2f00000006000e
:00000001FF
