:020000040000fa
:04005c005403000049
:020000040000fa
:040010005403000095
:020000040000fa
:04025c005403000047
:020000040000fa
:040210005403000093
:020000040000fa
:04027400540300002f
:020000040000fa
:04032400540300007e
:020000040000fa
:040350005403000052
:020000040000fa
:04022c005403000077
:020000040000fa
:04023c005403000067
:020000040000fa
:040280005403000023
:020000040000fa
:04028400540300001f
:020000040000fa
:04022800540300007b
:020000040000fa
:04027800540300002b
:020000040000fa
:04029c005403000007
:020000040000fa
:040260005403000043
:020000040000fa
:04026400540300003f
:020000040000fa
:040270005403000033
:020000040000fa
:04027c005403000027
:020000040000fa
:04028800540300001b
:020000040000fa
:04028c005403000017
:020000040000fa
:040290005403000013
:020000040000fa
:04029400540300000f
:020000040000fa
:04029800540300000b
:020000040000fa
:0402a0005403000003
:020000040000fa
:0402a40054030000ff
:020000040000fa
:0402a80054030000fb
:020000040000fa
:0402ac0054030000f7
:020000040000fa
:0402b00054030000f3
:020000040000fa
:0402b40054030000ef
:020000040000fa
:0402b80054030000eb
:020000040000fa
:0402bc0054030000e7
:020000040000fa
:0402c00054030000e3
:020000040000fa
:0402c40054030000df
:020000040000fa
:04023800540300006b
:020000040000fa
:0402c80054030000db
:020000040000fa
:0402cc0054030000d7
:020000040000fa
:0402d00054030000d3
:020000040000fa
:0402d40054030000cf
:020000040000fa
:0402d80054030000cb
:020000040000fa
:0402dc0054030000c7
:020000040000fa
:0402e00054030000c3
:020000040000fa
:0402e40054030000bf
:020000040000fa
:0402e80054030000bb
:020000040000fa
:0402ec0054030000b7
:020000040000fa
:0402f00054030000b3
:020000040000fa
:0402f40054030000af
:020000040000fa
:0402f80054030000ab
:020000040000fa
:0402fc0054030000a7
:020000040000fa
:0403000054030000a2
:020000040000fa
:04030400540300009e
:020000040000fa
:04030800540300009a
:020000040000fa
:04031400540300008e
:020000040000fa
:04031800540300008a
:020000040000fa
:04031c005403000086
:020000040000fa
:040320005403000082
:020000040000fa
:04032800540300007a
:020000040000fa
:040330005403000072
:020000040000fa
:04033400540300006e
:020000040000fa
:04033800540300006a
:020000040000fa
:04033c005403000066
:020000040000fa
:040340005403000062
:020000040000fa
:04034400540300005e
:020000040000fa
:04034800540300005a
:020000040000fa
:04026c005403000037
:020000040000fa
:04030c005403000096
:020000040000fa
:04034c005403000056
:020000040000fa
:04021800540300008b
:020000040000fa
:040230005403000073
:020000040000fa
:040240005403000063
:020000040000fa
:04020c005403000097
:020000040000fa
:040310005403000092
:020000040000fa
:04020800540300009b
:020000040000fa
:04021c005403000087
:020000040000fa
:040220005403000083
:020000040000fa
:04022400540300007f
:020000040000fa
:04026800540300003b
:020000040000fa
:04024c005403000057
:020000040000fa
:040250005403000053
:020000040000fa
:04021400540300008f
:020000040000fa
:04023400c8020000fc
:020000040000fa
:04024400540300005f
:020000040000fa
:04024800540300005b
:020000040000fa
:04032c005403000076
:020000040000fa
:04025400540300004f
:020000040000fa
:04025800540300004b
:020000040000fa
:040074005403000031
:020000040000fa
:040124005403000080
:020000040000fa
:040150005403000054
:020000040000fa
:04002c005403000079
:020000040000fa
:04003c005403000069
:020000040000fa
:040080005403000025
:020000040000fa
:040084005403000021
:020000040000fa
:04002800540300007d
:020000040000fa
:04007800540300002d
:020000040000fa
:04009c005403000009
:020000040000fa
:040060005403000045
:020000040000fa
:040064005403000041
:020000040000fa
:040070005403000035
:020000040000fa
:04007c005403000029
:020000040000fa
:04008800540300001d
:020000040000fa
:04008c005403000019
:020000040000fa
:040090005403000015
:020000040000fa
:040094005403000011
:020000040000fa
:04009800540300000d
:020000040000fa
:0400a0005403000005
:020000040000fa
:0400a4005403000001
:020000040000fa
:0400a80054030000fd
:020000040000fa
:0400ac0054030000f9
:020000040000fa
:0400b00054030000f5
:020000040000fa
:0400b40054030000f1
:020000040000fa
:0400b80054030000ed
:020000040000fa
:0400bc0054030000e9
:020000040000fa
:0400c00054030000e5
:020000040000fa
:0400c40054030000e1
:020000040000fa
:04003800540300006d
:020000040000fa
:0400c80054030000dd
:020000040000fa
:0400cc0054030000d9
:020000040000fa
:0400d00054030000d5
:020000040000fa
:0400d40054030000d1
:020000040000fa
:0400d80054030000cd
:020000040000fa
:0400dc0054030000c9
:020000040000fa
:0400e00054030000c5
:020000040000fa
:0400e40054030000c1
:020000040000fa
:0400e80054030000bd
:020000040000fa
:0400ec0054030000b9
:020000040000fa
:0400f00054030000b5
:020000040000fa
:0400f40054030000b1
:020000040000fa
:0400f80054030000ad
:020000040000fa
:0400fc0054030000a9
:020000040000fa
:0401000054030000a4
:020000040000fa
:0401040054030000a0
:020000040000fa
:04010800540300009c
:020000040000fa
:040114005403000090
:020000040000fa
:04011800540300008c
:020000040000fa
:04011c005403000088
:020000040000fa
:040120005403000084
:020000040000fa
:04012800540300007c
:020000040000fa
:040130005403000074
:020000040000fa
:040134005403000070
:020000040000fa
:04013800540300006c
:020000040000fa
:04013c005403000068
:020000040000fa
:040140005403000064
:020000040000fa
:040144005403000060
:020000040000fa
:04014800540300005c
:020000040000fa
:04006c005403000039
:020000040000fa
:04010c005403000098
:020000040000fa
:04014c005403000058
:020000040000fa
:04001800540300008d
:020000040000fa
:040030005403000075
:020000040000fa
:040040005403000065
:020000040000fa
:04000c005403000099
:020000040000fa
:040110005403000094
:020000040000fa
:04000800540300009d
:020000040000fa
:04001c005403000089
:020000040000fa
:040020005403000085
:020000040000fa
:040024005403000081
:020000040000fa
:04006800540300003d
:020000040000fa
:04004c005403000059
:020000040000fa
:040050005403000055
:020000040000fa
:040014005403000091
:020000040000fa
:040044005403000061
:020000040000fa
:04004800540300005d
:020000040000fa
:04012c005403000078
:020000040000fa
:040054005403000051
:020000040000fa
:04005800540300004d
:020000040000fa
:080000000002040000000000f2
:020000040000fa
:100400004f9720000eff20000e0188000000000022
:10041000000020000000e000020032000001200087
:1004200020028800140007002b0207000000e000f3
:1004300003003a00e096200001002000020037008f
:100440000000200001002000810f70000100320038
:1004500014000700000020000000e000020032004d
:1004600000000200000000003e0b0200000000003f
:100470000040da000000fe004440a9000000200017
:100480000000e0000300320000002000a00188000e
:100490004440a800000006008a1f78008b1f7800e7
:1004a0000000060091018800800478000000eb0045
:1004b0001a003700e284440032a0b4009905ba0063
:1004c000e284440032a0b4009906ba00e2844400f9
:1004d00032a0b4000006eb00476fde00fd07b2005b
:1004e000636ce10003003a00ebff07000000eb0043
:1004f0000a003700606ce10004003a00005deb0088
:100500008b05e900fdff3e00040037006168e10053
:10051000010032000086eb000b00070019c7ba008b
:100520001905ba000e04e00003003a000a00e000da
:10053000e0ff3a0000000600fe07b2009e018800be
:100540008a047800f5ff3700395dba008b05e900b1
:100550000c003200295dba008b05e900080032006a
:100560000c00e00003003a00e284440032a0b40032
:10057000f5ff370019ddba008b05e900faff3a00f4
:100580008904e800e184440032a0b40000000600c1
:100590003600f800809fbe00829fbe00849fbe0090
:1005a000869fbe003400f80000002000a0018800f3
:1005b0008460a9006c09ed00604b880003003a00dc
:1005c00080002000604b88004e09a8006e09ed00f5
:1005d000704b880003003a0000012000704b880037
:1005e0004e29a8007009ed00804b880003003a00f6
:1005f000803e2000804b88004e49a800b7010700cc
:100600008460ab0021003a0042a0a80042c0a900cb
:100610005009ab001d003a004e09ab000500320046
:100620005009a8004e09a900250207004e09ab0099
:10063000fbff3a005009a9005029ab0013003a0013
:100640004e29ab00050032005029a8004e29a90010
:10065000540207004e29ab00fbff3a005029a900c5
:100660005049ab0009003a004e49ab00040032008b
:100670005049a8004e49a9004e49ab00fcff3a0082
:100680005049a90042c0a80042a0a9003400f900c6
:100690004f03be004f02be004f01be004f00be0020
:1006a0003600f900004006000040da000000fe00bd
:1006b000140020006d0137000001be00b9000700e2
:1006c0000470a70003f0a1006509b1001600320014
:1006d0000d0035006828e10006003500f0ff2f000e
:1006e000f1ff27000300e00013003b000100280099
:1006f0000000050000004000818048008502e900fc
:10070000fcff3a0008003700f88f420002003c006e
:100710008000eb00000005008100d1000080d300c4
:100720008502e800fcff3a000300e00002003b0005
:1007300060001000e0801800000006000001be000c
:10074000980007000470a70003f0a10003f8a300bd
:1007500013003a006509b1001000320009003500ad
:100760006928e100020035000100280000000500b2
:1007700000004000818048008502e900fcff3a004b
:1007800000000600f88f4200050035008100d1000e
:100790000080d3008502e800fcff3a00000006005c
:1007a0008000eb00000005000001eb0008010700dd
:1007b000040032000200200003f8230001f0a7002b
:1007c000a50007000000060004002000000037001c
:1007d000889fbe008a9fbe008c1f78004f26dd00d8
:1007e000850007008c0033006120e10043003200e7
:1007f0006250e10041003e003e0039006420e1000b
:100800003c003200058255000f003b000402e80066
:1008100038003a00800f5300818f5b0035003400b0
:100820000800be0003f0a10001f0a60003f0a00044
:100830000cf0a70089000700800037000603430082
:1008400087834b000c4646000005530081855b0002
:10085000020033000a03be000c00a0000402e900fd
:10086000f6ff3b00850578000602430087824b00b7
:1008700004003a006000b80009f0a70001f0a000f1
:100880006e0037000002520081825a000704e00027
:10089000040033000603430087834b008b05e90007
:1008a000faff3700090578000604be000203be0007
:1008b0006011b80015000700e00f5200e08f5a00e9
:1008c0000700350002003c000c08a30004003200c1
:1008d0000601be0003f0a0000cf0a7005f000700b7
:1008e0000a85680001f0a1000af0a70001f0a0004d
:1008f000520037000800be005000370010022000f0
:100900000cf0a600904b88005000370081002000ba
:10091000618055000b003d000b00200061fe2f00a0
:100920000100e1001d00340082817100610164005a
:100930008904d1000884d3000000e800faff3a00df
:10094000710020006100640003007000020060007c
:100950000900320061044400e0844c000988a500cd
:10096000050032008b05e8006808e10002003a004b
:100970008904d1000884d300f20f20000258e1005e
:1009800005003d00c75ddd00f907b20089807500f4
:1009900008007800000006000bf827008b007800a4
:1009a00000000500c70ade00f107b200f50fb20033
:1009b00008003200e1cf4200020032000170a000c6
:1009c00024000500810f70000100320004080500ba
:1009d00044000500810f700002003a001400050079
:1009e0008502e9000000400081c04800fcff3b0098
:1009f0000170a000240005000004be00e9ff07000c
:100a00000003be000405be000200be00e5ff0700b3
:100a1000844f7500000006000200be006450e10033
:100a2000050036006420e100020036000968a300da
:100a300001003a000800be000160a0004f067800e7
:100a40004f05be004f04be0000000600f0ff2f005f
:100a5000f1ff2700f9ff370003f0a200889fbe00d6
:100a60008a9fbe008c1f7800e3ff0700eaff330077
:100a70006450e1004f0032006420e1005200320077
:100a800003826c0007003b000905d0000306d0007c
:100a9000820f54000c065d00020039000200320093
:100aa00089017800030678008582550004003d0026
:100ab0000003fd008103fd008502ea008b854200f2
:100ac000840f720002003b0060001000e0801800fc
:100ad0006011b8000005eb007a28e1000a00390037
:100ae00006007800c75ddd00f707b200878075005b
:100af0002d003700828171000a01780061056000d5
:100b00008180d1000080d3008502e900f9ff3b001d
:100b1000060440008784480002003b006004140083
:100b2000e0841c000988a300070032008a8171005c
:100b300082817100610164008904d1000884d300be
:100b40008b05e800170037000978a30013003a006e
:100b50000b00e000130034008b05e900080444009a
:100b600089844c000a4474000978a3000d003a00ff
:100b70000b00e000070034008b05e9000804440086
:100b800089844c0001003a000b0020000978a30082
:100b9000f7ff32000001eb00020037008281710094
:100ba0000a01780059ff07000cf0a70001f0a0002f
:100bb000a2ff37006420e10002003a00838f6c003e
:100bc000a2ff33000801be000200be009bff3700f9
:100bd000889fbe008a9fbe000003be0071ff070011
:100be0008505780082815200020020006220e10029
:100bf00004003a00f307b100040035007718e10063
:100c0000040035000600be00140037006000b80084
:100c10000f003700f50f2000faff2f008502d100ea
:100c20000a85d3008301e900fcff3b008184620058
:100c300000046500890f7400f2ff32008582ea002b
:100c40000a85ea0081846200000465002fff070026
:100c500007f0a70001f0a0000081eb000200e00017
:100c60004f05be004f04be0000000600889fbe0076
:100c70008a9fbe00841f78005fff07004f00780046
:100c800011003300f0ff2f00838f6c0006003b0043
:100c9000040565000a00a7000800370009f0a60057
:100ca0001000200008003700820f5400838f5c0082
:100cb000030039001000200001003e000000200069
:100cc00009f0a7000000ea004f05be004f04be0077
:0c0cd0000000e00000000600000005002d
:020000040000fa
:0200000401f009
:04001c00dfff000002
:020000040000fa
:0200000401f009
:040014005f00000089
:020000040000fa
:0200000401f009
:04001000620000008a
:020000040000fa
:0200000401f009
:04000c00820000006e
:020000040000fa
:04003400c8020000fe
:020000040000fa
:100cdc00889fbe008a9fbe008c9fbe008e1f78002e
:100cec004a09ec00504a8800e70f5000010036001a
:100cfc004a29ef004c09ec00604a8800ef0f5000c5
:100d0c00010036004c29ef0037c9bf000080fb0002
:100d1c002004b0004200dd000a80200000004500e5
:100d2c001004be000800be009cfe07000006be00ba
:100d3c00210207000004e0001b0032008005eb00dc
:100d4c006b4988000800be0058fe07004012b00036
:100d5c00ea4178006093200003487800504a8000f4
:100d6c00e10f500030003200604a8000e10f50006b
:100d7c0032003200814980000b01780070498000fc
:100d8c002b0107003749ec00e64f500033003e00c2
:100d9c0037e9b7004f0778004f06be004f05be007d
:100dac004f04be00000006000c00be00d20107007c
:100dbc000004e000e1ff3a00020020000378240068
:100dcc000c00be007dfe070000077800810578004e
:100ddc000e0678008b0678006011b8000e007800c3
:100dec008b0078002ffe07000000e00022003d0081
:100dfc000c00be0001f0a2004dfe07008005ea00c9
:100e0c006b4988000800be0028fe07004012b000a5
:100e1c00ea4178006093200003487800504a800033
:100e2c00e10f5000d0ff3a003209f8002e09f9000a
:100e3c00604a8000e10f5000ceff3a00a1498000cb
:100e4c00814988000b01780070498000f800070088
:100e5c003749ec00e64f5000cdff36003769ef0004
:100e6c004f0778004f06be004f05be004f04be0072
:100e7c0000000600ccff37000e0078008b007800d5
:100e8c002bfe0700800578006b4988000800be0027
:100e9c0006fe07004012b000ea4178006093200083
:100eac0003487800504a8000e10f5000aeff3a0032
:100ebc00ddff3700889fbe008a9fbe0038c9bf0087
:100ecc000080fb004200dd0001802000008040001b
:100edc001000be0031fe07000004be00b601070082
:100eec000004e000090032000000eb00904988008b
:100efc003849ec00e14f50001e0036003869ef0015
:100f0c004f05be004f04be00000006000800be00e6
:100f1c00790107000004e000f3ff3a000200200012
:100f2c00037824000800be0024fe0700800578002a
:100f3c00010578000b0478008a0478006011b80071
:100f4c000b0078008a007800d6fd07000000e00056
:100f5c000d003d000800be0001f0a200f4fd0700ea
:100f6c000000ea00904988003849ec00e14f50003d
:100f7c00e2ff3e0038e9b7004f05be004f04be004b
:100f8c0000000600e1ff37000b0078008a007800b3
:100f9c00e7fd0700d5ff3700889fbe008a9fbe0083
:100fac0039c9bf000080fb000080e8004200dd0072
:100fbc0001802000008040001000be00f7fd0700fb
:100fcc000004be007c0107000004e0000a003200af
:100fdc000000eb00a04988003949ec00f1c3b300d4
:100fec00814f50001f003e0039e9b7004f05be008d
:100ffc004f04be00000006000800be003e010700c2
:10100c000004e000f2ff3a00020020000378240004
:10101c000800be00e9fd0700800578000105780096
:10102c000b0478008a0478006011b8000b0078007b
:10103c008a0078009bfd07000000e0000e003d00d8
:10104c000800be0001f0a200b9fd07000000ea0094
:10105c00a04988003949ec00f1c3b300814f50001e
:10106c00e1ff36003969ef004f05be004f04be00aa
:10107c0000000600e0ff37000b0078008a007800c3
:10108c00abfd0700d3ff3700000006004000200036
:10109c000601070010002000104a88008000200084
:1010ac00204a880000012000304a8800803e200041
:1010bc00404a880046003700000006000000e000af
:1010cc0005003200e10f500009003200e20f500021
:1010dc000400320000000600cc22a900cc42a9007a
:1010ec0000000600cc22a900cc42a800000006009b
:1010fc00cc22a800cc42a90000000600881f780072
:10110c0001447800edff0700cc82a9000884fb00a5
:10111c009816880000192000010020009f0107008c
:10112c00cca2a80000192000010020009b010700a0
:10113c00cca2a9000000eb00e0ff07004f047800f0
:10114c0000000600cc62a900f1c3b300100020001f
:10115c00eaff0700f1c3b30020002000e7ff3700cf
:10116c00cc62a900e1c3b30010002000e3ff07002c
:10117c00e1c3b30020002000e0ff3700881f780097
:10118c00f10f200081168800cc82a8000080fb00a3
:10119c00caff070000192000010020007f01070092
:1011ac00cca2a80000192000010020007b01070040
:1011bc0098168000cca2a900d022ef000000eb0012
:1011cc00beff0700084078004f04780000000600be
:1011dc00d022ef00cc02a8000000eb00b7ff070004
:1011ec00cc62a90001ccb30010002000c3ff0700a3
:1011fc0001ccb30020002000c0ff070001c4b300e5
:10120c0010002000bdff070001c4b3002000200027
:10121c00baff070081cbb30010002000b7ff070016
:10122c0081cbb30020002000b4ff0700c5ff3700be
:10123c00889fbe008a1f78000004780083447800e1
:10124c00f0032000808f50000100340080007800f3
:10125c00f103b200e70f51000100340072002000ce
:10126c0067056100cc62a9000160a000080078004d
:10127c00a2ff07008a007800810bb30008007800f9
:10128c009eff0700080078008cff0700cc62a800c6
:10129c00cc82a9008984fb009916880000192000d3
:1012ac00010020003d010700cca2a800001920007d
:1012bc000100200039010700cca2a9000000eb00be
:1012cc007eff07004f0578004f04be0000000600ab
:020000040000fa
:1012dc00000800002c01000002000000000080004b
:1012ec003f000000004000000000000000008000f3
:1012fc003f00000000400000004040000000800063
:10130c0040000000a040000000c040000000e000d1
:10131c0040000000004100000010410000002000cf
:10132c00410000003041000000404100000050002e
:10133c00410000006041000000704100000080008e
:10134c00410000008841000000904100000098001e
:10135c0041000000a041000000a841000000b000c6
:10136c0041000000b841000000c041000000c8006e
:10137c0041000000d041000000d841000000e00016
:10138c0041000000e841000000f041000000f800be
:10139c004100000000420000000442000000080070
:1013ac00420000000c42000000104200000014003b
:1013bc004200000018420000001c42000000200007
:1013cc0042000000244200000028420000002c00d3
:1013dc00420000003042000000344200000038009f
:1013ec00420000003c42000000404200000044006b
:1013fc004200000048420000004c42000000500037
:10140c0042000000544200000058420000005c0002
:10141c0042000000604200000064420000006800ce
:10142c00420000006c42000000704200000074009a
:10143c004200000078420000007c42000000800066
:10144c003f00000000400000004040000000800011
:10145c0040000000a040000000c040000000e00080
:10146c0040010300070f1f003f7fff0052090000df
:10147c0018000000000000006a09000008000000cd
:10148c00020000003a090100000100000100000008
:10149c002c0900002600000000000000720900006a
:0c14ac0002000000000000000000000032
:020000040000fa
:1014b800d5000700d04a8800e14a8800d500070017
:1014c800304b8800414b8800c3000700904a8800d1
:1014d800a14a8800c3000700f04a8800014b880031
:1014e800c3000700b04a8800c14a8800c30007004b
:1014f800104b8800214b880000000600889fbe0022
:101508008a1f78000004be00924a8000a34a800027
:1015180065fc07001ac0b3000000e00006003200b6
:10152800b24a8000c34a80000800be005efc070083
:101538000000e00004003a000a4078004f057800f7
:101548004f04be00000006000040eb004f05780085
:101558004f04be0000000600fbff3700889fbe0056
:101568008a1f78000004be00f24a8000034b800006
:101578004dfc07001ac0b3000000e000060032006e
:10158800124b8000234b80000800be0046fc070079
:101598000000e00004003a000a4078004f05780097
:1015a8004f04be00000006000040eb004f05780025
:1015b8004f04be0000000600fbff37000003780060
:1015c8000400200005f82700058160008001eb0079
:1015d800c011dd00020020000040eb00840f510024
:1015e800858f5900010032000000060001007800d4
:1015f800f007b20080007800060078000001be0005
:101608000281710002f0a7000201ea000201ea006b
:101618004f10de00000006000003780004002000e0
:1016280005f82700058160008001eb00c011dd008e
:10163800020020000040eb00840f5100858f590004
:10164800010032000000060001007800f007b20037
:1016580080007800060078000001be000281710059
:1016680002f0a7000201ea000201ea004f10de00c2
:10167800000006004387ab0004003200103a8000e7
:101688004c00de00640060002e003200e0062000fe
:10169800303a880050002000203a8800a109200034
:1016a8003200200080072000337420008049780031
:1016b80081497800824978007105200012002000d5
:1016c8006004200023742000804978008149780054
:1016d80082497800c01f20006019880000fc2f0094
:1016e8004016880000f02f008016880001002700af
:1016f80000002300133a800003816000800f51002e
:10170800fcff3a0042a7ab00feff320060fe070074
:101718000421ef00f0ff2800a400b60000d0a000cc
:10172800200588008460a9009460a800f0c32900ff
:10173800100888000000e9000008880005e1a800fa
:10174800ffff3700a2092000810720003374200022
:101758008149780082497800804978007105200025
:1017680012002000600420002374200080497800c3
:1017780081497800824978000000000000000000dc
:1017880000002700123a800082006000bfff32008c
:10179800123a800082006000faff3a00bbff37006f
:020000040000fa
:1017a800f03fb1000180b10006003500ee030900ea
:1017b80000000000403fb1000180b100fbff3d0088
:1017c8001000b000203fb000020035000080090082
:0817d800000000000000060003
:020000040000fa
:1017e0000000200001f82700000006000000200093
:1017f00001f82700000006000000200001f82f007b
:10180000000006000000200001f82f000000060084
:101810000000200001fc2f00000006000000200056
:0818200001fc2f00000006008e
:00000001FF
