:020000040000fa
:04005c00a2030000fb
:020000040000fa
:04001000a203000047
:020000040000fa
:04025c00a2030000f9
:020000040000fa
:04021000a203000045
:020000040000fa
:04027400a2030000e1
:020000040000fa
:04032400a203000030
:020000040000fa
:04035000a203000004
:020000040000fa
:04022c00c802000004
:020000040000fa
:04023c00de020000de
:020000040000fa
:04028000a2030000d5
:020000040000fa
:04028400a2030000d1
:020000040000fa
:04022800a20300002d
:020000040000fa
:04027800a2030000dd
:020000040000fa
:04029c00a2030000b9
:020000040000fa
:04026000a2030000f5
:020000040000fa
:04026400a2030000f1
:020000040000fa
:04027000a2030000e5
:020000040000fa
:04027c00a2030000d9
:020000040000fa
:04028800a2030000cd
:020000040000fa
:04028c00a2030000c9
:020000040000fa
:04029000a2030000c5
:020000040000fa
:04029400a2030000c1
:020000040000fa
:04029800a2030000bd
:020000040000fa
:0402a000a2030000b5
:020000040000fa
:0402a400a2030000b1
:020000040000fa
:0402a800a2030000ad
:020000040000fa
:0402ac00a2030000a9
:020000040000fa
:0402b000a2030000a5
:020000040000fa
:0402b400a2030000a1
:020000040000fa
:0402b800a20300009d
:020000040000fa
:0402bc00a203000099
:020000040000fa
:0402c000a203000095
:020000040000fa
:0402c400a203000091
:020000040000fa
:04023800a20300001d
:020000040000fa
:0402c800a20300008d
:020000040000fa
:0402cc00a203000089
:020000040000fa
:0402d000a203000085
:020000040000fa
:0402d400a203000081
:020000040000fa
:0402d800a20300007d
:020000040000fa
:0402dc00a203000079
:020000040000fa
:0402e000a203000075
:020000040000fa
:0402e400a203000071
:020000040000fa
:0402e800a20300006d
:020000040000fa
:0402ec00a203000069
:020000040000fa
:0402f000a203000065
:020000040000fa
:0402f400a203000061
:020000040000fa
:0402f800a20300005d
:020000040000fa
:0402fc00a203000059
:020000040000fa
:04030000a203000054
:020000040000fa
:04030400a203000050
:020000040000fa
:04030800a20300004c
:020000040000fa
:04031400a203000040
:020000040000fa
:04031800a20300003c
:020000040000fa
:04031c00a203000038
:020000040000fa
:04032000a203000034
:020000040000fa
:04032800a20300002c
:020000040000fa
:04033000a203000024
:020000040000fa
:04033400a203000020
:020000040000fa
:04033800a20300001c
:020000040000fa
:04033c00a203000018
:020000040000fa
:04034000a203000014
:020000040000fa
:04034400a203000010
:020000040000fa
:04034800a20300000c
:020000040000fa
:04026c00a2030000e9
:020000040000fa
:04030c00a203000048
:020000040000fa
:04034c00a203000008
:020000040000fa
:04021800a20300003d
:020000040000fa
:04023000a203000025
:020000040000fa
:04024000a203000015
:020000040000fa
:04020c00a203000049
:020000040000fa
:04031000a203000044
:020000040000fa
:04020800a20300004d
:020000040000fa
:04021c00a203000039
:020000040000fa
:04022000a203000035
:020000040000fa
:04022400a203000031
:020000040000fa
:04026800a2030000ed
:020000040000fa
:04024c00a203000009
:020000040000fa
:04025000a203000005
:020000040000fa
:04021400a203000041
:020000040000fa
:04023400f4020000d0
:020000040000fa
:04024400a203000011
:020000040000fa
:04024800a20300000d
:020000040000fa
:04032c00a203000028
:020000040000fa
:04025400a203000001
:020000040000fa
:04025800a2030000fd
:020000040000fa
:04007400a2030000e3
:020000040000fa
:04012400a203000032
:020000040000fa
:04015000a203000006
:020000040000fa
:04008000a2030000d7
:020000040000fa
:04008400a2030000d3
:020000040000fa
:04002800a20300002f
:020000040000fa
:04007800a2030000df
:020000040000fa
:04009c00a2030000bb
:020000040000fa
:04006000a2030000f7
:020000040000fa
:04006400a2030000f3
:020000040000fa
:04007000a2030000e7
:020000040000fa
:04007c00a2030000db
:020000040000fa
:04008800a2030000cf
:020000040000fa
:04008c00a2030000cb
:020000040000fa
:04009000a2030000c7
:020000040000fa
:04009400a2030000c3
:020000040000fa
:04009800a2030000bf
:020000040000fa
:0400a000a2030000b7
:020000040000fa
:0400a400a2030000b3
:020000040000fa
:0400a800a2030000af
:020000040000fa
:0400ac00a2030000ab
:020000040000fa
:0400b000a2030000a7
:020000040000fa
:0400b400a2030000a3
:020000040000fa
:0400b800a20300009f
:020000040000fa
:0400bc00a20300009b
:020000040000fa
:0400c000a203000097
:020000040000fa
:0400c400a203000093
:020000040000fa
:04003800a20300001f
:020000040000fa
:0400c800a20300008f
:020000040000fa
:0400cc00a20300008b
:020000040000fa
:0400d000a203000087
:020000040000fa
:0400d400a203000083
:020000040000fa
:0400d800a20300007f
:020000040000fa
:0400dc00a20300007b
:020000040000fa
:0400e000a203000077
:020000040000fa
:0400e400a203000073
:020000040000fa
:0400e800a20300006f
:020000040000fa
:0400ec00a20300006b
:020000040000fa
:0400f000a203000067
:020000040000fa
:0400f400a203000063
:020000040000fa
:0400f800a20300005f
:020000040000fa
:0400fc00a20300005b
:020000040000fa
:04010000a203000056
:020000040000fa
:04010400a203000052
:020000040000fa
:04010800a20300004e
:020000040000fa
:04011400a203000042
:020000040000fa
:04011800a20300003e
:020000040000fa
:04011c00a20300003a
:020000040000fa
:04012000a203000036
:020000040000fa
:04012800a20300002e
:020000040000fa
:04013000a203000026
:020000040000fa
:04013400a203000022
:020000040000fa
:04013800a20300001e
:020000040000fa
:04013c00a20300001a
:020000040000fa
:04014000a203000016
:020000040000fa
:04014400a203000012
:020000040000fa
:04014800a20300000e
:020000040000fa
:04006c00a2030000eb
:020000040000fa
:04010c00a20300004a
:020000040000fa
:04014c00a20300000a
:020000040000fa
:04001800a20300003f
:020000040000fa
:04003000a203000027
:020000040000fa
:04004000a203000017
:020000040000fa
:04000c00a20300004b
:020000040000fa
:04011000a203000046
:020000040000fa
:04000800a20300004f
:020000040000fa
:04001c00a20300003b
:020000040000fa
:04002000a203000037
:020000040000fa
:04002400a203000033
:020000040000fa
:04006800a2030000ef
:020000040000fa
:04004c00a20300000b
:020000040000fa
:04005000a203000007
:020000040000fa
:04001400a203000043
:020000040000fa
:04004400a203000013
:020000040000fa
:04004800a20300000f
:020000040000fa
:04012c00a20300002a
:020000040000fa
:04005400a203000003
:020000040000fa
:04005800a2030000ff
:020000040000fa
:080000000002040000000000f2
:020000040000fa
:10040000ef8320000eff20000e0188000000000096
:10041000000020000000e000020032000001200087
:100420002002880014000700ab0207000000e00073
:1004300003003a00e0c32000010020000200370062
:100440000000200001002000810f70000100320038
:1004500014000700000020000000e000020032004d
:1004600000000200000000009e0b020000000000df
:100470000040da000000fe004440a9000000200017
:100480000000e0000300320000002000a00188000e
:100490004440a800000006008a1f78008b1f7800e7
:1004a0000000060091018800800478000000eb0045
:1004b0001a003700e284440032a0b4009905ba0063
:1004c000e284440032a0b4009906ba00e2844400f9
:1004d00032a0b4000006eb00476fde00fd07b2005b
:1004e000636ce10003003a00ebff07000000eb0043
:1004f0000a003700606ce10004003a00005deb0088
:100500008b05e900fdff3e00040037006168e10053
:10051000010032000086eb000b00070019c7ba008b
:100520001905ba000e04e00003003a000a00e000da
:10053000e0ff3a0000000600fe07b2009e018800be
:100540008a047800f5ff3700395dba008b05e900b1
:100550000c003200295dba008b05e900080032006a
:100560000c00e00003003a00e284440032a0b40032
:10057000f5ff370019ddba008b05e900faff3a00f4
:100580008904e800e184440032a0b40000000600c1
:10059000801f78004261ab0003003200000a800037
:1005a0004261ab00fdff3a00b04188003028ec000a
:1005b0008420a9004f00780000400600801f7800ca
:1005c0004661ab0003003200200a80004661ab00a8
:1005d000fdff3a00a04188003228ec0084a0a90069
:1005e0004f007800004006003600f800809fbe00f3
:1005f000829fbe00849fbe00869fbe00889fbe0073
:100600008a9fbe008c1f78003400f8000000200094
:10061000a00188008460a9003a08ed00d04188005c
:1006200003003a0050002000d04188002c08a800a8
:100630001a0307008460ab0038003a0042a0a8000b
:1006400042c0a9002e08ab0034003a002c08ab00d1
:100650002f003200ca408000d94080002e08a80038
:100660002c08a9008a0078000900780001017800b0
:10067000800178000000200001f82300330007000b
:1006800000067800810578000c0578008b0478005e
:1006900018c0b3006011b8000c0078008b0078001f
:1006a000420107000000e00001003a000044eb00b6
:1006b000e1006400cb08dd006016800000b0a100fe
:1006c0000080700060168800884078000104a20055
:1006d000e1806000cc08dd006016800000c0a10051
:1006e00000807000601688002c08ab00dbff3a0029
:1006f0008c0178000b0178000300780082007800fc
:10070000c0408800d140880050822000084878000e
:100710002e08a90042c0a80042a0a9003400f90098
:100720004f0678004f05be004f04be004f03be00c9
:100730004f02be004f01be004f00be003600f90060
:10074000004006000040da000000fe0003f0a200b6
:10075000889fbe008a9fbe008c1f78005001070052
:10076000570133006450e1004f0032006420e10083
:100770005200320003826c0007003b000905d000e4
:100780000306d000820f54000c065d000200390001
:100790000200320089017800030678008582550046
:1007a00004003d000003fd008103fd008502ea0016
:1007b0008b854200840f720002003b006000100035
:1007c000e08018006011b8000005eb007a28e10015
:1007d0000a00390006007800c75ddd00f707b200a7
:1007e000878075002d003700828171000a01780032
:1007f000610560008180d1000080d3008502e9009e
:10080000f9ff3b00060440008784480002003b00db
:1008100060041400e0841c000988a3000700320073
:100820008a81710082817100610164008904d100b4
:100830000884d3008b05e800170037000978a3006f
:1008400013003a000b00e000130034008b05e900b0
:100850000804440089844c000a4474000978a30009
:100860000d003a000b00e000070034008b05e900a2
:100870000804440089844c0001003a000b00200069
:100880000978a300f7ff32000001eb0002003700f7
:10089000828171000a017800c60007000cf0a700f1
:1008a00001f0a0000f0137006420e10002003a00cf
:1008b000838f6c000f0133000801be000200be00f0
:1008c00008013700889fbe008a9fbe008c1f7800f9
:1008d000f3000700fa00330003866c006450e10067
:1008e0002e0032006420e100330032006150e1004c
:1008f0002f0032006120e100310032008585550073
:10090000eb07b000090020000804200005003700b4
:100910000804440089844c000a00310006034300a7
:1009200087834b000001530081815b00f8ff330097
:100930000203be000800a0000804440089844c00a3
:10094000f6ff3900c639dd00830173000100320073
:10095000130020008904d1000884d3000998a30063
:10096000050032000800a7000300a0008904d100a0
:100970000884d3008b05e8008904d1000884d300e3
:100980000001eb000281d2008a00070001f0a10003
:100990000cf0a70001f0a000d20037006420e100b5
:1009a000d40032000801be000200be00f7ff37008d
:1009b0006120e100cf0032006000b800f3ff370093
:1009c0000000200001f82700f0ff3700140020008d
:1009d00026013700f4ff2f00240137000001be007c
:1009e0009a0007000470a70003f0a10003f8a30019
:1009f00013003a006509b10010003200090035000b
:100a00006928e1000200350001002800000005000f
:100a100000004000818048008502e900fcff3a00a8
:100a200000000600f88f4200050035008100d1006b
:100a30000080d3008502e800fcff3a0000000600b9
:100a40008000eb00000005000001eb00e000070063
:100a5000040032000200200003f8230001f0a70088
:100a60003aff0700000006000400200000003700e5
:100a7000889fbe008a9fbe008c1f78004f26dd0035
:100a8000870007008e0033006120e1004300320040
:100a90006250e10041003e003e0039006420e10068
:100aa0003c003200058255000f003b000402e800c4
:100ab00038003a00800f5300818f5b00350034000e
:100ac0000800be0003f0a10001f0a60003f0a000a2
:100ad0000cf0a7001eff070082003700060343004a
:100ae00087834b000c4646000005530081855b0060
:100af000020033000a03be000c00a0000402e9005b
:100b0000f6ff3b00850578000602430087824b0014
:100b100004003a006000b80009f0a70001f0a0004e
:100b2000700037000002520081825a000704e00082
:100b3000040033000603430087834b008b05e90064
:100b4000faff3700090578000604be000203be0064
:100b50006011b80017000700e00f5200e08f5a0044
:100b60000700350002003c000c08a300040032001e
:100b70000601be0003f0a0000cf0a700f4fe070081
:100b80000a85680001f0a1000af0a70001f0a000aa
:100b9000540037000800be00520037001002200049
:100ba0000cf0a600e041880052003700040020004d
:100bb000ae00370081002000618055000b003d0031
:100bc0000b00200061fe2f000100e1001d00340039
:100bd00082817100610164008904d1000884d3001e
:100be0000000e800faff3a00710020006100640094
:100bf000030070000200600009003200610444003c
:100c0000e0844c000988a500050032008b05e8004f
:100c10006808e10002003a008904d1000884d3008a
:100c2000f20f20000258e10005003d00c75ddd0025
:100c3000f907b200898075000800780000000600fe
:100c40000bf827008b00780000000500c70ade00c3
:100c5000f107b200f50fb20008003200e1cf420008
:100c6000020032000170a00024000500810f700016
:100c7000010032000408050044000500810f7000e7
:100c800002003a00140005008502e900000040005f
:100c900081c04800fcff3b000170a000240005005b
:100ca0000004be00e9ff07000003be000405be000b
:100cb0000200be00e5ff0700844f7500000006003b
:100cc0000200be006450e100050036006420e1002f
:100cd000020036000968a30001003a000800be00c7
:100ce0000160a0004f0678004f05be004f04be0013
:100cf00000000600f0ff2f00f1ff2700f9ff37008a
:100d0000889fbe008a9fbe008c1f7800e4ff07000a
:100d1000ebff330003866c006450e10024003200d6
:100d20006420e100270032006150e100220032001f
:100d30006120e100210032008b854200eb07b10009
:100d40000134b800003ab8000804420089844a001f
:100d5000013ab8000030b8008880400009014a001c
:100d60000400330000004000818048000201490077
:100d70008b05e900c909dd00830170000100320024
:100d800013002000c814de004814dd004709de000f
:100d90001200b200c808de000884700085ff07005a
:100da00001f0a1000cf0a70001f0a000cdff37007a
:100db0006120e100cfff32000801be000200be004a
:100dc000f7ff37006150e100fcff3a00c9ff370030
:100dd000889fbe008a9fbe000003be009bff0700e5
:100de0008505780082815200020020006220e10027
:100df00004003a00f307b100040035007718e10061
:100e0000040035000600be00140037006000b80082
:100e10000f003700f50f2000faff2f008502d100e8
:100e20000a85d3008301e900fcff3b008184620056
:100e300000046500890f7400f2ff32008582ea0029
:100e40000a85ea00818462000004650059ff0700fa
:100e500007f0a70001f0a0000081eb000200e00015
:100e60004f05be004f04be0000000600889fbe0074
:100e70008a9fbe00841f780089ff07004f0078001a
:100e800011003300f0ff2f00838f6c0006003b0041
:100e9000040565000a00a7000800370009f0a60055
:100ea0001000200008003700820f5400838f5c0080
:100eb000030039001000200001003e000000200067
:100ec00009f0a7000000ea004f05be004f04be0075
:0c0ed0000000e00000000600000005002b
:020000040000fa
:04002c00c802000006
:020000040000fa
:04003c00de020000e0
:020000040000fa
:0200000401f009
:04001c00dfff000002
:020000040000fa
:0200000401f009
:040014005f00000089
:020000040000fa
:0200000401f009
:04001000620000008a
:020000040000fa
:0200000401f009
:04000c00820000006e
:020000040000fa
:04003400f4020000d2
:020000040000fa
:100edc00ec874700889fbe008a9fbe008c9fbe0097
:100eec008e1f78000005be00820478000304780091
:100efc006011b8000900780088007800b0fe070087
:100f0c000000e00034003a006011b8000a00be0096
:100f1c00abfe07000000e00022003a000907780051
:100f2c00080378008e017800060178000300780031
:100f3c00820078004f0778004f06be004f05be00b8
:100f4c004f04be00cf00b10000000600090078007d
:100f5c0088007800980107000004e0004f00320080
:100f6c001dc0b3006011b80009007800880078003b
:100f7c0093fe07000000e000010035008046eb0006
:100f8c001cc0b3006011b8000a00be008cfe070044
:100f9c000000e000010035000046eb008ccf56004d
:100fac00deff3a000a0778000b0378008e01780008
:100fbc000601780003007800820078004f07780063
:100fcc004f06be004f05be004f04be00cf00b1005f
:100fdc0000000600ddff37000a00be00a601070076
:100fec000004e0000d0032004e40800056408000ae
:100ffc008e017800060178000300780082007800ea
:10100c004f0778004f06be004f05be004f04be00d0
:10101c00cf00b10000000600ccff370009007800bb
:10102c0088007800940107000004e000eeff3a000d
:10103c000a00be00600107000004e000eaff3a006d
:10104c006011b8000a00be005dfe07000000e00061
:10105c00beff3a000800be00010178008001780054
:10106c006000b80014fe0700000778000103780048
:10107c008e01780006017800030078008200780069
:10108c004f0778004f06be004f05be004f04be0050
:10109c00cf00b10000000600acff3700090178005a
:1010ac00880178000a00be006cfe0700d0b79f00d4
:1010bc00c1b79f0000077800010378006011b800e9
:1010cc000e0078008600780086bf9f003cfe07006b
:1010dc000000e00058003200090078008800780019
:1010ec0056fe0700090178008801780034fe0700dd
:1010fc000fbb97000000e00021003d0009017800c3
:10110c00880178000a00be00ebfd07000006be0057
:10111c000df0a1000200200003f023000c00be0023
:10112c0088fd070045fe07000001be000c00be0054
:10113c0083fd07000002be0005f0a10002002000a4
:10114c00034023000c00be00e4b79f00f5b79f00de
:10115c00e8fe07000001be001cc0b3006fb2970090
:10116c00ffb297000400be0017fe07000fbb9700ec
:10117c000000e000420034000c04e0002e003200bd
:10118c001cc0b3006011b80009007800880078001a
:10119c0086bf9f000afe07000fbb97000000e0000f
:1011ac00010035000046eb001dc0b3006011b80013
:1011bc008a0078000b007800010278008002780029
:1011cc000400be0086bf9f00fdfd07000fbb97000b
:1011dc000000e000010035008046eb008d4f56000a
:1011ec0050ff32000800be00010178008001780039
:1011fc00dfb297004fb297000500780084007800aa
:10120c0050fd070000077800010378008e0178007c
:10121c000601780003007800820078004f07780000
:10122c004f06be004f05be004f04be00cf00b100fc
:10123c000000060045ff37006011b8000802be0030
:10124c000500780084007800aafe070000077800eb
:10125c00010378008e017800060178000300780005
:10126c00820078004f0778004f06be004f05be0085
:10127c004f04be00cf00b1000000060033ff370062
:10128c000046eb000c04e000bdff3a00eaff37001b
:10129c00889fbe008a9fbe008c9fbe002a48ec002f
:1012ac002ae8b700e44f5000450036002a68ef00ea
:1012bc0024c8bf00e8408000f94080000004e00032
:1012cc0046003a00d2cc2c00c3dc23000800be0040
:1012dc0088fe0700d9fd0700d8fd07000005be00f9
:1012ec00e50007000004e000450032000000eb00c0
:1012fc006116800001006800f00fb20000806800e9
:10130c00601688008b4180000b4188003028ef006c
:10131c009a4180001a4188003228ef000200200018
:10132c00832c24000800be00a5fd07000000e0008f
:10133c00160032000a00e00014003a000b00e00036
:10134c00080032000200200003f823008802780015
:10135c00090278000500780084007800f9fc070089
:10136c000004be00880178000901780003007800b1
:10137c0082007800e0408800f14088004f06be00f3
:10138c004f05be004f04be00000006000004eb0039
:10139c00880478008801780009017800030078003f
:1013ac0082007800e0408800f14088004f06be00c3
:1013bc004f05be004f04be0000000600f3ff3700cf
:1013cc00e14f500025003a0025c8bf0024e8b700c3
:1013dc00e8408000f9408000baff32000200200093
:1013ec00031224000800be00b9fe070093fd07009d
:1013fc000005be00a00007000004e000bbff3a009f
:10140c000a00be006c0007000004e000b7ff3a00c1
:10141c0002002000037824000a00be008ffd0700a4
:10142c0080067800010678000d0578008c057800a0
:10143c006011b8000d0078008c00780060fd07008a
:10144c000000e00007003d000a00be0001f0a20011
:10145c005ffd07000000ea00a5ff370024c8bf00ad
:10146c0094ff37000d0078008c00780058fd0700c1
:10147c009fff3700881f7800c2408000d340800057
:10148c000000200001f82300adfc0700800278006a
:10149c00010278000501780084017800c2408800c0
:1014ac00d340880018c0b3006011b8000500780064
:1014bc0084007800bafd07000000e00001003a004b
:1014cc000044eb00e1006400cb08dd0060168000f6
:1014dc0000b0a10000807000601688008840780081
:1014ec000104a200e1806000cc08dd0060168000e1
:1014fc0000c0a1000080700060168800508220009f
:10150c00084878004f0478000000060040002000d6
:10151c001600070010c0b30028e8b70050c0b30095
:10152c0029e8b70010082000100a88000080e800a5
:10153c00300a88008420a900f0f82f0022058000d2
:10154c00820060000160a000210588009420a800a2
:10155c0084a0a900a600b6000060a0003005880099
:10156c0094a0a8000000060000000600de000700a2
:10157c004040880051408800de000700a0408800f1
:10158c00b1408800cc000700004088001140880062
:10159c00cc0007006040880071408800cc00070038
:1015ac002040880031408800cc0007008040880033
:1015bc009140880000000600889fbe008a1f7800ba
:1015cc000004be000240800013408000fcfc0700b9
:1015dc001ac0b3000000e000060032002240800078
:1015ec00334080000800be00f5fc07000000e0005e
:1015fc0004003a000a4078004f0578004f04be0002
:10160c00000006000040eb004f0578004f04be00c0
:10161c0000000600fbff3700889fbe008a1f780081
:10162c000004be006240800073408000e4fc0700b0
:10163c001ac0b3000000e0000600320082408000b7
:10164c00934080000800be00ddfc07000000e000b5
:10165c0004003a000a4078004f0578004f04be00a1
:10166c00000006000040eb004f0578004f04be0060
:10167c0000000600fbff3700000378000400200088
:10168c0005f82700058160008001eb00c011dd002a
:10169c00020020000040eb00840f5100858f5900a0
:1016ac00010032000000060001007800f007b200d3
:1016bc0080007800060078000001be0002817100f5
:1016cc0002f0a7000201ea000201ea004f10de005e
:1016dc0000000600000378000400200005f8270035
:1016ec00058160008001eb00c011dd0002002000cc
:1016fc000040eb00840f5100858f5900010032002f
:10170c000000060001007800f007b20080007800ad
:10171c00060078000001be000281710002f0a700f3
:10172c000201ea000201ea004f10de000000060090
:10173c004387ab0004003200103a80004c00de00fe
:10174c006400600033003200e0062000303a88006c
:10175c0050002000203a8800a1092000320020000f
:10176c00800720003374200080497800814978007c
:10177c0082497800710520001200200060042000ce
:10178c0023742000804978008149780082497800d0
:10179c00c00f2000601988000011210070348800ef
:1017ac0000702e0040168800010027000000230066
:1017bc00133a800003816000800f5100fcff3a0057
:1017cc0042a7ab00feff320050ff07000421ef00e0
:1017dc00f0ff2800a400b60000d0a000200588006f
:1017ec008460a9009460a800f0342c0010088800d4
:1017fc0000012000200888001021ef000ca1ef0050
:10180c0011e1a800e0342c000008880005e1a800d4
:10181c00ffff3700a209200081072000337420004d
:10182c008149780082497800804978007105200050
:10183c0012002000600420002374200080497800ee
:10184c008149780082497800000000000000000007
:10185c0000002700123a800082006000baff3200bc
:10186c00123a800082006000faff3a00b6ff37009f
:020000040000fa
:10187c003008000008000000000000000008000014
:10188c0018000000000000003808000004000000f0
:10189c0002000000260801000000000018080000eb
:1018ac0018000000000000003c08000002000000ce
:0818bc00000000000000000024
:020000040000fa
:1018c4000000200001f827000000060000002000ae
:1018d40001f82700000006000000200001f82f0096
:1018e400000006000000200001f82f0000000600a0
:1018f4000000200001fc2f00000006000000200072
:0819040001fc2f0000000600a9
:00000001FF
