:020000040000fa
:04005c003603000067
:020000040000fa
:0400100036030000b3
:020000040000fa
:04025c003603000065
:020000040000fa
:0402100036030000b1
:020000040000fa
:04027400360300004d
:020000040000fa
:04032400360300009c
:020000040000fa
:040350003603000070
:020000040000fa
:04022c00c802000004
:020000040000fa
:04023c00f6020000c6
:020000040000fa
:040280003603000041
:020000040000fa
:04028400360300003d
:020000040000fa
:040228003603000099
:020000040000fa
:040278003603000049
:020000040000fa
:04029c003603000025
:020000040000fa
:040260003603000061
:020000040000fa
:04026400360300005d
:020000040000fa
:040270003603000051
:020000040000fa
:04027c003603000045
:020000040000fa
:040288003603000039
:020000040000fa
:04028c003603000035
:020000040000fa
:040290003603000031
:020000040000fa
:04029400360300002d
:020000040000fa
:040298003603000029
:020000040000fa
:0402a0003603000021
:020000040000fa
:0402a400360300001d
:020000040000fa
:0402a8003603000019
:020000040000fa
:0402ac003603000015
:020000040000fa
:0402b0003603000011
:020000040000fa
:0402b400360300000d
:020000040000fa
:0402b8003603000009
:020000040000fa
:0402bc003603000005
:020000040000fa
:0402c0003603000001
:020000040000fa
:0402c40036030000fd
:020000040000fa
:040238003603000089
:020000040000fa
:0402c80036030000f9
:020000040000fa
:0402cc0036030000f5
:020000040000fa
:0402d00036030000f1
:020000040000fa
:0402d40036030000ed
:020000040000fa
:0402d80036030000e9
:020000040000fa
:0402dc0036030000e5
:020000040000fa
:0402e00036030000e1
:020000040000fa
:0402e40036030000dd
:020000040000fa
:0402e80036030000d9
:020000040000fa
:0402ec0036030000d5
:020000040000fa
:0402f00036030000d1
:020000040000fa
:0402f40036030000cd
:020000040000fa
:0402f80036030000c9
:020000040000fa
:0402fc0036030000c5
:020000040000fa
:0403000036030000c0
:020000040000fa
:0403040036030000bc
:020000040000fa
:0403080036030000b8
:020000040000fa
:0403140036030000ac
:020000040000fa
:0403180036030000a8
:020000040000fa
:04031c0036030000a4
:020000040000fa
:0403200036030000a0
:020000040000fa
:040328003603000098
:020000040000fa
:040330003603000090
:020000040000fa
:04033400360300008c
:020000040000fa
:040338003603000088
:020000040000fa
:04033c003603000084
:020000040000fa
:040340003603000080
:020000040000fa
:04034400360300007c
:020000040000fa
:040348003603000078
:020000040000fa
:04026c003603000055
:020000040000fa
:04030c0036030000b4
:020000040000fa
:04034c003603000074
:020000040000fa
:0402180036030000a9
:020000040000fa
:040230003603000091
:020000040000fa
:040240003603000081
:020000040000fa
:04020c0036030000b5
:020000040000fa
:0403100036030000b0
:020000040000fa
:0402080036030000b9
:020000040000fa
:04021c0036030000a5
:020000040000fa
:0402200036030000a1
:020000040000fa
:04022400360300009d
:020000040000fa
:040268003603000059
:020000040000fa
:04024c003603000075
:020000040000fa
:040250003603000071
:020000040000fa
:0402140036030000ad
:020000040000fa
:04023400240300009f
:020000040000fa
:04024400360300007d
:020000040000fa
:040248003603000079
:020000040000fa
:04032c003603000094
:020000040000fa
:04025400360300006d
:020000040000fa
:040258003603000069
:020000040000fa
:04007400360300004f
:020000040000fa
:04012400360300009e
:020000040000fa
:040150003603000072
:020000040000fa
:040080003603000043
:020000040000fa
:04008400360300003f
:020000040000fa
:04002800360300009b
:020000040000fa
:04007800360300004b
:020000040000fa
:04009c003603000027
:020000040000fa
:040060003603000063
:020000040000fa
:04006400360300005f
:020000040000fa
:040070003603000053
:020000040000fa
:04007c003603000047
:020000040000fa
:04008800360300003b
:020000040000fa
:04008c003603000037
:020000040000fa
:040090003603000033
:020000040000fa
:04009400360300002f
:020000040000fa
:04009800360300002b
:020000040000fa
:0400a0003603000023
:020000040000fa
:0400a400360300001f
:020000040000fa
:0400a800360300001b
:020000040000fa
:0400ac003603000017
:020000040000fa
:0400b0003603000013
:020000040000fa
:0400b400360300000f
:020000040000fa
:0400b800360300000b
:020000040000fa
:0400bc003603000007
:020000040000fa
:0400c0003603000003
:020000040000fa
:0400c40036030000ff
:020000040000fa
:04003800360300008b
:020000040000fa
:0400c80036030000fb
:020000040000fa
:0400cc0036030000f7
:020000040000fa
:0400d00036030000f3
:020000040000fa
:0400d40036030000ef
:020000040000fa
:0400d80036030000eb
:020000040000fa
:0400dc0036030000e7
:020000040000fa
:0400e00036030000e3
:020000040000fa
:0400e40036030000df
:020000040000fa
:0400e80036030000db
:020000040000fa
:0400ec0036030000d7
:020000040000fa
:0400f00036030000d3
:020000040000fa
:0400f40036030000cf
:020000040000fa
:0400f80036030000cb
:020000040000fa
:0400fc0036030000c7
:020000040000fa
:0401000036030000c2
:020000040000fa
:0401040036030000be
:020000040000fa
:0401080036030000ba
:020000040000fa
:0401140036030000ae
:020000040000fa
:0401180036030000aa
:020000040000fa
:04011c0036030000a6
:020000040000fa
:0401200036030000a2
:020000040000fa
:04012800360300009a
:020000040000fa
:040130003603000092
:020000040000fa
:04013400360300008e
:020000040000fa
:04013800360300008a
:020000040000fa
:04013c003603000086
:020000040000fa
:040140003603000082
:020000040000fa
:04014400360300007e
:020000040000fa
:04014800360300007a
:020000040000fa
:04006c003603000057
:020000040000fa
:04010c0036030000b6
:020000040000fa
:04014c003603000076
:020000040000fa
:0400180036030000ab
:020000040000fa
:040030003603000093
:020000040000fa
:040040003603000083
:020000040000fa
:04000c0036030000b7
:020000040000fa
:0401100036030000b2
:020000040000fa
:0400080036030000bb
:020000040000fa
:04001c0036030000a7
:020000040000fa
:0400200036030000a3
:020000040000fa
:04002400360300009f
:020000040000fa
:04006800360300005b
:020000040000fa
:04004c003603000077
:020000040000fa
:040050003603000073
:020000040000fa
:0400140036030000af
:020000040000fa
:04004400360300007f
:020000040000fa
:04004800360300007b
:020000040000fa
:04012c003603000096
:020000040000fa
:04005400360300006f
:020000040000fa
:04005800360300006b
:020000040000fa
:080000000002040000000000f2
:020000040000fa
:100400004f8320000eff20000e0188000000000036
:10041000000020000000e000020032000001200087
:100420002002880014000700fb0107000000e00024
:1004300003003a006089200001002000020037001c
:100440000000200001002000810f70000100320038
:1004500014000700000020000000e000020032004d
:100460000000020000000000f6070200000000008b
:100470000040da000000fe004440a9000000200017
:100480000000e0000300320000002000a00188000e
:100490004440a800000006008a1f78008b1f7800e7
:1004a0000000060091018800800478000000eb0045
:1004b0001a003700e284440032a0b4009905ba0063
:1004c000e284440032a0b4009906ba00e2844400f9
:1004d00032a0b4000006eb00476fde00fd07b2005b
:1004e000636ce10003003a00ebff07000000eb0043
:1004f0000a003700606ce10004003a00005deb0088
:100500008b05e900fdff3e00040037006168e10053
:10051000010032000086eb000b00070019c7ba008b
:100520001905ba000e04e00003003a000a00e000da
:10053000e0ff3a0000000600fe07b2009e018800be
:100540008a047800f5ff3700395dba008b05e900b1
:100550000c003200295dba008b05e900080032006a
:100560000c00e00003003a00e284440032a0b40032
:10057000f5ff370019ddba008b05e900faff3a00f4
:100580008904e800e184440032a0b40000000600c1
:10059000809fbe004261ab0003003200000a800071
:1005a0004261ab00fdff3a004201ab0008003a0097
:1005b0004201a80081418000810050003141880043
:1005c000804188008420a9004f00be000040060042
:1005d0004201a9002828ec00804188008420a9005d
:1005e0004f00be0000400600f9ff3700809fbe00ac
:1005f0004661ab0003003200200a80004661ab0078
:10060000fdff3a004601ab0008003a004601a80091
:100610007141800081005000514188007041880084
:1006200084a0a9004f00be00004006004601a900ba
:100630002c28ec007041880084a0a9004f00be0067
:1006400000400600f9ff37003400f800881f7800ea
:1006500008002000a80188004f0478001808a800ae
:100660008460a9003400f900004006000040da0070
:100670000000fe0003f0a200889fbe008a9fbe001b
:100680008c1f78000a010700110133006450e1005b
:100690004f0032006420e1005200320003826c00ff
:1006a00007003b000905d0000306d000820f54006c
:1006b0000c065d000200390002003200890178005a
:1006c000030678008582550004003d000003fd000c
:1006d0008103fd008502ea008b854200840f7200d1
:1006e00002003b0060001000e08018006011b800bc
:1006f0000005eb007a28e1000a00390006007800c6
:10070000c75ddd00f707b200878075002d00370058
:10071000828171000a017800610560008180d1004a
:100720000080d3008502e900f9ff3b000604400089
:100730008784480002003b0060041400e0841c0031
:100740000988a300070032008a817100828171004c
:10075000610164008904d1000884d3008b05e8009e
:10076000170037000978a30013003a000b00e000df
:10077000130034008b05e9000804440089844c0010
:100780000a4474000978a3000d003a000b00e00051
:10079000070034008b05e9000804440089844c00fc
:1007a00001003a000b0020000978a300f7ff320097
:1007b0000001eb0002003700828171000a0178001d
:1007c000800007000cf0a70001f0a000c90037006e
:1007d0006420e10002003a00838f6c00c9003300fe
:1007e0000801be000200be00c20037001400200055
:1007f000ee0037000001be00980007000470a7005b
:1008000003f0a10003f8a30013003a006509b1004a
:1008100010003200090035006928e10002003500af
:100820000100280000000500000040008180480011
:100830008502e900fcff3a0000000600f88f420044
:10084000050035008100d1000080d3008502e8005a
:10085000fcff3a00000006008000eb0000000500ed
:100860000001eb00aa000700040032000200200093
:1008700003f8230001f0a7007eff07000000060038
:100880000400200000003700889fbe008a9fbe0041
:100890008c1f78004f26dd00850007008c00330098
:1008a0006120e100430032006250e10041003e005f
:1008b0003e0039006420e1003c0032000582550012
:1008c0000f003b000402e80038003a00800f53009c
:1008d000818f5b00350034000800be0003f0a100ea
:1008e00001f0a60003f0a0000cf0a70062ff0700d3
:1008f000800037000603430087834b000c46460008
:100900000005530081855b00020033000a03be002e
:100910000c00a0000402e900f6ff3b00850578000a
:100920000602430087824b0004003a006000b800d2
:1009300009f0a70001f0a0006e003700000252008d
:1009400081825a000704e0000400330006034300dc
:1009500087834b008b05e900faff37000905780013
:100960000604be000203be006011b80015000700b7
:10097000e00f5200e08f5a000700350002003c00f3
:100980000c08a300040032000601be0003f0a00022
:100990000cf0a70038ff07000a85680001f0a100ed
:1009a0000af0a70001f0a000520037000800be00c6
:1009b00050003700100220000cf0a6009041880083
:1009c0005000370081002000618055000b003d0081
:1009d0000b00200061fe2f000100e1001d0034002b
:1009e00082817100610164008904d1000884d30010
:1009f0000000e800faff3a00710020006100640086
:100a0000030070000200600009003200610444002d
:100a1000e0844c000988a500050032008b05e80041
:100a20006808e10002003a008904d1000884d3007c
:100a3000f20f20000258e10005003d00c75ddd0017
:100a4000f907b200898075000800780000000600f0
:100a50000bf827008b00780000000500c70ade00b5
:100a6000f107b200f50fb20008003200e1cf4200fa
:100a7000020032000170a00024000500810f700008
:100a8000010032000408050044000500810f7000d9
:100a900002003a00140005008502e9000000400051
:100aa00081c04800fcff3b000170a000240005004d
:100ab0000004be00e9ff07000003be000405be00fd
:100ac0000200be00e5ff0700844f7500000006002d
:100ad0000200be006450e100050036006420e10021
:100ae000020036000968a30001003a000800be00b9
:100af0000160a0004f0678004f05be004f04be0005
:100b000000000600f0ff2f00f1ff2700f9ff37007b
:100b1000889fbe008a9fbe000003be00cfff070073
:100b20008505780082815200020020006220e100e9
:100b300004003a00f307b100040035007718e10023
:100b4000040035000600be00140037006000b80045
:100b50000f003700f50f2000faff2f008502d100ab
:100b60000a85d3008301e900fcff3b008184620019
:100b700000046500890f7400f2ff32008582ea00ec
:100b80000a85ea0081846200000465008dff070089
:100b900007f0a70001f0a0000081eb000200e000d8
:100ba0004f05be004f04be0000000600889fbe0037
:100bb0008a9fbe00841f7800bdff07004f007800a9
:100bc00011003300f0ff2f00838f6c0006003b0004
:100bd000040565000a00a7000800370009f0a60018
:100be0001000200008003700820f5400838f5c0043
:100bf000030039001000200001003e00000020002a
:100c000009f0a7000000ea004f05be004f04be0037
:0c0c10000000e0000000060000000500ed
:020000040000fa
:04002c00c802000006
:020000040000fa
:04003c00f6020000c8
:020000040000fa
:0200000401f009
:04001c00dfff000002
:020000040000fa
:0200000401f009
:040014005f00000089
:020000040000fa
:0200000401f009
:04001000620000008a
:020000040000fa
:0200000401f009
:04000c00820000006e
:020000040000fa
:0400340024030000a1
:020000040000fa
:100c1c00889fbe008a9fbe008c9fbe00d84080007b
:100c2c00e94080000800be000aff07000005be0076
:100c3c00d40007000004e000220032000000eb00aa
:100c4c00601688002608f8001e08f9004141800053
:100c5c00014188002828ef002a08f8002208f90032
:100c6c0060418000204188002c28ef000000e0004b
:100c7c0037003a000100e0000800320002002000ba
:100c8c0003f8230088027800090278000500780038
:100c9c008400780075fe07000004be00880178000f
:100cac00090178000300780082007800d0408800a9
:100cbc00e14088004f06be004f05be004f04be0049
:100ccc00000006000a00be007f0007000004e000e0
:100cdc00daff3a0002002000037824000a00be006c
:100cec00e4fe070080067800010678000d05780008
:100cfc008c0578006011b8000d0078008c0078002d
:100d0c00b7fe07000000e00024003d000a00be0012
:100d1c0001f0a200b4fe07000000ea006016880093
:100d2c002608f8001e08f9004141800001418800a6
:100d3c002828ef002a08f8002208f90060418000fa
:100d4c00204188002c28ef000000e000c9ff320091
:100d5c000200200003f823008802780009027800c2
:100d6c0005007800840078003ffe07000004be00f8
:100d7c00880178000901780003007800820078006f
:100d8c00d0408800e14088004f06be004f05be00f1
:100d9c004f04be0000000600caff37000d007800ab
:100dac008c00780090fe0700a5ff37004000200063
:100dbc001a00070030082000100a8800300a88004a
:100dcc008420a900f0f82f0022058000820060002a
:100ddc000160a000210588009420a80084a0a9002f
:100dec00a600b6000060a0003005880094a0a80002
:100dfc0000000600000006001808e200feff3200aa
:100e0c0042a0a8001808a90081ff070042a0a90071
:100e1c001808e200f8ff3200f9ff3700d90007008c
:100e2c004040880051408800d9000700a04088004d
:100e3c00b1408800c70007000040880011408800be
:100e4c00c70007006040880071408800c700070099
:100e5c002040880031408800c7000700804088008f
:100e6c009140880000000600889fbe008a1f780011
:100e7c000004be00024080001340800058fe0700b2
:100e8c001ac0b3000000e0000600320022408000cf
:100e9c00334080000800be0051fe07000000e00057
:100eac0004003a000a4078004f0578004f04be0059
:100ebc00000006000040eb004f0578004f04be0018
:100ecc0000000600fbff3700889fbe008a1f7800d9
:100edc000004be00624080007340800040fe0700aa
:100eec001ac0b3000000e00006003200824080000f
:100efc00934080000800be0039fe07000000e000af
:100f0c0004003a000a4078004f0578004f04be00f8
:100f1c00000006000040eb004f0578004f04be00b7
:100f2c0000000600fbff37000003780004002000df
:100f3c0005f82700058160008001eb00c011dd0081
:100f4c00020020000040eb00840f5100858f5900f7
:100f5c00010032000000060001007800f007b2002a
:100f6c0080007800060078000001be00028171004c
:100f7c0002f0a7000201ea000201ea004f10de00b5
:100f8c0000000600000378000400200005f827008c
:100f9c00058160008001eb00c011dd000200200023
:100fac000040eb00840f5100858f59000100320086
:100fbc000000060001007800f007b2008000780005
:100fcc00060078000001be000281710002f0a7004b
:100fdc000201ea000201ea004f10de0000000600e8
:100fec004387ab0004003200103a80004c00de0056
:100ffc006400600033003200e0062000303a8800c4
:10100c0050002000203a8800a10920003200200066
:10101c0080072000337420008049780081497800d3
:10102c008249780071052000120020006004200025
:10103c002374200080497800814978008249780027
:10104c00c00f200060198800001121007034880046
:10105c0000f02f004016880002002700010023003a
:10106c00133a800003006100810f5000fcff3a002e
:10107c0042a7ab00feff32004cff07000421ef003b
:10108c00f0ff2800a400b60000d0a00020058800c6
:10109c008460a9009460a800f0342c00100888002b
:1010ac0000012000200888001021ef000ca1ef00a7
:1010bc0011e1a800e0342c000008880005e1a8002c
:1010cc004dff0700a2092000810720003374200087
:1010dc0081497800824978008049780071052000a8
:1010ec001200200060042000237420008049780046
:1010fc00814978008249780000000000000000005f
:10110c0001002700123a800002806000baff320012
:10111c00123a800002806000faff3a00b6ff3700f6
:020000040000fa
:10112c00260800000c000000000000000008000071
:10113c001800000000000000180800000e0000005d
:10114c000000000032080000020000000000000057
:04115c00000000008f
:020000040000fa
:101160000000200001f82700000006000000200019
:1011700001f82700000006000000200001f82f0001
:10118000000006000000200001f82f00000006000b
:101190000000200001fc2f000000060000002000dd
:0811a00001fc2f000000060015
:00000001FF
