:020000040000fa
:04005c00ec030000b1
:020000040000fa
:04001000ec030000fd
:020000040000fa
:04025c00ec030000af
:020000040000fa
:04021000ec030000fb
:020000040000fa
:04027400ec03000097
:020000040000fa
:04032400ec030000e6
:020000040000fa
:04035000ec030000ba
:020000040000fa
:04022c00ec030000df
:020000040000fa
:04023c00ec030000cf
:020000040000fa
:04028000ec0300008b
:020000040000fa
:04028400ec03000087
:020000040000fa
:04022800ec030000e3
:020000040000fa
:04027800ec03000093
:020000040000fa
:04029c00ec0300006f
:020000040000fa
:04026000ec030000ab
:020000040000fa
:04026400ec030000a7
:020000040000fa
:04027000ec0300009b
:020000040000fa
:04027c00ec0300008f
:020000040000fa
:04028800ec03000083
:020000040000fa
:04028c00ec0300007f
:020000040000fa
:04029000ec0300007b
:020000040000fa
:04029400ec03000077
:020000040000fa
:04029800ec03000073
:020000040000fa
:0402a000ec0300006b
:020000040000fa
:0402a400ec03000067
:020000040000fa
:0402a800ec03000063
:020000040000fa
:0402ac00ec0300005f
:020000040000fa
:0402b000ec0300005b
:020000040000fa
:0402b400ec03000057
:020000040000fa
:0402b800ec03000053
:020000040000fa
:0402bc00ec0300004f
:020000040000fa
:0402c000ec0300004b
:020000040000fa
:0402c400ec03000047
:020000040000fa
:04023800ec030000d3
:020000040000fa
:0402c800ec03000043
:020000040000fa
:0402cc00ec0300003f
:020000040000fa
:0402d000ec0300003b
:020000040000fa
:0402d400ec03000037
:020000040000fa
:0402d800ec03000033
:020000040000fa
:0402dc00ec0300002f
:020000040000fa
:0402e000ec0300002b
:020000040000fa
:0402e400ec03000027
:020000040000fa
:0402e800ec03000023
:020000040000fa
:0402ec00ec0300001f
:020000040000fa
:0402f000ec0300001b
:020000040000fa
:0402f400ec03000017
:020000040000fa
:0402f800ec03000013
:020000040000fa
:0402fc00ec0300000f
:020000040000fa
:04030000ec0300000a
:020000040000fa
:04030400ec03000006
:020000040000fa
:04030800ec03000002
:020000040000fa
:04031400ec030000f6
:020000040000fa
:04031800ec030000f2
:020000040000fa
:04031c00ec030000ee
:020000040000fa
:04032000ec030000ea
:020000040000fa
:04032800ec030000e2
:020000040000fa
:04033000ec030000da
:020000040000fa
:04033400ec030000d6
:020000040000fa
:04033800ec030000d2
:020000040000fa
:04033c00ec030000ce
:020000040000fa
:04034000ec030000ca
:020000040000fa
:04034400ec030000c6
:020000040000fa
:04034800ec030000c2
:020000040000fa
:04026c00c8020000c4
:020000040000fa
:04030c00ec030000fe
:020000040000fa
:04034c00ec030000be
:020000040000fa
:04021800ec030000f3
:020000040000fa
:04023000ec030000db
:020000040000fa
:04024000ec030000cb
:020000040000fa
:04020c00ec030000ff
:020000040000fa
:04031000ec030000fa
:020000040000fa
:04020800ec03000003
:020000040000fa
:04021c00ec030000ef
:020000040000fa
:04022000ec030000eb
:020000040000fa
:04022400ec030000e7
:020000040000fa
:04026800ec030000a3
:020000040000fa
:04024c00ec030000bf
:020000040000fa
:04025000ec030000bb
:020000040000fa
:04021400ec030000f7
:020000040000fa
:040234009003000033
:020000040000fa
:04024400ec030000c7
:020000040000fa
:04024800ec030000c3
:020000040000fa
:04032c00ec030000de
:020000040000fa
:04025400ec030000b7
:020000040000fa
:04025800ec030000b3
:020000040000fa
:04007400ec03000099
:020000040000fa
:04012400ec030000e8
:020000040000fa
:04015000ec030000bc
:020000040000fa
:04002c00ec030000e1
:020000040000fa
:04003c00ec030000d1
:020000040000fa
:04008000ec0300008d
:020000040000fa
:04008400ec03000089
:020000040000fa
:04002800ec030000e5
:020000040000fa
:04007800ec03000095
:020000040000fa
:04009c00ec03000071
:020000040000fa
:04006000ec030000ad
:020000040000fa
:04006400ec030000a9
:020000040000fa
:04007000ec0300009d
:020000040000fa
:04007c00ec03000091
:020000040000fa
:04008800ec03000085
:020000040000fa
:04008c00ec03000081
:020000040000fa
:04009000ec0300007d
:020000040000fa
:04009400ec03000079
:020000040000fa
:04009800ec03000075
:020000040000fa
:0400a000ec0300006d
:020000040000fa
:0400a400ec03000069
:020000040000fa
:0400a800ec03000065
:020000040000fa
:0400ac00ec03000061
:020000040000fa
:0400b000ec0300005d
:020000040000fa
:0400b400ec03000059
:020000040000fa
:0400b800ec03000055
:020000040000fa
:0400bc00ec03000051
:020000040000fa
:0400c000ec0300004d
:020000040000fa
:0400c400ec03000049
:020000040000fa
:04003800ec030000d5
:020000040000fa
:0400c800ec03000045
:020000040000fa
:0400cc00ec03000041
:020000040000fa
:0400d000ec0300003d
:020000040000fa
:0400d400ec03000039
:020000040000fa
:0400d800ec03000035
:020000040000fa
:0400dc00ec03000031
:020000040000fa
:0400e000ec0300002d
:020000040000fa
:0400e400ec03000029
:020000040000fa
:0400e800ec03000025
:020000040000fa
:0400ec00ec03000021
:020000040000fa
:0400f000ec0300001d
:020000040000fa
:0400f400ec03000019
:020000040000fa
:0400f800ec03000015
:020000040000fa
:0400fc00ec03000011
:020000040000fa
:04010000ec0300000c
:020000040000fa
:04010400ec03000008
:020000040000fa
:04010800ec03000004
:020000040000fa
:04011400ec030000f8
:020000040000fa
:04011800ec030000f4
:020000040000fa
:04011c00ec030000f0
:020000040000fa
:04012000ec030000ec
:020000040000fa
:04012800ec030000e4
:020000040000fa
:04013000ec030000dc
:020000040000fa
:04013400ec030000d8
:020000040000fa
:04013800ec030000d4
:020000040000fa
:04013c00ec030000d0
:020000040000fa
:04014000ec030000cc
:020000040000fa
:04014400ec030000c8
:020000040000fa
:04014800ec030000c4
:020000040000fa
:04010c00ec03000000
:020000040000fa
:04014c00ec030000c0
:020000040000fa
:04001800ec030000f5
:020000040000fa
:04003000ec030000dd
:020000040000fa
:04004000ec030000cd
:020000040000fa
:04000c00ec03000001
:020000040000fa
:04011000ec030000fc
:020000040000fa
:04000800ec03000005
:020000040000fa
:04001c00ec030000f1
:020000040000fa
:04002000ec030000ed
:020000040000fa
:04002400ec030000e9
:020000040000fa
:04006800ec030000a5
:020000040000fa
:04004c00ec030000c1
:020000040000fa
:04005000ec030000bd
:020000040000fa
:04001400ec030000f9
:020000040000fa
:04004400ec030000c9
:020000040000fa
:04004800ec030000c5
:020000040000fa
:04012c00ec030000e0
:020000040000fa
:04005400ec030000b9
:020000040000fa
:04005800ec030000b5
:020000040000fa
:080000000002040000000000f2
:020000040000fa
:10040000af8420000eff20000e01880000000000d5
:10041000000020000000e000020032000001200087
:100420002002880014000700310307000000e000ec
:1004300003003a0080ee2000010020000200370097
:100440000000200001002000810f70000100320038
:1004500014000700000020000000e000020032004d
:100460000000020000000000540e02000000000026
:100470000040da000000fe004440a9000000200017
:100480000000e0000300320000002000a00188000e
:100490004440a800000006008a1f78008b1f7800e7
:1004a0000000060091018800800478000000eb0045
:1004b0001a003700e284440032a0b4009905ba0063
:1004c000e284440032a0b4009906ba00e2844400f9
:1004d00032a0b4000006eb00476fde00fd07b2005b
:1004e000636ce10003003a00ebff07000000eb0043
:1004f0000a003700606ce10004003a00005deb0088
:100500008b05e900fdff3e00040037006168e10053
:10051000010032000086eb000b00070019c7ba008b
:100520001905ba000e04e00003003a000a00e000da
:10053000e0ff3a0000000600fe07b2009e018800be
:100540008a047800f5ff3700395dba008b05e900b1
:100550000c003200295dba008b05e900080032006a
:100560000c00e00003003a00e284440032a0b40032
:10057000f5ff370019ddba008b05e900faff3a00f4
:100580008904e800e184440032a0b40000000600c1
:1005900000a0fe008620a900e04180008000eb0062
:1005a000ec0f5000e08f5800030036003c28ef00ad
:1005b0000080fe000040060000600100fcff3700e4
:1005c0001500370021003700270037002c003700c6
:1005d0003000370035003700390037003d00370064
:1005e00042003700460037000100370005003700a1
:1005f0000642a8003c28ec000080fe0000400600f7
:10060000edff37003e28ef003c28ef000080fe00a1
:1006100000400600e8ff3700c922a800c902a80070
:10062000a01820002010880000302800301088001a
:1006300060ff2f000822b6000622a8003c28ec002c
:100640000080fe0000400600dbff370060ff2f0047
:100650000822b6000642a8003c28ec000080fe00fc
:1006600000400600d4ff370060ff2f000822b600cc
:100670003c28ef000080fe0000400600ceff37005f
:100680000602a8003c28ec000080fe0000400600a6
:10069000c9ff3700a0092000101088003c28ec009a
:1006a0000080fe0000400600c3ff37000222ef007a
:1006b0003c28ec000080fe0000400600beff370032
:1006c0000622a8003c28ec000080fe000040060046
:1006d000b9ff3700b0092000101088003c28ec005a
:1006e0000080fe0000400600b3ff37000662a8004d
:1006f0003c28ec000080fe0000400600aeff370002
:100700000010800040e8b70006a2a8000682a800fa
:100710003c28ec000080fe0000400600a6ff3700e9
:100720003600f800809fbe00829fbe00849fbe00fe
:10073000869fbe003400f80000002000a001880061
:100740008460a90022428000334280006100510091
:10075000e08059002042880031428800e00f5000bc
:10076000e08f580005003a00036a28002342880001
:1007700013002000334288002008a8004d03070022
:100780008460ab000d003a0042a0a80042c0a9005e
:100790002208ab0009003a002008ab000400320038
:1007a0002208a8002008a9002008ab00fcff3a009e
:1007b0002208a90042c0a80042a0a9003400f90004
:1007c0004f03be004f02be004f01be004f00be00ef
:1007d0003600f900004006000040da000000fe008c
:1007e00003f0a200889fbe008a9fbe008c1f780085
:1007f00072010700790133006450e1004f003200bc
:100800006420e1005200320003826c0007003b00cc
:100810000905d0000306d000820f54000c065d00cd
:1008200002003900020032008901780003067800d6
:100830008582550004003d000003fd008103fd009a
:100840008502ea008b854200840f720002003b00a3
:1008500060001000e08018006011b8000005eb0097
:100860007a28e1000a00390006007800c75ddd0043
:10087000f707b200878075002d0037008281710074
:100880000a017800610560008180d1000080d300fa
:100890008502e900f9ff3b00060440008784480018
:1008a00002003b0060041400e0841c000988a300df
:1008b000070032008a817100828171006101640049
:1008c0008904d1000884d3008b05e80017003700a5
:1008d0000978a30013003a000b00e0001300340075
:1008e0008b05e9000804440089844c000a44740024
:1008f0000978a3000d003a000b00e0000700340067
:100900008b05e9000804440089844c0001003a008a
:100910000b0020000978a300f7ff32000001eb0074
:1009200002003700828171000a017800e8000700a8
:100930000cf0a70001f0a000310137006420e100b5
:1009400002003a00838f6c00310133000801be00c1
:100950000200be002a013700889fbe008a9fbe00a9
:100960008c1f7800150107001c01330003866c0002
:100970006450e1002e0032006420e10033003200b8
:100980006150e1002f0032006120e10031003200af
:1009900085855500eb07b000090020000804200001
:1009a000050037000804440089844c000a00310027
:1009b0000603430087834b000001530081815b00e5
:1009c000f8ff33000203be000800a0000804440042
:1009d00089844c00f6ff3900c639dd0083017300bd
:1009e00001003200130020008904d1000884d300e4
:1009f0000998a300050032000800a7000300a0002a
:100a00008904d1000884d3008b05e8008904d10053
:100a10000884d3000001eb000281d200ac00070083
:100a200001f0a1000cf0a70001f0a000f4003700d5
:100a30006420e100f60032000801be000200be00a2
:100a4000f7ff37006120e100f10032006000b800dc
:100a5000f3ff37000000200001f82700f0ff370007
:100a60001400200048013700f4ff2f004601370032
:100a70000001be00bc0007000470a70003f0a10045
:100a80006509b100160032000d0035006828e1004c
:100a900006003500f0ff2f00f1ff27000300e00003
:100aa00013003b000100280000000500000040008a
:100ab000818048008502e900fcff3a000800370009
:100ac000f88f420002003c008000eb0000000500af
:100ad0008100d1000080d3008502e800fcff3a00cd
:100ae0000300e00002003b0060001000e0801800fe
:100af000000006000001be009b0007000470a70074
:100b000003f0a10003f8a30013003a006509b10047
:100b100010003200090035006928e10002003500ac
:100b2000010028000000050000004000818048000e
:100b30008502e900fcff3a0000000600f88f420041
:100b4000050035008100d1000080d3008502e80057
:100b5000fcff3a00000006008000eb0000000500ea
:100b60004f89de0082017800220137000001eb008e
:100b7000de000700040032000200200003f823001a
:100b800001f0a70016ff0700000006000400200087
:100b900000003700889fbe008a9fbe008c1f78002f
:100ba0004f26dd00850007008c0033006120e10046
:100bb000430032006250e10041003e003e00390037
:100bc0006420e1003c003200058255000f003b002c
:100bd0000402e80038003a00800f5300818f5b0068
:100be000350034000800be0003f0a10001f0a600ab
:100bf00003f0a0000cf0a700fafe07008000370009
:100c00000603430087834b000c4646000005530053
:100c100081855b00020033000a03be000c00a000c7
:100c20000402e900f6ff3b00850578000602430058
:100c300087824b0004003a006000b80009f0a7006a
:100c400001f0a0006e0037000002520081825a00bd
:100c50000704e000040033000603430087834b00d1
:100c60008b05e900faff3700090578000604be008d
:100c70000203be006011b80015000700e00f52002b
:100c8000e08f5a000700350002003c000c08a3006a
:100c9000040032000601be0003f0a0000cf0a70023
:100ca000d0fe07000a85680001f0a1000af0a70045
:100cb00001f0a000520037000800be0050003700cd
:100cc000100220000cf0a6004042880050003700bf
:100cd00081002000618055000b003d000b002000ca
:100ce00061fe2f000100e1001d00340082817100cf
:100cf000610164008904d1000884d3000000e80089
:100d0000faff3a00710020006100640003007000e7
:100d1000020060000900320061044400e0844c00dd
:100d20000988a500050032008b05e8006808e1008d
:100d300002003a008904d1000884d300f20f200099
:100d40000258e10005003d00c75ddd00f907b20073
:100d50008980750008007800000006000bf8270065
:100d60008b00780000000500c70ade00f107b20022
:100d7000f50fb20008003200e1cf4200020032005d
:100d80000170a00024000500810f700001003200f6
:100d90000408050044000500810f700002003a00bd
:100da000140005008502e9000000400081c04800f1
:100db000fcff3b000170a000240005000004be0001
:100dc000e9ff07000003be000405be000200be00ec
:100dd000e5ff0700844f7500000006000200be001a
:100de0006450e100050036006420e1000200360096
:100df0000968a30001003a000800be000160a000dd
:100e00004f0678004f05be004f04be0000000600ec
:100e1000f0ff2f00f1ff2700f9ff3700889fbe0089
:100e20008a9fbe008c1f7800e4ff0700ebff3300b1
:100e300003866c006450e100240032006420e1006d
:100e4000270032006150e100220032006120e10001
:100e5000210032008b854200eb07b1000134b8005d
:100e6000003ab8000804420089844a00013ab800f8
:100e70000030b8008880400009014a0004003300b7
:100e80000000400081804800020149008b05e90014
:100e9000c909dd0083017000010032001300200049
:100ea000c814de004814dd004709de001200b2005d
:100eb000c808de000884700085ff070001f0a1006b
:100ec0000cf0a70001f0a000cdff37006120e10089
:100ed000cfff32000801be000200be00f7ff37005e
:100ee0006150e100fcff3a00c9ff3700889fbe0057
:100ef0008a9fbe000003be009bff070085057800a7
:100f000082815200020020006220e10004003a00c9
:100f1000f307b100040035007718e1000400350044
:100f20000600be00140037006000b8000f00370054
:100f3000f50f2000faff2f008502d1000a85d300ab
:100f40008301e900fcff3b0081846200000465002e
:100f5000890f7400f2ff32008582ea000a85ea00f8
:100f6000818462000004650059ff070007f0a700b4
:100f700001f0a0000081eb000200e0004f05be0080
:100f80004f04be0000000600889fbe008a9fbe007e
:100f9000841f780089ff07004f007800110033009c
:100fa000f0ff2f00838f6c0006003b0004056500f6
:100fb0000a00a7000800370009f0a6001000200072
:100fc00008003700820f5400838f5c000300390053
:100fd0001000200001003e000000200009f0a700e2
:100fe0000000ea004f05be004f04be000000e00014
:100ff00000000600881f7800030478000300e0006a
:1010000007003d0060001000e0801800600119003a
:10101000e081190002003b0001f02d0003003700c1
:101020000400070008f0a70001f0a0004f047800ba
:1010300000000600889fbe008a9fbe0000827000ec
:101040000402710004827100260032000004be0018
:101050000200be006011b8006b092000950220005c
:101060000182cf000a0039000541b1000082cf00a3
:10107000070039000541b1000982cf0004003900a2
:101080000541b1000882cf00010039000541b100df
:1010900005425200120032000a003b0082817100ba
:1010a000610164008100d1000080d3008984d300f5
:1010b0000884d3008b05e8000442e800f7ff3a00fb
:1010c000070037000804440089844c0000004800f1
:1010d000818048008b05e9000442e900f9ff3a00ed
:1010e000fbfe07004f05be004f04be0000000600d7
:0410f00000000500f7
:020000040000fa
:04006c00c8020000c6
:020000040000fa
:0200000401f009
:04001c00dfff000002
:020000040000fa
:0200000401f009
:040014005f00000089
:020000040000fa
:0200000401f009
:04001000620000008a
:020000040000fa
:0200000401f009
:04000c00820000006e
:020000040000fa
:040034009003000035
:020000040000fa
:1010f400ec874700889fbe008a9fbe008c9fbe007d
:101104008e1f78000005be00820478000304780076
:101114006011b80009007800880078004ffe0700cd
:101124000000e00034003a006011b8000a00be007c
:101134004afe07000000e00022003a000907780098
:10114400080378008e017800060178000300780017
:10115400820078004f0778004f06be004f05be009e
:101164004f04be00cf00b100000006000900780063
:10117400880078006d0207000004e0004f00320090
:101184001dc0b3006011b800090078008800780021
:1011940032fe07000000e000010035008046eb004d
:1011a4001cc0b3006011b8000a00be002bfe07008b
:1011b4000000e000010035000046eb008ccf560033
:1011c400deff3a000a0778000b0378008e017800ee
:1011d4000601780003007800820078004f07780049
:1011e4004f06be004f05be004f04be00cf00b10045
:1011f40000000600ddff37000a00be007b02070086
:101204000004e0000d0032006e4180007641800051
:101214008e017800060178000300780082007800cf
:101224004f0778004f06be004f05be004f04be00b6
:10123400cf00b10000000600ccff370009007800a1
:1012440088007800690207000004e000eeff3a001d
:101254000a00be00350207000004e000eaff3a007d
:101264006011b8000a00be00fcfd07000000e000a9
:10127400beff3a000800be0001017800800178003a
:101284006000b800b3fd0700000778000103780090
:101294008e0178000601780003007800820078004f
:1012a4004f0778004f06be004f05be004f04be0036
:1012b400cf00b10000000600acff37000901780040
:1012c400880178000a00be002ffe0700d0b79f00f7
:1012d400c1b79f0000077800010378006011b800cf
:1012e4000e0078008600780086bf9f00dbfd0700b3
:1012f4000000e000580032000900780088007800ff
:1013040019fe07000901780088017800d3fd070061
:101314000fbb97000000e00021003d0009017800a8
:10132400880178000a00be008afd07000006be009e
:101334000df0a1000200200003f023000c00be0009
:1013440027fd070008fe07000001be000c00be00d8
:1013540022fd07000002be0005f0a10002002000eb
:10136400034023000c00be00e4b79f00f5b79f00c4
:10137400a9fe07000001be001cc0b3006fb29700b5
:10138400ffb297000400be00b6fd07000fbb970034
:101394000000e000420034000c04e0002e003200a3
:1013a4001cc0b3006011b800090078008800780000
:1013b40086bf9f00a9fd07000fbb97000000e00057
:1013c400010035000046eb001dc0b3006011b800f9
:1013d4008a0078000b00780001027800800278000f
:1013e4000400be0086bf9f009cfd07000fbb970052
:1013f4000000e000010035008046eb008d4f5600f0
:1014040050ff32000800be0001017800800178001e
:10141400dfb297004fb2970005007800840078008f
:10142400effc070000077800010378008e017800c4
:101434000601780003007800820078004f077800e6
:101444004f06be004f05be004f04be00cf00b100e2
:101454000000060045ff37006011b8000802be0016
:1014640005007800840078006bfe07000007780010
:10147400010378008e0178000601780003007800eb
:10148400820078004f0778004f06be004f05be006b
:101494004f04be00cf00b1000000060033ff370048
:1014a4000046eb000c04e000bdff3a00eaff370001
:1014b4000400fa00889fbe008a9fbe008c9fbe0075
:1014c40002002000034824000040800011408000f6
:1014d40007ff07000004be000200200003c0230031
:1014e4004dfe0700a0fd07000200200003102400a9
:1014f400fffe07000005be00bc0107000004e00079
:10150400660032000828ef0020408000314080004f
:1015140095fd07000005be00b40107000004e000cb
:10152400680032000000eb005040880002002000f8
:10153400032824000800be00edfe07008afd070012
:101544000005be00a90107000004e0004f003200be
:101554000c28ef003c08e2003f003a000a84200017
:101564001a457800e08020000a4878003e28ec0004
:1015740040002000e04188008620a80040c6b30057
:10158400804f550001003600004578000a85fb00b5
:10159400300a200000d5b9000200200003302400e6
:1015a4000800be00d2fe07000001be004750de0066
:1015b4004655de00610565000a004000cf80de006c
:1015c40082bf9f0093bf9f0064fd07000fb997007f
:1015d4009fb9970021fd07000000e000540032008d
:1015e4000f68ef008041eb004240800061408000c2
:1015f40050408000050107000200200003f823008a
:101604000800be0076fc07000040880011408800f6
:101614000200200003c823000800be00fefd0700ee
:1016240051fd07000200200003002400b0fe070063
:101634000200200003f8230069fc07002040880012
:10164400314088004f06be004f05be004f04be0067
:101654000080fa0000000600f0418000e30f500013
:101664002f00360007e2a900c922a900c902a90077
:101674003e28ef0010002000e04188008620a800ea
:10168400ea8020001a457800bcff37000a00be003b
:10169400f6fc070060408800aeff37000a00be0079
:1016a400f2fc070040408800204080003140800068
:1016b4002dfd07000005be004c0107000004e000fa
:1016c40098ff3a000a00be00180107000004e00079
:1016d40094ff3a0002002000037824000a00be00b0
:1016e40029fd070080067800010678000d057800c2
:1016f4008c0578006011b8000d0078008c0078002b
:10170400d6fc07000000e00028003d000a00be00ef
:1017140001f0a200f6fc07000000ea0082ff370097
:101724003e28ec00ea8020001a45780093ff370039
:101734000fe8ef0080c1eb00424080006140800070
:1017440050408000b10007000200200003f823008d
:101754000800be0022fc07000040880011408800f9
:101764000200200003c823000800be00aafd0700f1
:10177400fdfc070002002000030024005cfe0700bb
:101784000200200003f8230015fc07002040880015
:10179400314088004f06be004f05be004f04be0016
:1017a4000080fa0000000600abff37000d0078004f
:1017b4008c007800cefc07005bff370000000600b9
:1017c40040002000c600070010002000c040880030
:1017d4001a28ef00006a2800e0408800100020006a
:1017e400f0408800a0182000201088000030280055
:1017f40030108800cd22a900cd02a900f0f82f00f6
:10180400ac00b6000005b300600588008620a9007e
:101814009620a800630007000428ef0000f82300c6
:10182400304088000000060000000600cca2a8009a
:101834000000e00004003a00cc22a900cc42a90038
:10184400cca2a90000000600e10f500005003a00f8
:10185400cc22a800cc42a900cca2a900000006001a
:10186400f9ff3700e20f5000f5ff3a00cc22a9003f
:10187400cc42a800cca2a90000000600f2ff370069
:10188400cca2a800cc62a900cc82a900e00320006d
:101894009016880010002000e4ff07000064200078
:1018a400010020005b01070020002000dfff07008b
:1018b400006420000100200056010700cca2a9000a
:1018c40000000600cca2a800cc62a900cc82a9002a
:1018d400f00320009016880010002000d3ff0700ba
:1018e40000642000010020004a01070020002000bd
:1018f400ceff07000064200001002000450107001e
:10190400cca2a90000000600881f780001447800da
:10191400c6ff0700cc82a9000884fb009816880043
:1019240000192000010020003a010700cca2a80001
:10193400001920000100200036010700cca2a900f4
:101944000000eb00b9ff07004f0478000000060018
:10195400881f7800f10f200081168800cc82a8002f
:101964000080fb00b1ff07000019200001002000e7
:1019740028010700cca2a8000019200001002000c3
:101984002401070098168000cca2a900d022ef0001
:101994000000eb00a5ff0700084078004f04780022
:1019a40000000600cca2a800d022ef00cc02a800c0
:1019b400cca2a9000000eb009cff0700cc62a900a8
:1019c40001ccb30010002000cfff070001ccb3000e
:1019d40020002000ccff070001c4b3001000200049
:1019e400c9ff070001c4b30020002000c6ff0700a0
:1019f40081cbb30010002000c3ff070081cbb300ec
:101a040020002000c0ff0700aeff3700889fbe0003
:101a14008a9fbe008c1f78000004be0082057800f7
:101a2400034678000800780080ff0700cc62a90014
:101a3400cc82a900f0032000808f54000100340000
:101a4400800478008acbb300e78f5500100034007f
:101a540089007800f107b2000160a0000800780056
:101a6400a9ff07008a40780008007800a6ff070055
:101a7400cc62a800cc82a9000c86fb009c168800ce
:101a84004f0678004f05be004f04be00000006005c
:101a94000b057800fa0bb2008a0bb30089007800ba
:101aa400f107b2000160a0000800780096ff07006b
:101ab4008a4078000800780093ff0700cc62a800f1
:101ac400cc82a9000c86fb009c1688004f06780087
:101ad4004f05be004f04be0000000600ecff3700b7
:101ae400e60007006041880071418800e6000700b5
:101af400c0418800d1418800d400070020418800fb
:101b040031418800d4000700804188009141880059
:101b1400d40007004041880051418800d4000700e8
:101b2400a0418800b141880000000600889fbe00e3
:101b34008a1f78000004be002241800033418000e7
:101b4400c6fb07001ac0b3000000e0000600320024
:101b540042418000534180000800be00bffb0700e3
:101b64000000e00004003a000a4078004f057800c5
:101b74004f04be00000006000040eb004f05780053
:101b84004f04be0000000600fbff3700889fbe0024
:101b94008a1f78000004be008241800093418000c7
:101ba400aefb07001ac0b3000000e00006003200dc
:101bb400a2418000b34180000800be00a7fb0700db
:101bc4000000e00004003a000a4078004f05780065
:101bd4004f04be00000006000040eb004f057800f3
:101be4004f04be0000000600fbff3700000378002e
:101bf4000400200005f82700058160008001eb0047
:101c0400c011dd00020020000040eb00840f5100f1
:101c1400858f5900010032000000060001007800a1
:101c2400f007b20080007800060078000001be00d2
:101c34000281710002f0a7000201ea000201ea0039
:101c44004f10de00000006000003780004002000ae
:101c540005f82700058160008001eb00c011dd005c
:101c6400020020000040eb00840f5100858f5900d2
:101c7400010032000000060001007800f007b20005
:101c840080007800060078000001be000281710027
:101c940002f0a7000201ea000201ea004f10de0090
:101ca400000006004387ab0004003200103a8000b5
:101cb4004c00de00640060002d003200e0062000cd
:101cc400303a880050002000203a8800a109200002
:101cd40032002000800720003374200080497800ff
:101ce40081497800824978007105200012002000a3
:101cf4006004200023742000804978008149780022
:101d040082497800c01f20006019880000f02f006d
:101d14004016880080168800010027000000230078
:101d2400133a800003816000800f5100fcff3a00e9
:101d340042a7ab00feff3200a1fe07000421ef0022
:101d4400f0ff2800a400b60000d0a0002005880001
:101d54008460a9009460a800f0182000100888008e
:101d64000000e9000008880005e1a800ffff370033
:101d7400a2092000810720003374200081497800e3
:101d84008249780080497800710520001200200003
:101d94006004200023742000804978008149780081
:101da40082497800000000000000000000002700c5
:101db400123a800082006000c0ff3200123a8000b4
:0c1dc40082006000faff3a00bcff37000c
:020000040000fa
:101dd0003c0800000600000000000000240800008d
:101de000180000000000000042080000060000008b
:101df00002000000100801000000000000080000c0
:101e0000240000000000000048080000020000005c
:081e10000000000000000000ca
:020000040000fa
:101e1800f03fb1000180b10006003500ee03090073
:101e280000000000403fb1000180b100fbff3d0011
:101e38001000b000203fb00002003500008009000b
:081e480000000000000006008c
:020000040000fa
:101e50000000200001f8270000000600000020001c
:101e600001f82700000006000000200001f82f0004
:101e7000000006000000200001f82f00000006000e
:101e80000000200001fc2f000000060000002000e0
:081e900001fc2f000000060018
:00000001FF
