:020000040000fa
:0400100004030000e5
:020000040000fa
:04025c00dc020000c0
:020000040000fa
:0402100004030000e3
:020000040000fa
:04027400040300007f
:020000040000fa
:0403240004030000ce
:020000040000fa
:0403500004030000a2
:020000040000fa
:04022c0004030000c7
:020000040000fa
:04023c0004030000b7
:020000040000fa
:040280000403000073
:020000040000fa
:04028400040300006f
:020000040000fa
:0402280004030000cb
:020000040000fa
:04027800040300007b
:020000040000fa
:04029c000403000057
:020000040000fa
:040260000403000093
:020000040000fa
:04026400040300008f
:020000040000fa
:040270000403000083
:020000040000fa
:04027c000403000077
:020000040000fa
:04028800040300006b
:020000040000fa
:04028c000403000067
:020000040000fa
:040290000403000063
:020000040000fa
:04029400040300005f
:020000040000fa
:04029800040300005b
:020000040000fa
:0402a0000403000053
:020000040000fa
:0402a400040300004f
:020000040000fa
:0402a800040300004b
:020000040000fa
:0402ac000403000047
:020000040000fa
:0402b0000403000043
:020000040000fa
:0402b400040300003f
:020000040000fa
:0402b800040300003b
:020000040000fa
:0402bc000403000037
:020000040000fa
:0402c0000403000033
:020000040000fa
:0402c400040300002f
:020000040000fa
:0402380004030000bb
:020000040000fa
:0402c800040300002b
:020000040000fa
:0402cc000403000027
:020000040000fa
:0402d0000403000023
:020000040000fa
:0402d400040300001f
:020000040000fa
:0402d800040300001b
:020000040000fa
:0402dc000403000017
:020000040000fa
:0402e0000403000013
:020000040000fa
:0402e400040300000f
:020000040000fa
:0402e800040300000b
:020000040000fa
:0402ec000403000007
:020000040000fa
:0402f0000403000003
:020000040000fa
:0402f40004030000ff
:020000040000fa
:0402f80004030000fb
:020000040000fa
:0402fc0004030000f7
:020000040000fa
:0403000004030000f2
:020000040000fa
:0403040004030000ee
:020000040000fa
:0403080004030000ea
:020000040000fa
:0403140004030000de
:020000040000fa
:0403180004030000da
:020000040000fa
:04031c0004030000d6
:020000040000fa
:0403200004030000d2
:020000040000fa
:0403280004030000ca
:020000040000fa
:0403300004030000c2
:020000040000fa
:0403340004030000be
:020000040000fa
:0403380004030000ba
:020000040000fa
:04033c0004030000b6
:020000040000fa
:0403400004030000b2
:020000040000fa
:0403440004030000ae
:020000040000fa
:0403480004030000aa
:020000040000fa
:04026c000403000087
:020000040000fa
:04030c0004030000e6
:020000040000fa
:04034c0004030000a6
:020000040000fa
:0402180004030000db
:020000040000fa
:0402300004030000c3
:020000040000fa
:0402400004030000b3
:020000040000fa
:04020c0004030000e7
:020000040000fa
:0403100004030000e2
:020000040000fa
:0402080004030000eb
:020000040000fa
:04021c0004030000d7
:020000040000fa
:0402200004030000d3
:020000040000fa
:0402240004030000cf
:020000040000fa
:04026800040300008b
:020000040000fa
:04024c0004030000a7
:020000040000fa
:0402500004030000a3
:020000040000fa
:0402140004030000df
:020000040000fa
:0402340004030000bf
:020000040000fa
:0402440004030000af
:020000040000fa
:04024800c8020000e8
:020000040000fa
:04032c0004030000c6
:020000040000fa
:04025400040300009f
:020000040000fa
:04025800040300009b
:020000040000fa
:040074000403000081
:020000040000fa
:0401240004030000d0
:020000040000fa
:0401500004030000a4
:020000040000fa
:04002c0004030000c9
:020000040000fa
:04003c0004030000b9
:020000040000fa
:040080000403000075
:020000040000fa
:040084000403000071
:020000040000fa
:0400280004030000cd
:020000040000fa
:04007800040300007d
:020000040000fa
:04009c000403000059
:020000040000fa
:040060000403000095
:020000040000fa
:040064000403000091
:020000040000fa
:040070000403000085
:020000040000fa
:04007c000403000079
:020000040000fa
:04008800040300006d
:020000040000fa
:04008c000403000069
:020000040000fa
:040090000403000065
:020000040000fa
:040094000403000061
:020000040000fa
:04009800040300005d
:020000040000fa
:0400a0000403000055
:020000040000fa
:0400a4000403000051
:020000040000fa
:0400a800040300004d
:020000040000fa
:0400ac000403000049
:020000040000fa
:0400b0000403000045
:020000040000fa
:0400b4000403000041
:020000040000fa
:0400b800040300003d
:020000040000fa
:0400bc000403000039
:020000040000fa
:0400c0000403000035
:020000040000fa
:0400c4000403000031
:020000040000fa
:0400380004030000bd
:020000040000fa
:0400c800040300002d
:020000040000fa
:0400cc000403000029
:020000040000fa
:0400d0000403000025
:020000040000fa
:0400d4000403000021
:020000040000fa
:0400d800040300001d
:020000040000fa
:0400dc000403000019
:020000040000fa
:0400e0000403000015
:020000040000fa
:0400e4000403000011
:020000040000fa
:0400e800040300000d
:020000040000fa
:0400ec000403000009
:020000040000fa
:0400f0000403000005
:020000040000fa
:0400f4000403000001
:020000040000fa
:0400f80004030000fd
:020000040000fa
:0400fc0004030000f9
:020000040000fa
:0401000004030000f4
:020000040000fa
:0401040004030000f0
:020000040000fa
:0401080004030000ec
:020000040000fa
:0401140004030000e0
:020000040000fa
:0401180004030000dc
:020000040000fa
:04011c0004030000d8
:020000040000fa
:0401200004030000d4
:020000040000fa
:0401280004030000cc
:020000040000fa
:0401300004030000c4
:020000040000fa
:0401340004030000c0
:020000040000fa
:0401380004030000bc
:020000040000fa
:04013c0004030000b8
:020000040000fa
:0401400004030000b4
:020000040000fa
:0401440004030000b0
:020000040000fa
:0401480004030000ac
:020000040000fa
:04006c000403000089
:020000040000fa
:04010c0004030000e8
:020000040000fa
:04014c0004030000a8
:020000040000fa
:0400180004030000dd
:020000040000fa
:0400300004030000c5
:020000040000fa
:0400400004030000b5
:020000040000fa
:04000c0004030000e9
:020000040000fa
:0401100004030000e4
:020000040000fa
:0400080004030000ed
:020000040000fa
:04001c0004030000d9
:020000040000fa
:0400200004030000d5
:020000040000fa
:0400240004030000d1
:020000040000fa
:04006800040300008d
:020000040000fa
:04004c0004030000a9
:020000040000fa
:0400500004030000a5
:020000040000fa
:0400140004030000e1
:020000040000fa
:0400340004030000c1
:020000040000fa
:0400440004030000b1
:020000040000fa
:04012c0004030000c8
:020000040000fa
:0400540004030000a1
:020000040000fa
:04005800040300009d
:020000040000fa
:080000000002040000000000f2
:020000040000fa
:100400006f8020000eff20000e0188000000000019
:10041000000020000000e000020032000001200087
:100420002002880014000700790007000000e000a7
:1004300003003a00e04820000100200002003700dd
:100440000000200001002000810f70000100320038
:1004500014000700000020000000e000020032004d
:100460000000020000000000020402000000000082
:100470000040da000000fe004440a9000000200017
:100480000000e0000300320000002000a00188000e
:100490004440a800000006008a1f78008b1f7800e7
:1004a0000000060091018800800478000000eb0045
:1004b0001a003700e284440032a0b4009905ba0063
:1004c000e284440032a0b4009906ba00e2844400f9
:1004d00032a0b4000006eb00476fde00fd07b2005b
:1004e000636ce10003003a00ebff07000000eb0043
:1004f0000a003700606ce10004003a00005deb0088
:100500008b05e900fdff3e00040037006168e10053
:10051000010032000086eb000b00070019c7ba008b
:100520001905ba000e04e00003003a000a00e000da
:10053000e0ff3a0000000600fe07b2009e018800be
:100540008a047800f5ff3700395dba008b05e900b1
:100550000c003200295dba008b05e900080032006a
:100560000c00e00003003a00e284440032a0b40032
:10057000f5ff370019ddba008b05e900faff3a00f4
:100580008904e800e184440032a0b40000000600c1
:10059000801f78003400f80000002000a0018800cf
:1005a000400e2800001988008500a9003400f900d9
:1005b0004f007800004006003600f800809fbe0023
:1005c000829fbe00849fbe00869fbe003400f8005c
:1005d00000002000a00188000003f8000408f900d2
:1005e00021e3a90085a0a900570007003400f90005
:1005f0004f03be004f02be004f01be004f00be00c1
:100600003600f900004006000040da000000fe005d
:0406100000000500e1
:020000040000fa
:0200000401f009
:04001c00dfff000002
:020000040000fa
:0200000401f009
:040014005f00000089
:020000040000fa
:0200000401f009
:04001000620000008a
:020000040000fa
:0200000401f009
:04000c00820000006e
:020000040000fa
:04004800c8020000ea
:020000040000fa
:04005c00dc020000c2
:020000040000fa
:100614000400fa00889fbe008a9fbe008c9fbe0023
:100624000116b800001bb80086bf9f0097bf9f004b
:100634000015b800c033dd000600200006034500a5
:1006440087834d001800200009002000860f550004
:10065400878f5d0001003e006044b800c065dd0086
:100664000a0020000605450087854d008a0f5300c7
:100674008b8f5b000200360061044400e0844c0070
:100684000fbb97009fbb9700403bde000700200094
:1006940086bf9f0097bf9f00406ede000d002000c4
:1006a4000606460087864e000118b8000c06400076
:1006b4008d864800081a460009924e008a8abe00b8
:1006c4004f06be004f05be004f04be000080fa0076
:1006d400000006000800fa00881f7800040478006f
:1006e400ea82570066825700c9ff07000002200013
:1006f400080050005fb99700efb997000000e900c7
:10070400030033000201410083814900fbff3700ed
:100714003fb89700cfb897000804e90003003300fe
:100724008100d1000080d300fbff3700000171007d
:10073400818171000200be004f0478000080fa003d
:10074400000006002040800000408800d2cc2c002d
:100754000201b80034332300353320000201420083
:1007640083814a00e401200005002000f0342c00bd
:1007740001002000d7ff070010408800b00e880059
:10078400000006002823ef002623ef00610020006c
:10079400211988002223ef00400428000019880052
:1007a400f0f82f00aa00b6000050a0005005880001
:1007b40085a0a90095a0a80000012000400e880093
:1007c400510e8800202b2f00600e8800100020009e
:1007d400700e880070082000800e8800801a2600a1
:1007e400200e8800204e2000300e8800b000280023
:1007f400000e88000000060000000600d1ff37004c
:100804004387ab0004003200103a80004c00de0045
:100814006400600029003200e0062000303a8800bd
:1008240050002000203a8800a10920003200200056
:1008340080072000337420008049780081497800c3
:100844008249780071052000120020006004200015
:100854002374200080497800814978008249780017
:1008640040002000601988009826ef00f0ff2b005c
:10087400401688000100270000002300133a80007e
:1008840003816000800f5100fcff3a0042a7ab00d7
:10089400feff3200bbff07001221ef00f0c3290066
:1008a400700888008500a9009500a8000000e900f0
:1008b4005008880013e1a800ffff3700a2092000b8
:1008c4008107200033742000814978008249780030
:1008d4008049780071052000120020006004200087
:1008e4002374200080497800814978008249780087
:1008f400000000000000000000002700123a800001
:1009040082006000c4ff3200123a8000820060005e
:08091400faff3a00c0ff3700b2
:020000040000fa
:10091c0000080000060000000000000000000000bd
:00000001FF
