:020000040000fa
:04005c00e2030000bb
:020000040000fa
:04001000e203000007
:020000040000fa
:04025c00e2030000b9
:020000040000fa
:04021000e203000005
:020000040000fa
:04027400e2030000a1
:020000040000fa
:04032400e2030000f0
:020000040000fa
:04035000e2030000c4
:020000040000fa
:04022c00e2030000e9
:020000040000fa
:04023c00e2030000d9
:020000040000fa
:04028000e203000095
:020000040000fa
:04028400e203000091
:020000040000fa
:04022800e2030000ed
:020000040000fa
:04027800e20300009d
:020000040000fa
:04029c00e203000079
:020000040000fa
:04026000e2030000b5
:020000040000fa
:04026400e2030000b1
:020000040000fa
:04027000e2030000a5
:020000040000fa
:04027c00e203000099
:020000040000fa
:04028800e20300008d
:020000040000fa
:04028c00e203000089
:020000040000fa
:04029000e203000085
:020000040000fa
:04029400e203000081
:020000040000fa
:04029800e20300007d
:020000040000fa
:0402a000e203000075
:020000040000fa
:0402a400e203000071
:020000040000fa
:0402a800e20300006d
:020000040000fa
:0402ac00e203000069
:020000040000fa
:0402b000e203000065
:020000040000fa
:0402b400e203000061
:020000040000fa
:0402b800e20300005d
:020000040000fa
:0402bc00e203000059
:020000040000fa
:0402c000e203000055
:020000040000fa
:0402c400e203000051
:020000040000fa
:04023800e2030000dd
:020000040000fa
:0402c800e20300004d
:020000040000fa
:0402cc00e203000049
:020000040000fa
:0402d000e203000045
:020000040000fa
:0402d400e203000041
:020000040000fa
:0402d800e20300003d
:020000040000fa
:0402dc00e203000039
:020000040000fa
:0402e000e203000035
:020000040000fa
:0402e400e203000031
:020000040000fa
:0402e800e20300002d
:020000040000fa
:0402ec00e203000029
:020000040000fa
:0402f000e203000025
:020000040000fa
:0402f400e203000021
:020000040000fa
:0402f800e20300001d
:020000040000fa
:0402fc00e203000019
:020000040000fa
:04030000e203000014
:020000040000fa
:04030400e203000010
:020000040000fa
:04030800e20300000c
:020000040000fa
:04031400e203000000
:020000040000fa
:04031800e2030000fc
:020000040000fa
:04031c00e2030000f8
:020000040000fa
:04032000e2030000f4
:020000040000fa
:04032800e2030000ec
:020000040000fa
:04033000e2030000e4
:020000040000fa
:04033400e2030000e0
:020000040000fa
:04033800e2030000dc
:020000040000fa
:04033c00e2030000d8
:020000040000fa
:04034000e2030000d4
:020000040000fa
:04034400e2030000d0
:020000040000fa
:04034800e2030000cc
:020000040000fa
:04026c00c8020000c4
:020000040000fa
:04030c00e203000008
:020000040000fa
:04034c00e2030000c8
:020000040000fa
:04021800e2030000fd
:020000040000fa
:04023000e2030000e5
:020000040000fa
:04024000e2030000d5
:020000040000fa
:04020c00e203000009
:020000040000fa
:04031000e203000004
:020000040000fa
:04020800e20300000d
:020000040000fa
:04021c00e2030000f9
:020000040000fa
:04022000e2030000f5
:020000040000fa
:04022400e2030000f1
:020000040000fa
:04026800e2030000ad
:020000040000fa
:04024c00e2030000c9
:020000040000fa
:04025000e2030000c5
:020000040000fa
:04021400e203000001
:020000040000fa
:04023400960300002d
:020000040000fa
:04024400e2030000d1
:020000040000fa
:04024800e2030000cd
:020000040000fa
:04032c00e2030000e8
:020000040000fa
:04025400e2030000c1
:020000040000fa
:04025800e2030000bd
:020000040000fa
:04007400e2030000a3
:020000040000fa
:04012400e2030000f2
:020000040000fa
:04015000e2030000c6
:020000040000fa
:04002c00e2030000eb
:020000040000fa
:04003c00e2030000db
:020000040000fa
:04008000e203000097
:020000040000fa
:04008400e203000093
:020000040000fa
:04002800e2030000ef
:020000040000fa
:04007800e20300009f
:020000040000fa
:04009c00e20300007b
:020000040000fa
:04006000e2030000b7
:020000040000fa
:04006400e2030000b3
:020000040000fa
:04007000e2030000a7
:020000040000fa
:04007c00e20300009b
:020000040000fa
:04008800e20300008f
:020000040000fa
:04008c00e20300008b
:020000040000fa
:04009000e203000087
:020000040000fa
:04009400e203000083
:020000040000fa
:04009800e20300007f
:020000040000fa
:0400a000e203000077
:020000040000fa
:0400a400e203000073
:020000040000fa
:0400a800e20300006f
:020000040000fa
:0400ac00e20300006b
:020000040000fa
:0400b000e203000067
:020000040000fa
:0400b400e203000063
:020000040000fa
:0400b800e20300005f
:020000040000fa
:0400bc00e20300005b
:020000040000fa
:0400c000e203000057
:020000040000fa
:0400c400e203000053
:020000040000fa
:04003800e2030000df
:020000040000fa
:0400c800e20300004f
:020000040000fa
:0400cc00e20300004b
:020000040000fa
:0400d000e203000047
:020000040000fa
:0400d400e203000043
:020000040000fa
:0400d800e20300003f
:020000040000fa
:0400dc00e20300003b
:020000040000fa
:0400e000e203000037
:020000040000fa
:0400e400e203000033
:020000040000fa
:0400e800e20300002f
:020000040000fa
:0400ec00e20300002b
:020000040000fa
:0400f000e203000027
:020000040000fa
:0400f400e203000023
:020000040000fa
:0400f800e20300001f
:020000040000fa
:0400fc00e20300001b
:020000040000fa
:04010000e203000016
:020000040000fa
:04010400e203000012
:020000040000fa
:04010800e20300000e
:020000040000fa
:04011400e203000002
:020000040000fa
:04011800e2030000fe
:020000040000fa
:04011c00e2030000fa
:020000040000fa
:04012000e2030000f6
:020000040000fa
:04012800e2030000ee
:020000040000fa
:04013000e2030000e6
:020000040000fa
:04013400e2030000e2
:020000040000fa
:04013800e2030000de
:020000040000fa
:04013c00e2030000da
:020000040000fa
:04014000e2030000d6
:020000040000fa
:04014400e2030000d2
:020000040000fa
:04014800e2030000ce
:020000040000fa
:04010c00e20300000a
:020000040000fa
:04014c00e2030000ca
:020000040000fa
:04001800e2030000ff
:020000040000fa
:04003000e2030000e7
:020000040000fa
:04004000e2030000d7
:020000040000fa
:04000c00e20300000b
:020000040000fa
:04011000e203000006
:020000040000fa
:04000800e20300000f
:020000040000fa
:04001c00e2030000fb
:020000040000fa
:04002000e2030000f7
:020000040000fa
:04002400e2030000f3
:020000040000fa
:04006800e2030000af
:020000040000fa
:04004c00e2030000cb
:020000040000fa
:04005000e2030000c7
:020000040000fa
:04001400e203000003
:020000040000fa
:04004400e2030000d3
:020000040000fa
:04004800e2030000cf
:020000040000fa
:04012c00e2030000ea
:020000040000fa
:04005400e2030000c3
:020000040000fa
:04005800e2030000bf
:020000040000fa
:080000000002040000000000f2
:020000040000fa
:100400008f9e20000eff20000e01880000000000db
:10041000000020000000e000020032000001200087
:100420002002880014000700ea0207000000e00034
:1004300003003a00a0b420000100200002003700b1
:100440000000200001002000810f70000100320038
:1004500014000700000020000000e000020032004d
:1004600000000200000000007c0d020000000000ff
:100470000040da000000fe004440a9000000200017
:100480000000e0000300320000002000a00188000e
:100490004440a800000006008a1f78008b1f7800e7
:1004a0000000060091018800800478000000eb0045
:1004b0001a003700e284440032a0b4009905ba0063
:1004c000e284440032a0b4009906ba00e2844400f9
:1004d00032a0b4000006eb00476fde00fd07b2005b
:1004e000636ce10003003a00ebff07000000eb0043
:1004f0000a003700606ce10004003a00005deb0088
:100500008b05e900fdff3e00040037006168e10053
:10051000010032000086eb000b00070019c7ba008b
:100520001905ba000e04e00003003a000a00e000da
:10053000e0ff3a0000000600fe07b2009e018800be
:100540008a047800f5ff3700395dba008b05e900b1
:100550000c003200295dba008b05e900080032006a
:100560000c00e00003003a00e284440032a0b40032
:10057000f5ff370019ddba008b05e900faff3a00f4
:100580008904e800e184440032a0b40000000600c1
:1005900000a0fe008620a900e04e80008000eb0055
:1005a000ed0f5000e08f580003003600dc29ef000b
:1005b0000080fe000040060000600100fcff3700e4
:1005c0002400370030003700360037003b0037008a
:1005d0000800370043003700480037004e0037005e
:1005e00004003700090037000e00370038003700dc
:1005f000130037000007200010108800dc29ec00f1
:100600000080fe0000400600ebff370020002000c5
:1006100010108800dc29ec000080fe00004006007d
:10062000e5ff3700e1c9bf000080fb001010880023
:10063000dc29ec000080fe0000400600deff3700f1
:10064000de29ef00dc29ef000080fe0000400600fc
:10065000d9ff3700c922a800c902a800a0182000ad
:1006600020108800003028003010880060ff2f0024
:100670000822b6000622a800dc29ec000080fe005b
:1006800000400600ccff370060ff2f000822b600b4
:100690000642a800dc29ec000080fe0000400600b5
:1006a000c5ff370060ff2f000822b600dc29ef00ed
:1006b0000080fe0000400600bfff37000602a800d1
:1006c000dc29ec000080fe0000400600baff370085
:1006d0000642a800dc29ec000080fe000040060075
:1006e000b5ff37001000200010108800dc29ec0056
:1006f0000080fe0000400600afff3700e0c9bf00e9
:100700000080fb0010108800dc29ec000080fe0057
:1007100000400600a8ff37000622a800dc29ec00f4
:100720000080fe0000400600a3ff37003600f800fe
:10073000809fbe00829fbe00849fbe00869fbe0039
:100740003400f80000002000a00188008460a900a7
:10075000e409ed00204f880003003a004006200025
:10076000204f8800d809a8008460ab000e003a0032
:1007700042a0a80042c0a900da09ab000a003a0072
:10078000d809ab0005003200da09a800d809a90091
:1007900002030700d809ab00fbff3a00da09a90001
:1007a00042c0a80042a0a9003400f9004f03be00d7
:1007b0004f02be004f01be004f00be003600f900e0
:1007c000004006000040da000000fe0003f0a20036
:1007d000889fbe008a9fbe008c1f78006f010700b3
:1007e000760133006450e1004f0032006420e100e4
:1007f0005200320003826c0007003b000905d00064
:100800000306d000820f54000c065d000200390080
:1008100002003200890178000306780085825500c5
:1008200004003d000003fd008103fd008502ea0095
:100830008b854200840f720002003b0060001000b4
:10084000e08018006011b8000005eb007a28e10094
:100850000a00390006007800c75ddd00f707b20026
:10086000878075002d003700828171000a017800b1
:10087000610560008180d1000080d3008502e9001d
:10088000f9ff3b00060440008784480002003b005b
:1008900060041400e0841c000988a30007003200f3
:1008a0008a81710082817100610164008904d10034
:1008b0000884d3008b05e800170037000978a300ef
:1008c00013003a000b00e000130034008b05e90030
:1008d0000804440089844c000a4474000978a30089
:1008e0000d003a000b00e000070034008b05e90022
:1008f0000804440089844c0001003a000b002000e9
:100900000978a300f7ff32000001eb000200370076
:10091000828171000a017800e50007000cf0a70051
:1009200001f0a0002e0137006420e10002003a002f
:10093000838f6c002e0133000801be000200be0050
:1009400027013700889fbe008a9fbe008c1f780059
:10095000120107001901330003866c006450e100a6
:100960002e0032006420e100330032006150e100cb
:100970002f0032006120e1003100320085855500f2
:10098000eb07b00009002000080420000500370034
:100990000804440089844c000a0031000603430027
:1009a00087834b000001530081815b00f8ff330017
:1009b0000203be000800a0000804440089844c0023
:1009c000f6ff3900c639dd008301730001003200f3
:1009d000130020008904d1000884d3000998a300e3
:1009e000050032000800a7000300a0008904d10020
:1009f0000884d3008b05e8008904d1000884d30063
:100a00000001eb000281d200a900070001f0a10063
:100a10000cf0a70001f0a000f10037006420e10015
:100a2000f30032000801be000200be00f7ff3700ed
:100a30006120e100ee0032006000b800f3ff3700f3
:100a40000000200001f82700f0ff3700140020000c
:100a500045013700f4ff2f00430137000001be00bd
:100a6000b90007000470a70003f0a1006509b100f8
:100a7000160032000d0035006828e1000600350040
:100a8000f0ff2f00f1ff27000300e00013003b0000
:100a9000010028000000050000004000818048009f
:100aa0008502e900fcff3a0008003700f88f420099
:100ab00002003c008000eb00000005008100d10036
:100ac0000080d3008502e800fcff3a000300e0004c
:100ad00002003b0060001000e080180000000600eb
:100ae0000001be00980007000470a70003f0a100f9
:100af00003f8a30013003a006509b10010003200aa
:100b0000090035006928e1000200350001002800d5
:100b10000000050000004000818048008502e900d7
:100b2000fcff3a0000000600f88f42000500350087
:100b30008100d1000080d3008502e800fcff3a006c
:100b4000000006008000eb00000005000001eb0043
:100b5000de000700040032000200200003f823003a
:100b600001f0a70019ff07000000060004002000a4
:100b700000003700889fbe008a9fbe008c1f78004f
:100b80004f26dd00850007008c0033006120e10066
:100b9000430032006250e10041003e003e00390057
:100ba0006420e1003c003200058255000f003b004c
:100bb0000402e80038003a00800f5300818f5b0088
:100bc000350034000800be0003f0a10001f0a600cb
:100bd00003f0a0000cf0a700fdfe07008000370026
:100be0000603430087834b000c4646000005530074
:100bf00081855b00020033000a03be000c00a000e8
:100c00000402e900f6ff3b00850578000602430078
:100c100087824b0004003a006000b80009f0a7008a
:100c200001f0a0006e0037000002520081825a00dd
:100c30000704e000040033000603430087834b00f1
:100c40008b05e900faff3700090578000604be00ad
:100c50000203be006011b80015000700e00f52004b
:100c6000e08f5a000700350002003c000c08a3008a
:100c7000040032000601be0003f0a0000cf0a70043
:100c8000d3fe07000a85680001f0a1000af0a70062
:100c900001f0a000520037000800be0050003700ed
:100ca000100220000cf0a600304f880050003700e2
:100cb00081002000618055000b003d000b002000ea
:100cc00061fe2f000100e1001d00340082817100ef
:100cd000610164008904d1000884d3000000e800a9
:100ce000faff3a0071002000610064000300700008
:100cf000020060000900320061044400e0844c00fe
:100d00000988a500050032008b05e8006808e100ad
:100d100002003a008904d1000884d300f20f2000b9
:100d20000258e10005003d00c75ddd00f907b20093
:100d30008980750008007800000006000bf8270085
:100d40008b00780000000500c70ade00f107b20042
:100d5000f50fb20008003200e1cf4200020032007d
:100d60000170a00024000500810f70000100320016
:100d70000408050044000500810f700002003a00dd
:100d8000140005008502e9000000400081c0480011
:100d9000fcff3b000170a000240005000004be0021
:100da000e9ff07000003be000405be000200be000c
:100db000e5ff0700844f7500000006000200be003a
:100dc0006450e100050036006420e10002003600b6
:100dd0000968a30001003a000800be000160a000fd
:100de0004f0678004f05be004f04be00000006000d
:100df000f0ff2f00f1ff2700f9ff3700889fbe00aa
:100e00008a9fbe008c1f7800e4ff0700ebff3300d1
:100e100003866c006450e100240032006420e1008d
:100e2000270032006150e100220032006120e10021
:100e3000210032008b854200eb07b1000134b8007d
:100e4000003ab8000804420089844a00013ab80018
:100e50000030b8008880400009014a0004003300d7
:100e60000000400081804800020149008b05e90034
:100e7000c909dd0083017000010032001300200069
:100e8000c814de004814dd004709de001200b2007d
:100e9000c808de000884700085ff070001f0a1008b
:100ea0000cf0a70001f0a000cdff37006120e100a9
:100eb000cfff32000801be000200be00f7ff37007e
:100ec0006150e100fcff3a00c9ff3700889fbe0077
:100ed0008a9fbe000003be009bff070085057800c7
:100ee00082815200020020006220e10004003a00ea
:100ef000f307b100040035007718e1000400350065
:100f00000600be00140037006000b8000f00370074
:100f1000f50f2000faff2f008502d1000a85d300cb
:100f20008301e900fcff3b0081846200000465004e
:100f3000890f7400f2ff32008582ea000a85ea0018
:100f4000818462000004650059ff070007f0a700d4
:100f500001f0a0000081eb000200e0004f05be00a0
:100f60004f04be0000000600889fbe008a9fbe009e
:100f7000841f780089ff07004f00780011003300bc
:100f8000f0ff2f00838f6c0006003b000405650016
:100f90000a00a7000800370009f0a6001000200092
:100fa00008003700820f5400838f5c000300390073
:100fb0001000200001003e000000200009f0a70002
:100fc0000000ea004f05be004f04be000000e00034
:080fd00000000600000005000e
:020000040000fa
:04006c00c8020000c6
:020000040000fa
:0200000401f009
:04001c00dfff000002
:020000040000fa
:0200000401f009
:040014005f00000089
:020000040000fa
:0200000401f009
:04001000620000008a
:020000040000fa
:0200000401f009
:04000c00820000006e
:020000040000fa
:04003400960300002f
:020000040000fa
:100fd800ec874700889fbe008a9fbe008c9fbe009a
:100fe8008e1f78000005be00820478000304780094
:100ff8006011b800090078008800780091fe0700a9
:101008000000e00034003a006011b8000a00be0099
:101018008cfe07000000e00022003a000907780073
:10102800080378008e017800060178000300780034
:10103800820078004f0778004f06be004f05be00bb
:101048004f04be00cf00b100000006000900780080
:1010580088007800480207000004e0004f003200d2
:101068001dc0b3006011b80009007800880078003e
:1010780074fe07000000e000010035008046eb0028
:101088001cc0b3006011b8000a00be006dfe070066
:101098000000e000010035000046eb008ccf560050
:1010a800deff3a000a0778000b0378008e0178000b
:1010b8000601780003007800820078004f07780066
:1010c8004f06be004f05be004f04be00cf00b10062
:1010d80000000600ddff37000a00be0056020700c8
:1010e8000004e0000d0032000e4e8000164e800015
:1010f8008e017800060178000300780082007800ed
:101108004f0778004f06be004f05be004f04be00d3
:10111800cf00b10000000600ccff370009007800be
:1011280088007800440207000004e000eeff3a005f
:101138000a00be00100207000004e000eaff3a00bf
:101148006011b8000a00be003efe07000000e00083
:10115800beff3a000800be00010178008001780057
:101168006000b800f5fd070000077800010378006b
:101178008e0178000601780003007800820078006c
:101188004f0778004f06be004f05be004f04be0053
:10119800cf00b10000000600acff3700090178005d
:1011a800880178000a00be006efe0700d0b79f00d5
:1011b800c1b79f0000077800010378006011b800ec
:1011c8000e0078008600780086bf9f001dfe07008d
:1011d8000000e0005800320009007800880078001c
:1011e80058fe0700090178008801780015fe0700fd
:1011f8000fbb97000000e00021003d0009017800c6
:10120800880178000a00be00ccfd07000006be0079
:101218000df0a1000200200003f023000c00be0026
:1012280069fd070047fe07000001be000c00be0074
:1012380064fd07000002be0005f0a10002002000c6
:10124800034023000c00be00e4b79f00f5b79f00e1
:10125800e8fe07000001be001cc0b3006fb2970093
:10126800ffb297000400be00f8fd07000fbb97000f
:101278000000e000420034000c04e0002e003200c0
:101288001cc0b3006011b80009007800880078001d
:1012980086bf9f00ebfd07000fbb97000000e00032
:1012a800010035000046eb001dc0b3006011b80016
:1012b8008a0078000b00780001027800800278002c
:1012c8000400be0086bf9f00defd07000fbb97002d
:1012d8000000e000010035008046eb008d4f56000d
:1012e80050ff32000800be0001017800800178003c
:1012f800dfb297004fb297000500780084007800ad
:1013080031fd070000077800010378008e0178009e
:101318000601780003007800820078004f07780003
:101328004f06be004f05be004f04be00cf00b100ff
:101338000000060045ff37006011b8000802be0033
:101348000500780084007800aafe070000077800ee
:10135800010378008e017800060178000300780008
:10136800820078004f0778004f06be004f05be0088
:101378004f04be00cf00b1000000060033ff370065
:101388000046eb000c04e000bdff3a00eaff37001e
:1013980000000600889fbe008a9fbe008c9fbe008a
:1013a8008e1f7800d2c9bf000080fb006a00400091
:1013b8004200dd0008802000000044001005be0047
:1013c80002002000031224000a00be0000ff0700ec
:1013d800a0fd07004200dd00000044001000be0030
:1013e800d8fd07000006be00930107000004e000d6
:1013f800530032000040eb00d0e9b700d2cc2c00fb
:10140800c3dc23000a00be007afe0700cdfd0700fa
:1014180090fd07004200dd00000444001800be00f3
:10142800c8fd07000004be00830107000004e000b7
:101438002c0032000040eb00d1e9b700dc09e200e3
:1014480013003a00e0e9b700019d200091407800c0
:10145800109e200001487800de29ec0040002000a2
:10146800e04e88008620a800d249ec0031c6b300bf
:10147800814f500014003e00d2e9b7004f077800b2
:101488004f06be004f05be004f04be000000060018
:10149800f04e8000e30f50004f00360007e2a9002d
:1014a800c922a900c902a900de29ef001000200006
:1014b800e04e88008620a800d249ec0031c6b3006f
:1014c800814f5000ecff3600d269ef004f077800db
:1014d8004f06be004f05be004f04be0000000600c8
:1014e800ebff37000800be00230107000004e000fe
:1014f800d0ff3a0002002000033824000800be0094
:1015080098fd070000067800010578000c047800b3
:101518008a0478006011b8000c0078008a0078000e
:1015280048fd07000000e00040003d000800be0044
:1015380001f0a20068fd07000040ea00beff370086
:101548000c00be000c0107000004e000a9ff3a00ef
:1015580002002000033824000c00be0081fd0700b3
:1015680000077800810478000e0678008906780064
:101578006011b8000e0078008900780031fd07007e
:101588000000e00016003d000c00be0001f0a200c3
:1015980051fd07000040ea00d0e9b700d2cc2c008a
:1015a800c3dc23000a00be0012fe070065fd070029
:1015b80028fd07004200dd00000444001800be00ba
:1015c80060fd07000004be001b0107000004e000e6
:1015d80098ff3a00c3ff3700de29ec00a2ff37006e
:1015e8000e007800890078003bfd0700d0e9b700bd
:1015f800d2cc2c00c3dc23000a00be00fdfd07008e
:1016080050fd070013fd07004200dd000004440000
:101618001800be004bfd07000004be0006010700cd
:101628000004e00083ff3a00aeff37000c007800aa
:101638008a00780028fd07007fff3700400020005f
:10164800ba00070010c0b300d6e9b70040c6b3001f
:10165800d7e9b700a0182000201088000030280023
:1016680030108800cd22a900cd02a900f0f82f0083
:10167800ac00b6000005b300600588008620a9000c
:0c1688009620a8000000060000000600ec
:020000040000fa
:10169400dc09000006000000000000000008000053
:1016a400b80100000200000000007c0042000000bd
:1016b400c040000000b6420000009e00420000004e
:1016c400cc42000000da42000000fa0042000000b0
:1016d400e040000000fe42000000de004200000086
:1016e4000000000000803f000000000040000000f7
:1016f40040400000008040000000a00040000000c6
:10170400c040000000e04000000000004100000074
:1017140010410000002041000000300041000000a2
:101724004041000000504100000060004100000002
:10173400704100000080410000008800410000006a
:1017440090410000009841000000a000410000000a
:10175400a841000000b041000000b80041000000b2
:10176400c041000000c841000000d000410000005a
:10177400d841000000e041000000e8004100000002
:10178400f041000000f841000000000042000000a9
:10179400044200000008420000000c004200000067
:1017a4001042000000144200000018004200000033
:1017b4001c420000002042000000240042000000ff
:1017c40028420000002c42000000300042000000cb
:1017d400344200000038420000003c004200000097
:1017e4004042000000444200000048004200000063
:1017f4004c4200000050420000005400420000002f
:1018040058420000005c42000000600042000000fa
:10181400644200000068420000006c0042000000c6
:101824007042000000744200000078004200000092
:101834007c42000000804200000082004200000060
:10184400844200000086420000008800420000003c
:101854008a420000008c420000008e00420000001a
:1018640090420000009242000000940042000000f8
:10187400964200000098420000009a0042000000d6
:101884009c420000009e42000000a00042000000b4
:10189400a242000000a442000000a6004200000092
:1018a400a842000000aa42000000ac004200000070
:1018b400ae42000000b042000000b200420000004e
:1018c400b442000000b642000000b800420000002c
:1018d400ba42000000bc42000000be00420000000a
:1018e400c042000000c242000000c40042000000e8
:1018f400c6420000b8090000180000000000000003
:10190400e20900000400000002000000d409010004
:1019140000000000d00900000c00000000000000de
:10192400e6090000020000000000000000000000c2
:020000040000fa
:10193400c2000700004e8800114e8800c200070054
:10194400604e8800714e8800b0000700c04d8800ca
:10195400d14d8800b0000700204e8800314e880029
:10196400b0000700e04d8800f14d8800b00007008a
:10197400404e8800514e880000000600889fbe003b
:101984008a1f78000004be00c24d8000d34d800041
:101994002dfc07001ac0b3000000e000060032006e
:1019a400e24d8000f34d80000800be0026fc0700d5
:1019b4000000e00004003a000a4078004f05780077
:1019c4004f04be00000006000040eb004f05780005
:1019d4004f04be0000000600fbff3700889fbe00d6
:1019e4008a1f78000004be00224e8000334e80001f
:1019f40015fc07001ac0b3000000e0000600320026
:101a0400424e8000534e80000800be000efc0700ca
:101a14000000e00004003a000a4078004f05780016
:101a24004f04be00000006000040eb004f057800a4
:101a34004f04be0000000600fbff370000037800df
:101a44000400200005f82700058160008001eb00f8
:101a5400c011dd00020020000040eb00840f5100a3
:101a6400858f590001003200000006000100780053
:101a7400f007b20080007800060078000001be0084
:101a84000281710002f0a7000201ea000201ea00eb
:101a94004f10de0000000600000378000400200060
:101aa40005f82700058160008001eb00c011dd000e
:101ab400020020000040eb00840f5100858f590084
:101ac400010032000000060001007800f007b200b7
:101ad40080007800060078000001be0002817100d9
:101ae40002f0a7000201ea000201ea004f10de0042
:101af400000006004387ab0004003200103a800067
:101b04004c00de006400600029003200e006200082
:101b1400303a880050002000203a8800a1092000b3
:101b240032002000800720003374200080497800b0
:101b34008149780082497800710520001200200054
:101b440060042000237420008049780081497800d3
:101b5400824978002c23ef000100270000002300b5
:101b6400133a800003816000800f5100fcff3a00ab
:101b740042a7ab00feff3200b1fe07000421ef00d4
:101b8400f0ff2800a400b60000d0a00020058800c3
:101b94008460a9009460a800f0c32900100888009c
:101ba4000000e9000008880005e1a800ffff3700f5
:101bb400a2092000810720003374200081497800a5
:101bc40082497800804978007105200012002000c5
:101bd4006004200023742000804978008149780043
:101be4008249780000000000000000000000270087
:101bf400123a800082006000c4ff3200123a800072
:101c040082006000faff3a00c0ff370000002000a5
:101c140001f82700000006000000200001f827005a
:101c2400000006000000200001f82f00000006005c
:101c34000000200001f82f00000006000000200032
:101c440001fc2f00000006000000200001fc2f0012
:041c54000000060086
:00000001FF
