:020000040000fa
:04005400da010000cd
:020000040000fa
:04001000da01000011
:020000040000fa
:04015400da010000cc
:020000040000fa
:04011000da01000010
:020000040000fa
:04019400da0100008c
:020000040000fa
:0401c000da01000060
:020000040000fa
:04016400da010000bc
:020000040000fa
:0401cc00da01000054
:020000040000fa
:0401d400da0100004c
:020000040000fa
:0401d800da01000048
:020000040000fa
:04012c00da010000f4
:020000040000fa
:04013800da010000e8
:020000040000fa
:04019800da01000088
:020000040000fa
:04019c00da01000084
:020000040000fa
:0401a000da01000080
:020000040000fa
:0401a400da0100007c
:020000040000fa
:04016c00da010000b4
:020000040000fa
:04017000da010000b0
:020000040000fa
:04012800da010000f8
:020000040000fa
:04016800da010000b8
:020000040000fa
:04018400da0100009c
:020000040000fa
:0401b800da01000068
:020000040000fa
:0401bc00da01000064
:020000040000fa
:0401d000da01000050
:020000040000fa
:04016000da010000c0
:020000040000fa
:04011800da01000008
:020000040000fa
:04015800da010000c8
:020000040000fa
:04013000da010000f0
:020000040000fa
:04013c00da010000e4
:020000040000fa
:04017400da010000ac
:020000040000fa
:04017800da010000a8
:020000040000fa
:0401a800da01000078
:020000040000fa
:0401ac00da01000074
:020000040000fa
:0401b000da01000070
:020000040000fa
:0401b400da0100006c
:020000040000fa
:04010c00da01000014
:020000040000fa
:0401c400da0100005c
:020000040000fa
:0401c800da01000058
:020000040000fa
:04010800da01000018
:020000040000fa
:04011c00da01000004
:020000040000fa
:04012000da01000000
:020000040000fa
:04012400da010000fc
:020000040000fa
:04015c00da010000c4
:020000040000fa
:04014800da010000d8
:020000040000fa
:04019000da01000090
:020000040000fa
:04011400da0100000c
:020000040000fa
:04013400c8010000fe
:020000040000fa
:04014000da010000e0
:020000040000fa
:04014400da010000dc
:020000040000fa
:04017c00da010000a4
:020000040000fa
:04018000da010000a0
:020000040000fa
:04014c00da010000d4
:020000040000fa
:04015000da010000d0
:020000040000fa
:04018800da01000098
:020000040000fa
:04018c00da01000094
:020000040000fa
:04009400da0100008d
:020000040000fa
:0400c000da01000061
:020000040000fa
:04006400da010000bd
:020000040000fa
:0400cc00da01000055
:020000040000fa
:0400d400da0100004d
:020000040000fa
:0400d800da01000049
:020000040000fa
:04002c00da010000f5
:020000040000fa
:04003800da010000e9
:020000040000fa
:04009800da01000089
:020000040000fa
:04009c00da01000085
:020000040000fa
:0400a000da01000081
:020000040000fa
:0400a400da0100007d
:020000040000fa
:04006c00da010000b5
:020000040000fa
:04007000da010000b1
:020000040000fa
:04002800da010000f9
:020000040000fa
:04006800da010000b9
:020000040000fa
:04008400da0100009d
:020000040000fa
:0400b800da01000069
:020000040000fa
:0400bc00da01000065
:020000040000fa
:0400d000da01000051
:020000040000fa
:04006000da010000c1
:020000040000fa
:04001800da01000009
:020000040000fa
:04005800da010000c9
:020000040000fa
:04003000da010000f1
:020000040000fa
:04003c00da010000e5
:020000040000fa
:04007400da010000ad
:020000040000fa
:04007800da010000a9
:020000040000fa
:0400a800da01000079
:020000040000fa
:0400ac00da01000075
:020000040000fa
:0400b000da01000071
:020000040000fa
:0400b400da0100006d
:020000040000fa
:04000c00da01000015
:020000040000fa
:0400c400da0100005d
:020000040000fa
:0400c800da01000059
:020000040000fa
:04000800da01000019
:020000040000fa
:04001c00da01000005
:020000040000fa
:04002000da01000001
:020000040000fa
:04002400da010000fd
:020000040000fa
:04005c00da010000c5
:020000040000fa
:04004800da010000d9
:020000040000fa
:04009000da01000091
:020000040000fa
:04001400da0100000d
:020000040000fa
:04004000da010000e1
:020000040000fa
:04004400da010000dd
:020000040000fa
:04007c00da010000a5
:020000040000fa
:04008000da010000a1
:020000040000fa
:04004c00da010000d5
:020000040000fa
:04005000da010000d1
:020000040000fa
:04008800da01000099
:020000040000fa
:04008c00da01000095
:020000040000fa
:080000000001040000000000f3
:020000040000fa
:10020000af8720000eff20000e01880000000000d4
:10021000000020000000e000020032000001200089
:100220002002880014000700f00107000000e00031
:1002300003003a00c0a620000100200002003700a1
:100240000000200001002000810f7000010032003a
:1002500014000700000020000000e000020032004f
:100260000000020000000000ac0a020000000000d4
:100270000040da000000fe004440a9000000200019
:100280000000e0000300320000002000a001880010
:100290004440a800000006008a1f78008b1f7800e9
:1002a0000000060091018800800478000000eb0047
:1002b0001a003700e284440032a0b4009905ba0065
:1002c000e284440032a0b4009906ba00e2844400fb
:1002d00032a0b4000006eb00476fde00fd07b2005d
:1002e000636ce10003003a00ebff07000000eb0045
:1002f0000a003700606ce10004003a00005deb008a
:100300008b05e900fdff3e00040037006168e10055
:10031000010032000086eb000b00070019c7ba008d
:100320001905ba000e04e00003003a000a00e000dc
:10033000e0ff3a0000000600fe07b2009e018800c0
:100340008a047800f5ff3700395dba008b05e900b3
:100350000c003200295dba008b05e900080032006c
:100360000c00e00003003a00e284440032a0b40034
:10037000f5ff370019ddba008b05e900faff3a00f6
:100380008904e800e184440032a0b40000000600c3
:100390003400f800881f780008002000a8018800b9
:1003a0004f0478003808a8008460a9003400f900e0
:1003b000004006000040da000000fe0003f0a2004a
:1003c000889fbe008a9fbe008c1f78002d01070009
:1003d000340133006450e1004f0032006420e1003a
:1003e0005200320003826c0007003b000905d00078
:1003f0000306d000820f54000c065d000200390095
:1004000002003200890178000306780085825500d9
:1004100004003d000003fd008103fd008502ea00a9
:100420008b854200840f720002003b0060001000c8
:10043000e08018006011b8000005eb007a28e100a8
:100440000a00390006007800c75ddd00f707b2003a
:10045000878075002d003700828171000a017800c5
:10046000610560008180d1000080d3008502e90031
:10047000f9ff3b00060440008784480002003b006f
:1004800060041400e0841c000988a3000700320007
:100490008a81710082817100610164008904d10048
:1004a0000884d3008b05e800170037000978a30003
:1004b00013003a000b00e000130034008b05e90044
:1004c0000804440089844c000a4474000978a3009d
:1004d0000d003a000b00e000070034008b05e90036
:1004e0000804440089844c0001003a000b002000fd
:1004f0000978a300f7ff32000001eb00020037008b
:10050000828171000a017800a30007000cf0a700a7
:1005100001f0a000ec0037006420e10002003a0086
:10052000838f6c00ec0033000801be000200be00a7
:10053000e50037001400200011013700f4ff2f0000
:100540000f0137000001be00b90007000470a700ca
:1005500003f0a1006509b100160032000d0035005e
:100560006828e10006003500f0ff2f00f1ff2700aa
:100570000300e00013003b0001002800000005001c
:1005800000004000818048008502e900fcff3a003d
:1005900008003700f88f420002003c008000eb00aa
:1005a000000005008100d1000080d3008502e80032
:1005b000fcff3a000300e00002003b006000100076
:1005c000e0801800000006000001be00980007004f
:1005d0000470a70003f0a10003f8a30013003a0081
:1005e0006509b10010003200090035006928e100fa
:1005f0000200350001002800000005000000400056
:10060000818048008502e900fcff3a0000000600f6
:10061000f88f4200050035008100d1000080d30032
:100620008502e800fcff3a00000006008000eb00b5
:10063000000005000001eb00aa00070004003200e2
:100640000200200003f8230001f0a7005bff070071
:10065000000006000400200000003700889fbe0054
:100660008a9fbe008c1f78004f26dd0085000700a2
:100670008c0033006120e100430032006250e10051
:1006800041003e003e0039006420e1003c003200a1
:10069000058255000f003b000402e80038003a00d4
:1006a000800f5300818f5b00350034000800be00ce
:1006b00003f0a10001f0a60003f0a0000cf0a700d9
:1006c0003fff0700800037000603430087834b008d
:1006d0000c4646000005530081855b000200330094
:1006e0000a03be000c00a0000402e900f6ff3b0074
:1006f000850578000602430087824b0004003a001b
:100700006000b80009f0a70001f0a0006e003700fb
:100710000002520081825a000704e0000400330006
:100720000603430087834b008b05e900faff37007f
:10073000090578000604be000203be006011b8007f
:1007400015000700e00f5200e08f5a000700350047
:1007500002003c000c08a300040032000601be00a9
:1007600003f0a0000cf0a70015ff07000a85680041
:1007700001f0a1000af0a70001f0a000520037002c
:100780000800be0050003700100220000cf0a60048
:10079000c043880050003700810020006180550070
:1007a0000b003d000b00200061fe2f000100e10066
:1007b0001d00340082817100610164008904d10050
:1007c0000884d3000000e800faff3a00710020001e
:1007d0006100640003007000020060000900320044
:1007e00061044400e0844c000988a5000500320043
:1007f0008b05e8006808e10002003a008904d10096
:100800000884d300f20f20000258e10005003d00eb
:10081000c75ddd00f907b200898075000800780027
:10082000000006000bf827008b0078000000050090
:10083000c70ade00f107b200f50fb200080032006f
:10084000e1cf4200020032000170a0002400050048
:10085000810f70000100320004080500440005000b
:10086000810f700002003a00140005008502e900c3
:100870000000400081c04800fcff3b000170a00068
:10088000240005000004be00e9ff07000003be00cd
:100890000405be000200be00e5ff0700844f75009e
:1008a000000006000200be006450e10005003600b2
:1008b0006420e100020036000968a30001003a004c
:1008c0000800be000160a0004f0678004f05be0082
:1008d0004f04be0000000600f0ff2f00f1ff2700cc
:1008e000f9ff3700889fbe008a9fbe000003be004c
:1008f000cfff0700850578008281520002002000aa
:100900006220e10004003a00f307b1000400350062
:100910007718e100040035000600be00140037001f
:100920006000b8000f003700f50f2000faff2f001d
:100930008502d1000a85d3008301e900fcff3b005a
:100940008184620000046500890f7400f2ff3200a8
:100950008582ea000a85ea0081846200000465005d
:100960008dff070007f0a70001f0a0000081eb0059
:100970000200e0004f05be004f04be00000006006c
:10098000889fbe008a9fbe00841f7800bdff0700bd
:100990004f00780011003300f0ff2f00838f6c00b0
:1009a00006003b00040565000a00a70008003700a8
:1009b00009f0a6001000200008003700820f540044
:1009c000838f5c00030039001000200001003e000e
:1009d0000000200009f0a7000000ea004f05be005b
:1009e0004f04be000000e00000000600000005000b
:020000040000fa
:0200000401f009
:04001400ffffff00eb
:020000040000fa
:0200000401f009
:04001800ffff0000e6
:020000040000fa
:0200000401f009
:04000800efff000006
:020000040000fa
:0200000401f009
:04000400ff7f00007a
:020000040000fa
:0200000401f009
:04000000f7bf000046
:020000040000fa
:04003400c8010000ff
:020000040000fa
:1009f000889fbe008a1f78000244780083447800f4
:100a0000040578006011b800ccfe07000000e0008b
:100a10000400340010c0b30088cf54000400360036
:100a2000004d78004f0578004f04be00000006001e
:100a30000040eb00004d7800faff3700889fbe00b1
:100a40008a1f780082447800034478000405780007
:100a50006011b800b9fe07000000e0000400340097
:100a600010c0b30088cf540004003600004d780059
:100a70004f0578004f04be00000006000040eb0068
:100a8000004d7800faff3700881f78001102be0081
:100a90001600200007002000180020000004e000dd
:100aa000030032002600200007002000280020005c
:100ab000e50f5200e08f5a00270032006011b800a5
:100ac000860f5200878f5a0020003200e30f520039
:100ad000e08f5a0022003200e40f5200e08f5a00eb
:100ae0002c003200560020008003eb00e10f520082
:100af000e08f5a001e00320020002000220020005b
:100b000003002000e00f5200e08f5a0036003a0048
:100b1000808f53002d00320020002000e10f540090
:100b200024003200e50f530006003200cfb3de0090
:100b30008688be006011b800e50f50000300320047
:100b40006011b8006102b9008488be000200be00d6
:100b50004f0478000000060050002000f4ff37002a
:100b60005600200027002000e10f54001c00320036
:100b70002200200003002000e20f54000100320098
:100b80006011b80002007800808f5300e2ff3a0045
:100b90000e00370056002000370020002200200001
:100ba00003002000e10f5400f6ff3a006011b80086
:100bb0000803780030002000e20f5100e08f590058
:100bc000d8ff320010002000d6ff37006011b800b7
:100bd00020002000e10f5400d2ff3a00f5ff37005b
:100be000080378008003eb000000eb006011b80000
:100bf000808f5300c8ff3a00f4ff3700e6874700b4
:100c0000889fbe008a9fbe008c9fbe008e1f78000a
:100c1000d9418000ea418000090078008a0078000c
:100c200048fe07000000e9004200dd00818120004d
:100c3000008040001000be007efe07000006be00df
:100c4000f70107000004e000240132000000eb007f
:100c5000e0168800ac16800061466600ab16800086
:100c6000c25dde00e1c56500ad168000c36ede002a
:100c7000e1c66600b84280004247de006147670077
:100c80006011b80080408000914080002bfe07007a
:100c90000000e0000400340010c0b3008ecf560006
:100ca0002d0136005ae8b7006011b800a04080005e
:100cb000b140800021fe07000000e0000400340085
:100cc00010c0b3008ecf56004a0131005be8b70078
:100cd000de4280000ef0a7000e07ea000e07ea00d1
:100ce0004f70de00000778000e04e000bd003a00ff
:100cf00014c0b30002002000030e2400f041800065
:100d00000142800084bf9f000cfe07000fba9700cd
:100d10000000e00056013400e4ef9f006102620031
:100d20000800a10008047200b84288004344de00b5
:100d3000614464006011b8000040800011408000f0
:100d4000fefd07000000e0000400340010c0b30006
:100d5000884f56002d0136005ee8b7006011b800dc
:100d60002040800031408000f4fd07000000e000da
:100d70000400340010c0b300884f56002001310039
:100d80005fe8b700a18420006fe897003eff0700ee
:100d9000e00f5000e08f5800010032005868ef006b
:100da000f042800000f0a7000000ea000000ea0026
:100db0004f00de006184200033ff0700e00f500089
:100dc000e08f58000500320058c8bf00e14f4000d6
:100dd000150132000040e80058e8b700b842800032
:100de0004440de0061406000e0ef9f006011b80009
:100df0004040800051408000d0fd07000000e0002e
:100e00000500340010c0b300efe8970081cf550013
:100e1000f50036005ce8b7006011b8006040800063
:100e200071408000c5fd07000000e00005003400af
:100e300010c0b300efe8970081cf5500e700310004
:100e40005de8b7000e04e00063003a001ec0b30086
:100e500002002000030e2400104280002142800086
:100e6000b6fd07000000e000040134000e407800e9
:100e70008e007800618760000e0747000810a1000f
:100e800008047700b842880021852000fefe070094
:100e9000e00f5000e08f5800010032005968ef0069
:100ea000e042800000f0a7000000ea000000ea0035
:100eb0004f00de00e1842000f3fe0700e00f500049
:100ec000e08f58004b00320059c8bf00e14f40008e
:100ed000d10032000040e80059e8b7000007eb00fd
:100ee0000e047800e14f5000930032006011b8000a
:100ef000090078008a0078008efd07000000e000fd
:100f00004200320002002000031124000900780092
:100f10008a00780087fd07000000e00091003a0099
:100f20008004eb000af823000000eb00800078004a
:100f30008285200012417800e14f51003b003200d1
:100f4000890278000a02780005017800840178009f
:100f5000d2418800e3418800e1866600c26edd0070
:100f6000b24280000220a1008286760080017800d3
:100f7000010178000300780082007800f0418800c9
:100f800001428800610666004366dd000d30a10065
:100f90000d067600e1856500c45ddd000c40a10012
:100fa0000c867500bc4288008e017800080178002c
:100fb00003007800820078001042880021428800f7
:100fc0004f0778004f06be004f05be004f04be001d
:100fd0006f00b1000000060010c0b30000477800a9
:100fe000a3ff370010c0b300e0ef9f00004278007d
:100ff0004aff370059c8bf000007eb000e04780015
:10100000e14f5000b9ff3a004b0037008004eb007d
:101010000a1024000000eb00800078008285200088
:1010200012417800e14f5100c5ff3a00f22621003d
:1010300033a82300f041800001428000e0fc07005b
:10104000890278000a02780005017800840178009e
:10105000d2418800e3418800e1866600c26edd006f
:10106000b24280000220a1008286760080017800d2
:10107000010178000300780082007800f0418800c8
:1010800001428800610666004366dd000d30a10064
:101090000d067600e1856500c45ddd000c40a10011
:1010a0000c867500bc4288008e017800080178002b
:1010b00003007800820078001042880021428800f6
:1010c0004f0778004f06be004f05be004f04be001c
:1010d0006f00b10000000600bfff37000c00be002b
:1010e0009f0007000004e000d8fe3a000200200044
:1010f000037824000c00be0056fd07008005780030
:10110000010478000b067800880678006011b800aa
:101110000b0078008800780006fd07000000e00062
:1011200059003d000c00be0001f0a20026fd0700a2
:101130000000ea00c6fe3700f226210033a8230093
:1011400010428000214280009dfc070000077800cb
:101150000104780065ff37000040eb005ae8b70053
:10116000d1fe370002002000030e2400f041800071
:1011700001428000effc07000000e0002c0034007a
:1011800002002000030e2400104280002142800053
:10119000e8fc07000000e00063ff3c0002002000c4
:1011a00003f82300890278000a027800050078001d
:1011b0008400780082fc0700800478000105780034
:1011c0000000eb008000780082852000124178004a
:1011d000e14f51005aff3a0094ff37000040eb0006
:1011e0005de8b70017ff37000040eb005ce8b70090
:1011f00009ff37000040eb005be8b700b4fe3700a2
:101200000040eb005fe8b700defe37000040eb0077
:101210005ee8b700d1fe37005968ef000007eb0029
:101220000e04780031ff37005868ef00ebfe3700fe
:101230000200200003f82300890278000a027800e7
:1012400005007800840078005cfc070080047800ca
:10125000010578000000eb00800078008285200006
:1012600012417800e14f510035ff3a006fff37001f
:101270000042eb00e4ef9f00a8fe37000047eb00c0
:101280000e407800fafe37000b00780088007800e6
:10129000cdfc07006efe3700400020001d00070057
:1012a0000200200003f82300d2418800e3418800b7
:1012b000f241880003428800500020000100200015
:1012c00030428800414288005042880061428800d4
:1012d00012428800234288007042880081428800c0
:1012e00090428800a142880000000600000006002d
:1012f0003808e200feff320042a0a8003808a9002a
:101300003efe070042a0a9003808e200f8ff3200c4
:10131000f9ff3700ad0007004043880051438800c3
:10132000ad000700a0438800b14388009b00070080
:1013300000438800114388009b0007006043880039
:10134000714388009b0007002043880031438800d8
:101350009b0007008043880091438800000006003e
:10136000889fbe008a1f78000004be0002438000f0
:10137000134380006ffc07001ac0b3000000e000b8
:101380000600320022438000334380000800be0084
:1013900068fc07000000e00004003a000a40780002
:1013a0004f0578004f04be00000006000040eb002f
:1013b0004f0578004f04be0000000600fbff370019
:1013c000889fbe008a1f78000004be006243800030
:1013d0007343800057fc07001ac0b3000000e00010
:1013e0000600320082438000934380000800be0064
:1013f00050fc07000000e00004003a000a407800ba
:101400004f0578004f04be00000006000040eb00ce
:101410004f0578004f04be0000000600fbff3700b8
:10142000000378000400200005f827000581600013
:101430008001eb00c011dd00020020000040eb0045
:10144000840f5100858f5900010032000000060012
:1014500001007800f007b2008000780006007800f4
:101460000001be000281710002f0a7000201ea0043
:101470000201ea004f10de000000060000037800c1
:101480000400200005f82700058160008001eb00c2
:10149000c011dd00020020000040eb00840f51006d
:1014a000858f59000100320000000600010078001d
:1014b000f007b20080007800060078000001be004e
:1014c0000281710002f0a7000201ea000201ea00b5
:0814d0004f10de0000000600d1
:020000040000fa
:1014d8000008000038000000020000000000800042
:1014e8003f0000000000000000803f0000000000f6
:1014f80000000000803f00000000000000008000a5
:101508003f00000040400000000040000000c00014
:101518004000000080400000004041000000000042
:1015280041000000104100006008000018000000a1
:10153800000000003808000028000000000000003b
:101548007808000002000000000000000000000011
:020000040000fa
:10155800a822ef0000ff2f00c01688004cff0700ec
:101568000421ef00f0ff28009400b60000d0a0008e
:10157800a00488008460a9008c60a800f0e723001c
:10158800100888000000e9000008880005e1a800ac
:1015980055ff07000000200001f8270000000600a2
:1015a8000000200001f827000000060000002000cd
:1015b80001f82f00000006000000200001f82f00ad
:1015c800000006000000200001fc2f0000000600bb
:0c15d8000000200001fc2f0000000600b5
:00000001FF
