:020000040000fa
:04005c00da020000c4
:020000040000fa
:04001000da02000010
:020000040000fa
:04025c00da020000c2
:020000040000fa
:04021000da0200000e
:020000040000fa
:04027400da020000aa
:020000040000fa
:04032400da020000f9
:020000040000fa
:04035000da020000cd
:020000040000fa
:04022c00da020000f2
:020000040000fa
:04023c00da020000e2
:020000040000fa
:04028000da0200009e
:020000040000fa
:04028400da0200009a
:020000040000fa
:04022800da020000f6
:020000040000fa
:04027800da020000a6
:020000040000fa
:04029c00da02000082
:020000040000fa
:04026000da020000be
:020000040000fa
:04026400da020000ba
:020000040000fa
:04027000da020000ae
:020000040000fa
:04027c00da020000a2
:020000040000fa
:04028800da02000096
:020000040000fa
:04028c00da02000092
:020000040000fa
:04029000da0200008e
:020000040000fa
:04029400da0200008a
:020000040000fa
:04029800da02000086
:020000040000fa
:0402a000da0200007e
:020000040000fa
:0402a400da0200007a
:020000040000fa
:0402a800da02000076
:020000040000fa
:0402ac00da02000072
:020000040000fa
:0402b000da0200006e
:020000040000fa
:0402b400da0200006a
:020000040000fa
:0402b800da02000066
:020000040000fa
:0402bc00da02000062
:020000040000fa
:0402c000da0200005e
:020000040000fa
:0402c400da0200005a
:020000040000fa
:04023800da020000e6
:020000040000fa
:0402c800da02000056
:020000040000fa
:0402cc00da02000052
:020000040000fa
:0402d000da0200004e
:020000040000fa
:0402d400da0200004a
:020000040000fa
:0402d800da02000046
:020000040000fa
:0402dc00da02000042
:020000040000fa
:0402e000da0200003e
:020000040000fa
:0402e400da0200003a
:020000040000fa
:0402e800da02000036
:020000040000fa
:0402ec00da02000032
:020000040000fa
:0402f000da0200002e
:020000040000fa
:0402f400da0200002a
:020000040000fa
:0402f800da02000026
:020000040000fa
:0402fc00da02000022
:020000040000fa
:04030000da0200001d
:020000040000fa
:04030400da02000019
:020000040000fa
:04030800da02000015
:020000040000fa
:04031400da02000009
:020000040000fa
:04031800da02000005
:020000040000fa
:04031c00da02000001
:020000040000fa
:04032000da020000fd
:020000040000fa
:04032800da020000f5
:020000040000fa
:04033000da020000ed
:020000040000fa
:04033400da020000e9
:020000040000fa
:04033800da020000e5
:020000040000fa
:04033c00da020000e1
:020000040000fa
:04034000da020000dd
:020000040000fa
:04034400da020000d9
:020000040000fa
:04034800da020000d5
:020000040000fa
:04026c00da020000b2
:020000040000fa
:04030c00da02000011
:020000040000fa
:04034c00da020000d1
:020000040000fa
:04021800da02000006
:020000040000fa
:04023000da020000ee
:020000040000fa
:04024000da020000de
:020000040000fa
:04020c00da02000012
:020000040000fa
:04031000da0200000d
:020000040000fa
:04020800da02000016
:020000040000fa
:04021c00da02000002
:020000040000fa
:04022000da020000fe
:020000040000fa
:04022400da020000fa
:020000040000fa
:04026800da020000b6
:020000040000fa
:04024c00da020000d2
:020000040000fa
:04025000da020000ce
:020000040000fa
:04021400da0200000a
:020000040000fa
:04023400c8020000fc
:020000040000fa
:04024400da020000da
:020000040000fa
:04024800da020000d6
:020000040000fa
:04032c00da020000f1
:020000040000fa
:04025400da020000ca
:020000040000fa
:04025800da020000c6
:020000040000fa
:04007400da020000ac
:020000040000fa
:04012400da020000fb
:020000040000fa
:04015000da020000cf
:020000040000fa
:04002c00da020000f4
:020000040000fa
:04003c00da020000e4
:020000040000fa
:04008000da020000a0
:020000040000fa
:04008400da0200009c
:020000040000fa
:04002800da020000f8
:020000040000fa
:04007800da020000a8
:020000040000fa
:04009c00da02000084
:020000040000fa
:04006000da020000c0
:020000040000fa
:04006400da020000bc
:020000040000fa
:04007000da020000b0
:020000040000fa
:04007c00da020000a4
:020000040000fa
:04008800da02000098
:020000040000fa
:04008c00da02000094
:020000040000fa
:04009000da02000090
:020000040000fa
:04009400da0200008c
:020000040000fa
:04009800da02000088
:020000040000fa
:0400a000da02000080
:020000040000fa
:0400a400da0200007c
:020000040000fa
:0400a800da02000078
:020000040000fa
:0400ac00da02000074
:020000040000fa
:0400b000da02000070
:020000040000fa
:0400b400da0200006c
:020000040000fa
:0400b800da02000068
:020000040000fa
:0400bc00da02000064
:020000040000fa
:0400c000da02000060
:020000040000fa
:0400c400da0200005c
:020000040000fa
:04003800da020000e8
:020000040000fa
:0400c800da02000058
:020000040000fa
:0400cc00da02000054
:020000040000fa
:0400d000da02000050
:020000040000fa
:0400d400da0200004c
:020000040000fa
:0400d800da02000048
:020000040000fa
:0400dc00da02000044
:020000040000fa
:0400e000da02000040
:020000040000fa
:0400e400da0200003c
:020000040000fa
:0400e800da02000038
:020000040000fa
:0400ec00da02000034
:020000040000fa
:0400f000da02000030
:020000040000fa
:0400f400da0200002c
:020000040000fa
:0400f800da02000028
:020000040000fa
:0400fc00da02000024
:020000040000fa
:04010000da0200001f
:020000040000fa
:04010400da0200001b
:020000040000fa
:04010800da02000017
:020000040000fa
:04011400da0200000b
:020000040000fa
:04011800da02000007
:020000040000fa
:04011c00da02000003
:020000040000fa
:04012000da020000ff
:020000040000fa
:04012800da020000f7
:020000040000fa
:04013000da020000ef
:020000040000fa
:04013400da020000eb
:020000040000fa
:04013800da020000e7
:020000040000fa
:04013c00da020000e3
:020000040000fa
:04014000da020000df
:020000040000fa
:04014400da020000db
:020000040000fa
:04014800da020000d7
:020000040000fa
:04006c00da020000b4
:020000040000fa
:04010c00da02000013
:020000040000fa
:04014c00da020000d3
:020000040000fa
:04001800da02000008
:020000040000fa
:04003000da020000f0
:020000040000fa
:04004000da020000e0
:020000040000fa
:04000c00da02000014
:020000040000fa
:04011000da0200000f
:020000040000fa
:04000800da02000018
:020000040000fa
:04001c00da02000004
:020000040000fa
:04002000da02000000
:020000040000fa
:04002400da020000fc
:020000040000fa
:04006800da020000b8
:020000040000fa
:04004c00da020000d4
:020000040000fa
:04005000da020000d0
:020000040000fa
:04001400da0200000c
:020000040000fa
:04004400da020000dc
:020000040000fa
:04004800da020000d8
:020000040000fa
:04012c00da020000f3
:020000040000fa
:04005400da020000cc
:020000040000fa
:04005800da020000c8
:020000040000fa
:080000000002040000000000f2
:020000040000fa
:10040000cf8520000eff20000e01880000000000b4
:10041000000020000000e000020032000001200087
:100420002002880014000700450207000000e000d9
:1004300003003a00a0b320000100200002003700b2
:100440000000200001002000810f70000100320038
:1004500014000700000020000000e000020032004d
:100460000000020000000000a60a020000000000d8
:100470000040da000000fe004440a9000000200017
:100480000000e0000300320000002000a00188000e
:100490004440a800000006008a1f78008b1f7800e7
:1004a0000000060091018800800478000000eb0045
:1004b0001a003700e284440032a0b4009905ba0063
:1004c000e284440032a0b4009906ba00e2844400f9
:1004d00032a0b4000006eb00476fde00fd07b2005b
:1004e000636ce10003003a00ebff07000000eb0043
:1004f0000a003700606ce10004003a00005deb0088
:100500008b05e900fdff3e00040037006168e10053
:10051000010032000086eb000b00070019c7ba008b
:100520001905ba000e04e00003003a000a00e000da
:10053000e0ff3a0000000600fe07b2009e018800be
:100540008a047800f5ff3700395dba008b05e900b1
:100550000c003200295dba008b05e900080032006a
:100560000c00e00003003a00e284440032a0b40032
:10057000f5ff370019ddba008b05e900faff3a00f4
:100580008904e800e184440032a0b40000000600c1
:100590003400f800881f780008002000a8018800b7
:1005a0004f0478004c08a8008460a9003400f900ca
:1005b000004006000040da000000fe0003f0a20048
:1005c000889fbe008a9fbe008c1f78004e010700e6
:1005d000550133006450e1004f0032006420e10017
:1005e0005200320003826c0007003b000905d00076
:1005f0000306d000820f54000c065d000200390093
:1006000002003200890178000306780085825500d7
:1006100004003d000003fd008103fd008502ea00a7
:100620008b854200840f720002003b0060001000c6
:10063000e08018006011b8000005eb007a28e100a6
:100640000a00390006007800c75ddd00f707b20038
:10065000878075002d003700828171000a017800c3
:10066000610560008180d1000080d3008502e9002f
:10067000f9ff3b00060440008784480002003b006d
:1006800060041400e0841c000988a3000700320005
:100690008a81710082817100610164008904d10046
:1006a0000884d3008b05e800170037000978a30001
:1006b00013003a000b00e000130034008b05e90042
:1006c0000804440089844c000a4474000978a3009b
:1006d0000d003a000b00e000070034008b05e90034
:1006e0000804440089844c0001003a000b002000fb
:1006f0000978a300f7ff32000001eb000200370089
:10070000828171000a017800c40007000cf0a70084
:1007100001f0a0000d0137006420e10002003a0062
:10072000838f6c000d0133000801be000200be0083
:1007300006013700889fbe008a9fbe008c1f78008c
:10074000f1000700f800330003866c006450e100fc
:100750002e0032006420e100330032006150e100dd
:100760002f0032006120e100310032008585550004
:10077000eb07b00009002000080420000500370046
:100780000804440089844c000a0031000603430039
:1007900087834b000001530081815b00f8ff330029
:1007a0000203be000800a0000804440089844c0035
:1007b000f6ff3900c639dd00830173000100320005
:1007c000130020008904d1000884d3000998a300f5
:1007d000050032000800a7000300a0008904d10032
:1007e0000884d3008b05e8008904d1000884d30075
:1007f0000001eb000281d2008800070001f0a10097
:100800000cf0a70001f0a000d00037006420e10048
:10081000d20032000801be000200be00f7ff370020
:100820006120e100cd0032006000b800f3ff370026
:100830000000200001f82700f0ff3700140020001e
:1008400024013700f4ff2f00220137000001be0011
:10085000980007000470a70003f0a10003f8a300ac
:1008600013003a006509b10010003200090035009c
:100870006928e100020035000100280000000500a1
:1008800000004000818048008502e900fcff3a003a
:1008900000000600f88f4200050035008100d100fd
:1008a0000080d3008502e800fcff3a00000006004b
:1008b0008000eb00000005000001eb00de000700f7
:1008c000040032000200200003f8230001f0a7001a
:1008d0003aff070000000600040020000000370077
:1008e000889fbe008a9fbe008c1f78004f26dd00c7
:1008f000850007008c0033006120e10043003200d6
:100900006250e10041003e003e0039006420e100f9
:100910003c003200058255000f003b000402e80055
:1009200038003a00800f5300818f5b00350034009f
:100930000800be0003f0a10001f0a60003f0a00033
:100940000cf0a7001eff07008000370006034300dd
:1009500087834b000c4646000005530081855b00f1
:10096000020033000a03be000c00a0000402e900ec
:10097000f6ff3b00850578000602430087824b00a6
:1009800004003a006000b80009f0a70001f0a000e0
:100990006e0037000002520081825a000704e00016
:1009a000040033000603430087834b008b05e900f6
:1009b000faff3700090578000604be000203be00f6
:1009c0006011b80015000700e00f5200e08f5a00d8
:1009d0000700350002003c000c08a30004003200b0
:1009e0000601be0003f0a0000cf0a700f4fe070013
:1009f0000a85680001f0a1000af0a70001f0a0003c
:100a0000520037000800be005000370010022000de
:100a10000cf0a600d0428800500037008100200072
:100a2000618055000b003d000b00200061fe2f008f
:100a30000100e1001d003400828171006101640049
:100a40008904d1000884d3000000e800faff3a00ce
:100a5000710020006100640003007000020060006b
:100a60000900320061044400e0844c000988a500bc
:100a7000050032008b05e8006808e10002003a003a
:100a80008904d1000884d300f20f20000258e1004d
:100a900005003d00c75ddd00f907b20089807500e3
:100aa00008007800000006000bf827008b00780093
:100ab00000000500c70ade00f107b200f50fb20022
:100ac00008003200e1cf4200020032000170a000b5
:100ad00024000500810f70000100320004080500a9
:100ae00044000500810f700002003a001400050068
:100af0008502e9000000400081c04800fcff3b0087
:100b00000170a000240005000004be00e9ff0700fa
:100b10000003be000405be000200be00e5ff0700a2
:100b2000844f7500000006000200be006450e10022
:100b3000050036006420e100020036000968a300c9
:100b400001003a000800be000160a0004f067800d6
:100b50004f05be004f04be0000000600f0ff2f004e
:100b6000f1ff2700f9ff3700889fbe008a9fbe0073
:100b70008c1f7800e4ff0700ebff330003866c0056
:100b80006450e100240032006420e10027003200bc
:100b90006150e100220032006120e10021003200ba
:100ba0008b854200eb07b1000134b800003ab80071
:100bb0000804420089844a00013ab8000030b800b5
:100bc0008880400009014a00040033000000400012
:100bd00081804800020149008b05e900c909dd0058
:100be000830170000100320013002000c814de00f1
:100bf0004814dd004709de001200b200c808de001c
:100c00000884700085ff070001f0a1000cf0a70028
:100c100001f0a000cdff37006120e100cfff3200de
:100c20000801be000200be00f7ff37006150e1007e
:100c3000fcff3a00c9ff3700889fbe008a9fbe00b4
:100c40000003be009bff07008505780082815200eb
:100c5000020020006220e10004003a00f307b10026
:100c6000040035007718e100040035000600be00de
:100c7000140037006000b8000f003700f50f2000a7
:100c8000faff2f008502d1000a85d3008301e90015
:100c9000fcff3b008184620000046500890f740042
:100ca000f2ff32008582ea000a85ea008184620050
:100cb0000004650059ff070007f0a70001f0a0003d
:100cc0000081eb000200e0004f05be004f04be00b3
:100cd00000000600889fbe008a9fbe00841f780027
:100ce00089ff07004f00780011003300f0ff2f004c
:100cf000838f6c0006003b00040565000a00a70016
:100d00000800370009f0a600100020000800370096
:100d1000820f5400838f5c00030039001000200014
:100d200001003e000000200009f0a7000000ea00da
:100d30004f05be004f04be000000e00000000600aa
:040d400000000500aa
:020000040000fa
:0200000401f009
:04001c00dfff000002
:020000040000fa
:0200000401f009
:040014005f00000089
:020000040000fa
:0200000401f009
:04001000620000008a
:020000040000fa
:0200000401f009
:04000c00820000006e
:020000040000fa
:04003400c8020000fe
:020000040000fa
:100d4400889fbe008a1f780002447800834478009c
:100d5400040578006011b800b9fe07000000e00047
:100d64000400340010c0b30088cf540004003600df
:100d7400004d78004f0578004f04be0000000600c7
:100d84000040eb00004d7800faff3700889fbe005a
:100d94008a1f7800824478000344780004057800b0
:100da4006011b800a6fe07000000e0000400340053
:100db40010c0b30088cf540004003600004d780002
:100dc4004f0578004f04be00000006000040eb0011
:100dd400004d7800faff3700e8874700889fbe007f
:100de4008a9fbe008c9fbe008e1f78009b168000d9
:100df400e1c56500d202d50061466000a9428000c9
:100e040061c464006011b80040408000514080001b
:100e14008bfe07000000e0000400340010c0b300a3
:100e2400884f56000001360056e8b7006011b8003c
:100e3400604080007140800081fe07000000e000f7
:100e44000400340010c0b300884f5600f300310092
:100e540057e8b700b84280000905d1006145650034
:100e64006011b800004080001140800074fe07004b
:100e74000000e0000400340010c0b3008acf550025
:100e8400e300360058e8b7006011b8002040800045
:100e9400314080006afe07000000e00004003400d6
:100ea40010c0b3008acf5500d600310059e8b7000e
:100eb400c042800000f0a7000000ea000000ea0041
:100ec400cf01de0008f0a7000804ea000800ea00e9
:100ed4004f00de008380fb000001400002814000df
:100ee40002014100424ade00610262000401410045
:100ef4007401410008812000e846790081804000a7
:100f04000080400000004000c34cde00e184640027
:100f14000900400074004000684778000e04e000b7
:100f24004d003200f226210033a8230070428000d5
:100f340081428000a1fd0700f0b79f00e1b79f0048
:100f44006011b8000d04e00002003200724280001b
:100f540083428000a0992900911c2400f4fd07001d
:100f6400000578008104780002002000032a240090
:100f74000a0078008900780031fe07004400200050
:100f84000000e00008003c0002002000032a2400c6
:100f94000a0078008900780029fe07003400200048
:100fa4000000e0006f0035004222dd00040444002c
:100fb40002f02300c37124001800be00e9fe0700fc
:100fc4003cfe07000004be00310107000004e000fd
:100fd4002b0032000000eb0090428800610666009e
:100fe400a14280000100a10001067600e1856500b0
:100ff4008b8545000c10a1008c857500e186660088
:10100400c26edd000b20a1008b8676008e00780076
:10101400618760004377dd000d30a1008d06770005
:10102400ad4288007fb29700efb0970004017800ca
:10103400810178007242880083428800b00e8800e3
:101044004f0778004f06be004f05be004f04be0098
:101054008f00b100000006000000eb00f0b79f0015
:10106400e0b79f000304e000b5ff3a00714280003e
:10107400f1b79f0080428000e0b79f00b0ff3700c7
:101084000800be00d20007000004e000d1ff3a00cf
:1010940002002000037824000800be000dfe0700b3
:1010a40000057800010278000a04780084047800be
:1010b4006011b8000a0078008400780084bf9f00a3
:1010c400ddfd07000fba97000000e0006d003d0051
:1010d4000800be0001f0a200dbfd07000000ea00ea
:1010e4009042880061066600a14280000100a100d0
:1010f40001067600e18565008b8545000c10a10092
:101104008c857500e1866600c26edd000b20a100af
:101114008b8676008e007800618760004377dd005f
:101124000d30a1008d067700ad4288007fb2970094
:10113400efb09700040178008101780072428800c2
:1011440083428800b00e88004f0778004f06be0027
:101154004f05be004f04be008f00b1000000060022
:10116400bdff370002002000032724000a00780096
:1011740089007800b2fd07000000e0002d003c006b
:1011840002002000832424000a00780089007800eb
:10119400abfd07000000e0000d0034001400200047
:1011a40002002000032724008a0078000900780048
:1011b40001037800800378000600be0084bf9f000e
:1011c4009dfd07000fba97000000e00076ff340091
:1011d4000002eb004222dd000404440002f023007c
:1011e400c37124001800be005efe0700b1fd0700b5
:1011f4000004be00a60007000004e00075ff3a00ea
:101204009fff37000040eb0059e8b70028ff370084
:101214000040eb0058e8b7001bff37000040eb002c
:1012240057e8b7000bff37000040eb0056e8b70063
:10123400fefe370002002000c32824000a007800c4
:10124400890078007cfd0700240020000000e000f5
:10125400cbff3c004222dd000404440002f02300e2
:10126400c37124001800be003efe070091fd070074
:101274000004be00860007000004e00055ff3a00a9
:101284007fff37000a007800840078006efd0700b5
:101294009042880061066600a14280000100a1001e
:1012a40001067600e18565008b8545000c10a100e0
:1012b4008c857500e1866600c26edd000b20a100fe
:1012c4008b8676008e007800618760004377dd00ae
:1012d4000d30a1008d067700ad4288007fb29700e3
:1012e400efb0970004017800810178007242880011
:1012f40083428800b00e88004f0778004f06be0076
:101304004f05be004f04be008f00b1000000060070
:1013140051ff3700400020001a0007001001200090
:10132400400e880060002000500e8800202b2f0003
:10133400600e880010002000700e880070082000e5
:10134400800e880000e22400200e8800300e880001
:1013540030002800000e880000000600000006008f
:101364004c08e200feff320042a0a8004c08a9008d
:1013740099fe070042a0a9004c08e200f8ff3200e1
:10138400f9ff3700e5000700e0418800f1418800db
:10139400e50007004042880051428800d30007005e
:1013a400a0418800b1418800d300070000428800b2
:1013b40011428800d3000700c0418800d141880051
:1013c400d300070020428800314288000000060054
:1013d400889fbe008a1f78000004be00a2418000de
:1013e400b341800014fd07001ac0b3000000e00000
:1013f40006003200c2418000d34180000800be00d4
:101404000dfd07000000e00004003a000a407800e7
:101414004f0578004f04be00000006000040eb00ba
:101424004f0578004f04be0000000600fbff3700a4
:10143400889fbe008a1f78000004be00024280001c
:1014440013428000fcfc07001ac0b3000000e00057
:101454000600320022428000334280000800be00b1
:10146400f5fc07000000e00004003a000a407800a0
:101474004f0578004f04be00000006000040eb005a
:101484004f0578004f04be0000000600fbff370044
:10149400000378000400200005f82700058160009f
:1014a4008001eb00c011dd00020020000040eb00d1
:1014b400840f5100858f590001003200000006009e
:1014c40001007800f007b200800078000600780080
:1014d4000001be000281710002f0a7000201ea00cf
:1014e4000201ea004f10de0000000600000378004d
:1014f4000400200005f82700058160008001eb004e
:10150400c011dd00020020000040eb00840f5100f8
:10151400858f5900010032000000060001007800a8
:10152400f007b20080007800060078000001be00d9
:101534000281710002f0a7000201ea000201ea0040
:101544004f10de00000006004387ab0004003200a9
:10155400103a80004c00de00640060002d00320070
:10156400e0062000303a880050002000203a88002d
:10157400a1092000320020008007200033742000dd
:1015840080497800814978008249780071052000fb
:101594001200200060042000237420008049780099
:1015a4008149780082497800400c20006019880045
:1015b4009826ef00f0ff2300401688000200270061
:1015c40001002300133a800003006100810f5000e2
:1015d400fcff3a0042a7ab00feff32004dff0700bc
:1015e4000421ef00f0ff2800a400b60000d0a00002
:1015f400200588008460a9009460a800f0c3290035
:10160400100888000000e9000008880005e1a8002f
:1016140053ff0700a2092000810720003374200033
:10162400814978008249780080497800710520005a
:1016340012002000600420002374200080497800f8
:101644008149780082497800000000000000000011
:1016540001002700123a800002806000c0ff3200bf
:10166400123a800002806000faff3a00bcff3700a3
:020000040000fa
:10167400340800001800000000000000000800000a
:101684003400000002000000000080003f00000061
:101694000000000000803f000000000000cdcc00ee
:1016a4004c3dae0047613d00b81e85003d0ad700a1
:1016b400a33dcd00cccc3d000001000000010100a1
:1016c4000000010000010100000000000000000013
:1016d4004c0800000e000000000000005a08000042
:0c16e400020000000000000000000000f8
:020000040000fa
:1016f0000000200001f82700000006000000200084
:1017000001f82700000006000000200001f82f006b
:10171000000006000000200001f82f000000060075
:101720000000200001fc2f00000006000000200047
:0817300001fc2f00000006007f
:00000001FF
