:020000040000fa
:04001000f4020000f6
:020000040000fa
:04025c00dc020000c0
:020000040000fa
:04021000f4020000f4
:020000040000fa
:04027400f402000090
:020000040000fa
:04032400f4020000df
:020000040000fa
:04035000f4020000b3
:020000040000fa
:04022c00f4020000d8
:020000040000fa
:04023c00f4020000c8
:020000040000fa
:04028000f402000084
:020000040000fa
:04028400f402000080
:020000040000fa
:04022800f4020000dc
:020000040000fa
:04027800f40200008c
:020000040000fa
:04029c00f402000068
:020000040000fa
:04026000f4020000a4
:020000040000fa
:04026400f4020000a0
:020000040000fa
:04027000f402000094
:020000040000fa
:04027c00f402000088
:020000040000fa
:04028800f40200007c
:020000040000fa
:04028c00f402000078
:020000040000fa
:04029000f402000074
:020000040000fa
:04029400f402000070
:020000040000fa
:04029800f40200006c
:020000040000fa
:0402a000f402000064
:020000040000fa
:0402a400f402000060
:020000040000fa
:0402a800f40200005c
:020000040000fa
:0402ac00f402000058
:020000040000fa
:0402b000f402000054
:020000040000fa
:0402b400f402000050
:020000040000fa
:0402b800f40200004c
:020000040000fa
:0402bc00f402000048
:020000040000fa
:0402c000f402000044
:020000040000fa
:0402c400f402000040
:020000040000fa
:04023800f4020000cc
:020000040000fa
:0402c800f40200003c
:020000040000fa
:0402cc00f402000038
:020000040000fa
:0402d000f402000034
:020000040000fa
:0402d400f402000030
:020000040000fa
:0402d800f40200002c
:020000040000fa
:0402dc00f402000028
:020000040000fa
:0402e000f402000024
:020000040000fa
:0402e400f402000020
:020000040000fa
:0402e800f40200001c
:020000040000fa
:0402ec00f402000018
:020000040000fa
:0402f000f402000014
:020000040000fa
:0402f400f402000010
:020000040000fa
:0402f800f40200000c
:020000040000fa
:0402fc00f402000008
:020000040000fa
:04030000f402000003
:020000040000fa
:04030400f4020000ff
:020000040000fa
:04030800f4020000fb
:020000040000fa
:04031400f4020000ef
:020000040000fa
:04031800f4020000eb
:020000040000fa
:04031c00f4020000e7
:020000040000fa
:04032000f4020000e3
:020000040000fa
:04032800f4020000db
:020000040000fa
:04033000f4020000d3
:020000040000fa
:04033400f4020000cf
:020000040000fa
:04033800f4020000cb
:020000040000fa
:04033c00f4020000c7
:020000040000fa
:04034000f4020000c3
:020000040000fa
:04034400f4020000bf
:020000040000fa
:04034800f4020000bb
:020000040000fa
:04026c00f402000098
:020000040000fa
:04030c00f4020000f7
:020000040000fa
:04034c00f4020000b7
:020000040000fa
:04021800f4020000ec
:020000040000fa
:04023000f4020000d4
:020000040000fa
:04024000f4020000c4
:020000040000fa
:04020c00f4020000f8
:020000040000fa
:04031000f4020000f3
:020000040000fa
:04020800f4020000fc
:020000040000fa
:04021c00f4020000e8
:020000040000fa
:04022000f4020000e4
:020000040000fa
:04022400f4020000e0
:020000040000fa
:04026800f40200009c
:020000040000fa
:04024c00f4020000b8
:020000040000fa
:04025000f4020000b4
:020000040000fa
:04021400f4020000f0
:020000040000fa
:04023400f4020000d0
:020000040000fa
:04024400f4020000c0
:020000040000fa
:04024800c8020000e8
:020000040000fa
:04032c00f4020000d7
:020000040000fa
:04025400f4020000b0
:020000040000fa
:04025800f4020000ac
:020000040000fa
:04007400f402000092
:020000040000fa
:04012400f4020000e1
:020000040000fa
:04015000f4020000b5
:020000040000fa
:04002c00f4020000da
:020000040000fa
:04003c00f4020000ca
:020000040000fa
:04008000f402000086
:020000040000fa
:04008400f402000082
:020000040000fa
:04002800f4020000de
:020000040000fa
:04007800f40200008e
:020000040000fa
:04009c00f40200006a
:020000040000fa
:04006000f4020000a6
:020000040000fa
:04006400f4020000a2
:020000040000fa
:04007000f402000096
:020000040000fa
:04007c00f40200008a
:020000040000fa
:04008800f40200007e
:020000040000fa
:04008c00f40200007a
:020000040000fa
:04009000f402000076
:020000040000fa
:04009400f402000072
:020000040000fa
:04009800f40200006e
:020000040000fa
:0400a000f402000066
:020000040000fa
:0400a400f402000062
:020000040000fa
:0400a800f40200005e
:020000040000fa
:0400ac00f40200005a
:020000040000fa
:0400b000f402000056
:020000040000fa
:0400b400f402000052
:020000040000fa
:0400b800f40200004e
:020000040000fa
:0400bc00f40200004a
:020000040000fa
:0400c000f402000046
:020000040000fa
:0400c400f402000042
:020000040000fa
:04003800f4020000ce
:020000040000fa
:0400c800f40200003e
:020000040000fa
:0400cc00f40200003a
:020000040000fa
:0400d000f402000036
:020000040000fa
:0400d400f402000032
:020000040000fa
:0400d800f40200002e
:020000040000fa
:0400dc00f40200002a
:020000040000fa
:0400e000f402000026
:020000040000fa
:0400e400f402000022
:020000040000fa
:0400e800f40200001e
:020000040000fa
:0400ec00f40200001a
:020000040000fa
:0400f000f402000016
:020000040000fa
:0400f400f402000012
:020000040000fa
:0400f800f40200000e
:020000040000fa
:0400fc00f40200000a
:020000040000fa
:04010000f402000005
:020000040000fa
:04010400f402000001
:020000040000fa
:04010800f4020000fd
:020000040000fa
:04011400f4020000f1
:020000040000fa
:04011800f4020000ed
:020000040000fa
:04011c00f4020000e9
:020000040000fa
:04012000f4020000e5
:020000040000fa
:04012800f4020000dd
:020000040000fa
:04013000f4020000d5
:020000040000fa
:04013400f4020000d1
:020000040000fa
:04013800f4020000cd
:020000040000fa
:04013c00f4020000c9
:020000040000fa
:04014000f4020000c5
:020000040000fa
:04014400f4020000c1
:020000040000fa
:04014800f4020000bd
:020000040000fa
:04006c00f40200009a
:020000040000fa
:04010c00f4020000f9
:020000040000fa
:04014c00f4020000b9
:020000040000fa
:04001800f4020000ee
:020000040000fa
:04003000f4020000d6
:020000040000fa
:04004000f4020000c6
:020000040000fa
:04000c00f4020000fa
:020000040000fa
:04011000f4020000f5
:020000040000fa
:04000800f4020000fe
:020000040000fa
:04001c00f4020000ea
:020000040000fa
:04002000f4020000e6
:020000040000fa
:04002400f4020000e2
:020000040000fa
:04006800f40200009e
:020000040000fa
:04004c00f4020000ba
:020000040000fa
:04005000f4020000b6
:020000040000fa
:04001400f4020000f2
:020000040000fa
:04003400f4020000d2
:020000040000fa
:04004400f4020000c2
:020000040000fa
:04012c00f4020000d9
:020000040000fa
:04005400f4020000b2
:020000040000fa
:04005800f4020000ae
:020000040000fa
:080000000002040000000000f2
:020000040000fa
:100400006f8620000eff20000e0188000000000013
:10041000000020000000e000020032000001200087
:100420002002880014000700fd0107000000e00022
:1004300003003a0080a820000100200002003700dd
:100440000000200001002000810f70000100320038
:1004500014000700000020000000e000020032004d
:100460000000020000000000fa0902000000000085
:100470000040da000000fe004440a9000000200017
:100480000000e0000300320000002000a00188000e
:100490004440a800000006008a1f78008b1f7800e7
:1004a0000000060091018800800478000000eb0045
:1004b0001a003700e284440032a0b4009905ba0063
:1004c000e284440032a0b4009906ba00e2844400f9
:1004d00032a0b4000006eb00476fde00fd07b2005b
:1004e000636ce10003003a00ebff07000000eb0043
:1004f0000a003700606ce10004003a00005deb0088
:100500008b05e900fdff3e00040037006168e10053
:10051000010032000086eb000b00070019c7ba008b
:100520001905ba000e04e00003003a000a00e000da
:10053000e0ff3a0000000600fe07b2009e018800be
:100540008a047800f5ff3700395dba008b05e900b1
:100550000c003200295dba008b05e900080032006a
:100560000c00e00003003a00e284440032a0b40032
:10057000f5ff370019ddba008b05e900faff3a00f4
:100580008904e800e184440032a0b40000000600c1
:10059000801f78003400f80000002000a0018800cf
:1005a000400e2800001988008500a9003400f900d9
:1005b0004f007800004006003400f800881f7800e3
:1005c00008002000a80188004f0478000003f8000c
:1005d0006208f90021e3a9005408a80085a0a90039
:1005e0003400f900004006000040da000000fe0080
:1005f00003f0a200889fbe008a9fbe008c1f780077
:100600002d010700340133006450e1004f00320037
:100610006420e1005200320003826c0007003b00be
:100620000905d0000306d000820f54000c065d00bf
:1006300002003900020032008901780003067800c8
:100640008582550004003d000003fd008103fd008c
:100650008502ea008b854200840f720002003b0095
:1006600060001000e08018006011b8000005eb0089
:100670007a28e1000a00390006007800c75ddd0035
:10068000f707b200878075002d0037008281710066
:100690000a017800610560008180d1000080d300ec
:1006a0008502e900f9ff3b0006044000878448000a
:1006b00002003b0060041400e0841c000988a300d1
:1006c000070032008a81710082817100610164003b
:1006d0008904d1000884d3008b05e8001700370097
:1006e0000978a30013003a000b00e0001300340067
:1006f0008b05e9000804440089844c000a44740016
:100700000978a3000d003a000b00e0000700340058
:100710008b05e9000804440089844c0001003a007c
:100720000b0020000978a300f7ff32000001eb0066
:1007300002003700828171000a017800a3000700df
:100740000cf0a70001f0a000ec0037006420e100ed
:1007500002003a00838f6c00ec0033000801be00f9
:100760000200be00e5003700140020001101370030
:10077000f4ff2f000f0137000001be00b900070091
:100780000470a70003f0a1006509b1001600320053
:100790000d0035006828e10006003500f0ff2f004d
:1007a000f1ff27000300e00013003b0001002800d8
:1007b0000000050000004000818048008502e9003b
:1007c000fcff3a0008003700f88f420002003c00ae
:1007d0008000eb00000005008100d1000080d30004
:1007e0008502e800fcff3a000300e00002003b0045
:1007f00060001000e0801800000006000001be004c
:10080000980007000470a70003f0a10003f8a300fc
:1008100013003a006509b1001000320009003500ec
:100820006928e100020035000100280000000500f1
:1008300000004000818048008502e900fcff3a008a
:1008400000000600f88f4200050035008100d1004d
:100850000080d3008502e800fcff3a00000006009b
:100860008000eb00000005000001eb00aa0007007b
:10087000040032000200200003f8230001f0a7006a
:100880005bff0700000006000400200000003700a6
:10089000889fbe008a9fbe008c1f78004f26dd0017
:1008a000850007008c0033006120e1004300320026
:1008b0006250e10041003e003e0039006420e1004a
:1008c0003c003200058255000f003b000402e800a6
:1008d00038003a00800f5300818f5b0035003400f0
:1008e0000800be0003f0a10001f0a60003f0a00084
:1008f0000cf0a7003fff070080003700060343000d
:1009000087834b000c4646000005530081855b0041
:10091000020033000a03be000c00a0000402e9003c
:10092000f6ff3b00850578000602430087824b00f6
:1009300004003a006000b80009f0a70001f0a00030
:100940006e0037000002520081825a000704e00066
:10095000040033000603430087834b008b05e90046
:10096000faff3700090578000604be000203be0046
:100970006011b80015000700e00f5200e08f5a0028
:100980000700350002003c000c08a3000400320000
:100990000601be0003f0a0000cf0a70015ff070041
:1009a0000a85680001f0a1000af0a70001f0a0008c
:1009b000520037000800be0050003700100220002f
:1009c0000cf0a60020438800500037008100200072
:1009d000618055000b003d000b00200061fe2f00e0
:1009e0000100e1001d00340082817100610164009a
:1009f0008904d1000884d3000000e800faff3a001f
:100a000071002000610064000300700002006000bb
:100a10000900320061044400e0844c000988a5000c
:100a2000050032008b05e8006808e10002003a008a
:100a30008904d1000884d300f20f20000258e1009d
:100a400005003d00c75ddd00f907b2008980750033
:100a500008007800000006000bf827008b007800e3
:100a600000000500c70ade00f107b200f50fb20072
:100a700008003200e1cf4200020032000170a00005
:100a800024000500810f70000100320004080500f9
:100a900044000500810f700002003a0014000500b8
:100aa0008502e9000000400081c04800fcff3b00d7
:100ab0000170a000240005000004be00e9ff07004b
:100ac0000003be000405be000200be00e5ff0700f3
:100ad000844f7500000006000200be006450e10073
:100ae000050036006420e100020036000968a3001a
:100af00001003a000800be000160a0004f06780027
:100b00004f05be004f04be0000000600f0ff2f009e
:100b1000f1ff2700f9ff3700889fbe008a9fbe00c3
:100b20000003be00cfff07008505780082815200d8
:100b3000020020006220e10004003a00f307b10047
:100b4000040035007718e100040035000600be00ff
:100b5000140037006000b8000f003700f50f2000c8
:100b6000faff2f008502d1000a85d3008301e90036
:100b7000fcff3b008184620000046500890f740063
:100b8000f2ff32008582ea000a85ea008184620071
:100b9000000465008dff070007f0a70001f0a0002a
:100ba0000081eb000200e0004f05be004f04be00d4
:100bb00000000600889fbe008a9fbe00841f780048
:100bc000bdff07004f00780011003300f0ff2f0039
:100bd000838f6c0006003b00040565000a00a70037
:100be0000800370009f0a6001000200008003700b8
:100bf000820f5400838f5c00030039001000200036
:100c000001003e000000200009f0a7000000ea00fb
:100c10004f05be004f04be000000e00000000600cb
:040c200000000500cb
:020000040000fa
:0200000401f009
:04001c00dfff000002
:020000040000fa
:0200000401f009
:040014005f00000089
:020000040000fa
:0200000401f009
:04001000620000008a
:020000040000fa
:0200000401f009
:04000c00820000006e
:020000040000fa
:04004800c8020000ea
:020000040000fa
:04005c00dc020000c2
:020000040000fa
:100c2400f4874700889fbe008a9fbe008c9fbe0049
:100c34008e1f7800bc428000cd42800018c0b300f3
:100c440002002000031724000c00be00c7fe0700aa
:100c54000000e000520134000e4380001043800085
:100c6400f042880001a02f000101b800a2b79f0044
:100c7400b3b79f000e38a30005003200f0ff2f0029
:100c840011032000800f5100818f59001e0136008e
:100c94000884fb000800440000004000c470de002b
:100ca400e1806000010040004002b0008980200023
:100cb400e94578000000eb00f2ff2f00f33120003b
:100cc4002fb29700bfb29700820f5200838f5a0051
:100cd40003003600200020000b04e00008013a0065
:100ce40008004000000040004577de00610767000f
:100cf4000e0040004002b000694578000000eb009f
:100d04008042eb0085e79f000a04e0000c003200fb
:100d140002002000031724000c00be0091fe07000f
:100d24000000e000e9003c00d0428000e142800085
:100d340090fe07000000e90011c0b30081e79f00a6
:100d44004200dd00008044001000be00c5fe070024
:100d5400c0b79f00d1b79f00770107000004e000ef
:100d6400bd0032000000eb00611680000100680045
:100d74006700600000806800601688009416800098
:100d8400614262006011b8000040800011408000a0
:100d940084bf9f0075fe07000fba97000000e000b3
:100da400a0003c000e4380000482fb00c4b79f00f7
:100db4006011b80020408000314080006bfe0700c5
:100dc4000000e0000b003400c270de00e18060002f
:100dd40010c0b300cfb29700858f5000e9003400f3
:100de40061006000000040000e10a1000e077000ba
:100df4000e438800e30067000000eb0001003200ae
:100e04002000200008044000080444004670de006e
:100e140061006000000444004802b00069407c00a6
:100e2400f2ff2f00f33120002fb29700bfb29700da
:100e3400820f5200838f5a0076003e000080fb0030
:100e440090b79f008000ea00cf08de00e1806000d8
:100e5400c308dd00601680000030a100008070002f
:100e6400601688000040eb000b04e000080032002c
:100e740010c0b300f2ff2f00130320002fb297001d
:100e8400bfb29700820f5200838f5a00bb00360016
:100e940061006000c400dd00601680000040a10015
:100ea4000080700060168800d9428000e84280000b
:100eb4000200200003112400090078008800780053
:100ec40028fe07000000e000270032008fe29700b0
:100ed4000504e0009e003a000a04e00026003a00ff
:100ee4005628ef005828ef00e18565004358dd00df
:100ef4000e30a1000e077000c45ddd000e40a1009d
:100f04008e857500610565004555dd000b50a10017
:100f14000b0575000801be0003007800820078000c
:100f2400d0428800e1428800cfb097004208dd003b
:100f34000a20a1000a0570001fb19700610061003a
:100f44004600dd000a60a1000a0570000a4388001b
:100f54004f0778004f06be004f05be004f04be0089
:100f64004f01b100000006008004eb0008002400db
:100f74000a04e000daff3200a2702d0033c223001d
:100f84000c00be009afd0700b0428800c1428800f0
:100f9400e18565004358dd000e30a1000e077000a6
:100fa400c45ddd000e40a1008e85750061056500fd
:100fb4004555dd000b50a1000b0575000801be006e
:100fc4000300780082007800d0428800e142880063
:100fd400cfb097004208dd000a20a1000a05700086
:100fe4001fb19700610061004600dd000a60a100a6
:100ff4000a0570000a4388004f0778004f06be00b8
:101004004f05be004f04be004f01b10000000600b2
:10101400d5ff37008040eb000080fb0090b79f00b5
:101024008aff37000482fb00c4b79f000e43800090
:10103400c270de00e180600010c0b300810f520076
:101044003d003400610060000e00a1000e07700036
:101054000e43880056ff37004fb09700dfb097006b
:10106400850007000004e0003eff3a000200200073
:10107400037824004fb09700dfb0970001fe07000b
:1010840000077800010378006011b8000e007800b2
:10109400860078008ebf9f00e6b79f00f6b79f00da
:1010a400b0fd07000fba9700efb297007fb3970027
:1010b4000000e0003c003d000400be0001f0a2007e
:1010c400cdfd07000000ea0027ff37000000eb0019
:1010d4000041eb0082e79f004200dd0000804400f5
:1010e4001000be00dffd0700c0b79f00d1b79f000e
:1010f400910007000004e0001aff3a00d6ff370011
:101104000000eb00f6fe37000884fb0008004400f2
:101114000000e80000004000c470de00e1806000d0
:10112400010040004002b00089802000e9457800b9
:101134000000eb00eafe37000040eb0061006000b5
:101144000e00a1000e0770000e43880018ff370040
:101154000200200003f823000902780088007800c8
:1011640004037800810378000600be0020fd070018
:10117400800478000104780057ff37000040eb003a
:1011840043ff37000040eb006100600000004000b6
:101194000e10a1000e0770000e43880015ff3700e3
:1011a4000044eb00acfe37000e00780086007800a7
:1011b40091fd0700ecfe3700400020001b000700f3
:1011c4002823ef002623ef00600020002019880068
:1011d4002223ef004004280000198800f0f82f00b3
:1011e400aa00b6000050a0005005880085a0a90000
:1011f40095a0a8005a28ef0000f82300e0428800d8
:1012040000000600000006005408e200feff320061
:1012140042a0a8005408a90081fe070042a0a9002a
:101224005408e200f8ff3200f9ff3700e400070039
:101234002042880031428800e40007008042880090
:1012440091428800d2000700e0418800f141880003
:10125400d20007004042880051428800d2000700b3
:101264000042880011428800d200070060428800d2
:101274007142880000000600889fbe008a1f780023
:101284000004be00e2418000f341800035fd070008
:101294001ac0b3000000e0000600320002428000e1
:1012a400134280000800be002efd07000000e0008d
:1012b40004003a000a4078004f0578004f04be004d
:1012c400000006000040eb004f0578004f04be000c
:1012d40000000600fbff3700889fbe008a1f7800cd
:1012e4000004be0042428000534280001dfd0700fe
:1012f4001ac0b3000000e000060032006242800021
:10130400734280000800be0016fd07000000e000e4
:1013140004003a000a4078004f0578004f04be00ec
:10132400000006000040eb004f0578004f04be00ab
:1013340000000600fbff37000003780004002000d3
:1013440005f82700058160008001eb00c011dd0075
:10135400020020000040eb00840f5100858f5900eb
:10136400010032000000060001007800f007b2001e
:1013740080007800060078000001be000281710040
:1013840002f0a7000201ea000201ea004f10de00a9
:1013940000000600000378000400200005f8270080
:1013a400058160008001eb00c011dd000200200017
:1013b4000040eb00840f5100858f5900010032007a
:1013c4000000060001007800f007b20080007800f9
:1013d400060078000001be000281710002f0a7003f
:1013e4000201ea000201ea004f10de0000000600dc
:1013f4004387ab0004003200103a80004c00de004a
:10140400640060002a003200e0062000303a8800c0
:1014140050002000203a8800a1092000320020005a
:1014240080072000337420008049780081497800c7
:101434008249780071052000120020006004200019
:10144400237420008049780081497800824978001b
:10145400c00720006019880000fe2f004016880095
:101464000200270001002300133a800003006100fa
:10147400810f5000fcff3a0042a7ab00feff320090
:101484004dff07001221ef00f0342c007008880093
:1014940000012000900888008500a9009500a8009c
:1014a400e0342c005008880013e1a80056ff070020
:1014b400a2092000810720003374200081497800ac
:1014c40082497800804978007105200012002000cc
:1014d400600420002374200080497800814978004a
:1014e400824978000000000000000000010027008d
:1014f400123a800002806000c3ff3200123a80007a
:0c15040002806000faff3a00bfff3700d1
:020000040000fa
:101510003c08000018000000000000000008000067
:101520003c00000002000000000080003f000000be
:101530000000000000000000000080003f000000ec
:1015400040400000000040000000c00040000000db
:101550008040000000404100000000004100000009
:101560001041000001000000010100000001000026
:1015700001010000000000005408000010000000fd
:1015800000000000640800000200000000000000ed
:041590000000000057
:020000040000fa
:101594000000200001f827000000060000002000e1
:1015a40001f82700000006000000200001f82f00c9
:1015b400000006000000200001f82f0000000600d3
:1015c4000000200001fc2f000000060000002000a5
:0815d40001fc2f0000000600dd
:00000001FF
