:020000040000fa
:04005c00ea020000b4
:020000040000fa
:04001000ea02000000
:020000040000fa
:04025c00ea020000b2
:020000040000fa
:04021000ea020000fe
:020000040000fa
:04027400ea0200009a
:020000040000fa
:04032400ea020000e9
:020000040000fa
:04035000ea020000bd
:020000040000fa
:04022c00ea020000e2
:020000040000fa
:04023c00ea020000d2
:020000040000fa
:04028000ea0200008e
:020000040000fa
:04028400ea0200008a
:020000040000fa
:04022800ea020000e6
:020000040000fa
:04027800ea02000096
:020000040000fa
:04029c00ea02000072
:020000040000fa
:04026000ea020000ae
:020000040000fa
:04026400ea020000aa
:020000040000fa
:04027000ea0200009e
:020000040000fa
:04027c00ea02000092
:020000040000fa
:04028800ea02000086
:020000040000fa
:04028c00ea02000082
:020000040000fa
:04029000ea0200007e
:020000040000fa
:04029400ea0200007a
:020000040000fa
:04029800ea02000076
:020000040000fa
:0402a000ea0200006e
:020000040000fa
:0402a400ea0200006a
:020000040000fa
:0402a800ea02000066
:020000040000fa
:0402ac00ea02000062
:020000040000fa
:0402b000ea0200005e
:020000040000fa
:0402b400ea0200005a
:020000040000fa
:0402b800ea02000056
:020000040000fa
:0402bc00ea02000052
:020000040000fa
:0402c000ea0200004e
:020000040000fa
:0402c400ea0200004a
:020000040000fa
:04023800ea020000d6
:020000040000fa
:0402c800ea02000046
:020000040000fa
:0402cc00ea02000042
:020000040000fa
:0402d000ea0200003e
:020000040000fa
:0402d400ea0200003a
:020000040000fa
:0402d800ea02000036
:020000040000fa
:0402dc00ea02000032
:020000040000fa
:0402e000ea0200002e
:020000040000fa
:0402e400ea0200002a
:020000040000fa
:0402e800ea02000026
:020000040000fa
:0402ec00ea02000022
:020000040000fa
:0402f000ea0200001e
:020000040000fa
:0402f400ea0200001a
:020000040000fa
:0402f800ea02000016
:020000040000fa
:0402fc00ea02000012
:020000040000fa
:04030000ea0200000d
:020000040000fa
:04030400ea02000009
:020000040000fa
:04030800ea02000005
:020000040000fa
:04031400ea020000f9
:020000040000fa
:04031800ea020000f5
:020000040000fa
:04031c00ea020000f1
:020000040000fa
:04032000ea020000ed
:020000040000fa
:04032800ea020000e5
:020000040000fa
:04033000ea020000dd
:020000040000fa
:04033400ea020000d9
:020000040000fa
:04033800ea020000d5
:020000040000fa
:04033c00ea020000d1
:020000040000fa
:04034000ea020000cd
:020000040000fa
:04034400ea020000c9
:020000040000fa
:04034800ea020000c5
:020000040000fa
:04026c00ea020000a2
:020000040000fa
:04030c00ea02000001
:020000040000fa
:04034c00ea020000c1
:020000040000fa
:04021800ea020000f6
:020000040000fa
:04023000ea020000de
:020000040000fa
:04024000ea020000ce
:020000040000fa
:04020c00ea02000002
:020000040000fa
:04031000ea020000fd
:020000040000fa
:04020800ea02000006
:020000040000fa
:04021c00ea020000f2
:020000040000fa
:04022000ea020000ee
:020000040000fa
:04022400ea020000ea
:020000040000fa
:04026800ea020000a6
:020000040000fa
:04024c00ea020000c2
:020000040000fa
:04025000ea020000be
:020000040000fa
:04021400ea020000fa
:020000040000fa
:04023400c8020000fc
:020000040000fa
:04024400ea020000ca
:020000040000fa
:04024800ea020000c6
:020000040000fa
:04032c00ea020000e1
:020000040000fa
:04025400ea020000ba
:020000040000fa
:04025800ea020000b6
:020000040000fa
:04007400ea0200009c
:020000040000fa
:04012400ea020000eb
:020000040000fa
:04015000ea020000bf
:020000040000fa
:04002c00ea020000e4
:020000040000fa
:04003c00ea020000d4
:020000040000fa
:04008000ea02000090
:020000040000fa
:04008400ea0200008c
:020000040000fa
:04002800ea020000e8
:020000040000fa
:04007800ea02000098
:020000040000fa
:04009c00ea02000074
:020000040000fa
:04006000ea020000b0
:020000040000fa
:04006400ea020000ac
:020000040000fa
:04007000ea020000a0
:020000040000fa
:04007c00ea02000094
:020000040000fa
:04008800ea02000088
:020000040000fa
:04008c00ea02000084
:020000040000fa
:04009000ea02000080
:020000040000fa
:04009400ea0200007c
:020000040000fa
:04009800ea02000078
:020000040000fa
:0400a000ea02000070
:020000040000fa
:0400a400ea0200006c
:020000040000fa
:0400a800ea02000068
:020000040000fa
:0400ac00ea02000064
:020000040000fa
:0400b000ea02000060
:020000040000fa
:0400b400ea0200005c
:020000040000fa
:0400b800ea02000058
:020000040000fa
:0400bc00ea02000054
:020000040000fa
:0400c000ea02000050
:020000040000fa
:0400c400ea0200004c
:020000040000fa
:04003800ea020000d8
:020000040000fa
:0400c800ea02000048
:020000040000fa
:0400cc00ea02000044
:020000040000fa
:0400d000ea02000040
:020000040000fa
:0400d400ea0200003c
:020000040000fa
:0400d800ea02000038
:020000040000fa
:0400dc00ea02000034
:020000040000fa
:0400e000ea02000030
:020000040000fa
:0400e400ea0200002c
:020000040000fa
:0400e800ea02000028
:020000040000fa
:0400ec00ea02000024
:020000040000fa
:0400f000ea02000020
:020000040000fa
:0400f400ea0200001c
:020000040000fa
:0400f800ea02000018
:020000040000fa
:0400fc00ea02000014
:020000040000fa
:04010000ea0200000f
:020000040000fa
:04010400ea0200000b
:020000040000fa
:04010800ea02000007
:020000040000fa
:04011400ea020000fb
:020000040000fa
:04011800ea020000f7
:020000040000fa
:04011c00ea020000f3
:020000040000fa
:04012000ea020000ef
:020000040000fa
:04012800ea020000e7
:020000040000fa
:04013000ea020000df
:020000040000fa
:04013400ea020000db
:020000040000fa
:04013800ea020000d7
:020000040000fa
:04013c00ea020000d3
:020000040000fa
:04014000ea020000cf
:020000040000fa
:04014400ea020000cb
:020000040000fa
:04014800ea020000c7
:020000040000fa
:04006c00ea020000a4
:020000040000fa
:04010c00ea02000003
:020000040000fa
:04014c00ea020000c3
:020000040000fa
:04001800ea020000f8
:020000040000fa
:04003000ea020000e0
:020000040000fa
:04004000ea020000d0
:020000040000fa
:04000c00ea02000004
:020000040000fa
:04011000ea020000ff
:020000040000fa
:04000800ea02000008
:020000040000fa
:04001c00ea020000f4
:020000040000fa
:04002000ea020000f0
:020000040000fa
:04002400ea020000ec
:020000040000fa
:04006800ea020000a8
:020000040000fa
:04004c00ea020000c4
:020000040000fa
:04005000ea020000c0
:020000040000fa
:04001400ea020000fc
:020000040000fa
:04004400ea020000cc
:020000040000fa
:04004800ea020000c8
:020000040000fa
:04012c00ea020000e3
:020000040000fa
:04005400ea020000bc
:020000040000fa
:04005800ea020000b8
:020000040000fa
:080000000002040000000000f2
:020000040000fa
:100400006f8320000eff20000e0188000000000016
:10041000000020000000e000020032000001200087
:1004200020028800140007000b0207000000e00013
:1004300003003a00609a200001002000020037000b
:100440000000200001002000810f70000100320038
:1004500014000700000020000000e000020032004d
:1004600000000200000000000e0902000000000071
:100470000040da000000fe004440a9000000200017
:100480000000e0000300320000002000a00188000e
:100490004440a800000006008a1f78008b1f7800e7
:1004a0000000060091018800800478000000eb0045
:1004b0001a003700e284440032a0b4009905ba0063
:1004c000e284440032a0b4009906ba00e2844400f9
:1004d00032a0b4000006eb00476fde00fd07b2005b
:1004e000636ce10003003a00ebff07000000eb0043
:1004f0000a003700606ce10004003a00005deb0088
:100500008b05e900fdff3e00040037006168e10053
:10051000010032000086eb000b00070019c7ba008b
:100520001905ba000e04e00003003a000a00e000da
:10053000e0ff3a0000000600fe07b2009e018800be
:100540008a047800f5ff3700395dba008b05e900b1
:100550000c003200295dba008b05e900080032006a
:100560000c00e00003003a00e284440032a0b40032
:10057000f5ff370019ddba008b05e900faff3a00f4
:100580008904e800e184440032a0b40000000600c1
:100590003600f800809fbe00829fbe00849fbe0090
:1005a000869fbe003400f80000002000a0018800f3
:1005b0008460a900cf0107003400f9004f03be009a
:1005c0004f02be004f01be004f00be003600f900d2
:1005d000004006000040da000000fe0003f0a20028
:1005e000889fbe008a9fbe008c1f78000c01070008
:1005f000130133006450e1004f0032006420e10039
:100600005200320003826c0007003b000905d00055
:100610000306d000820f54000c065d000200390072
:1006200002003200890178000306780085825500b7
:1006300004003d000003fd008103fd008502ea0087
:100640008b854200840f720002003b0060001000a6
:10065000e08018006011b8000005eb007a28e10086
:100660000a00390006007800c75ddd00f707b20018
:10067000878075002d003700828171000a017800a3
:10068000610560008180d1000080d3008502e9000f
:10069000f9ff3b00060440008784480002003b004d
:1006a00060041400e0841c000988a30007003200e5
:1006b0008a81710082817100610164008904d10026
:1006c0000884d3008b05e800170037000978a300e1
:1006d00013003a000b00e000130034008b05e90022
:1006e0000804440089844c000a4474000978a3007b
:1006f0000d003a000b00e000070034008b05e90014
:100700000804440089844c0001003a000b002000da
:100710000978a300f7ff32000001eb000200370068
:10072000828171000a017800820007000cf0a700a6
:1007300001f0a000cb0037006420e10002003a0085
:10074000838f6c00cb0033000801be000200be00a6
:10075000c40037001400200024013700f4ff2f00ec
:10076000220137000001be00980007000470a700b6
:1007700003f0a10003f8a30013003a006509b100db
:1007800010003200090035006928e1000200350040
:1007900001002800000005000000400081804800a2
:1007a0008502e900fcff3a0000000600f88f4200d5
:1007b000050035008100d1000080d3008502e800eb
:1007c000fcff3a00000006008000eb00000005007e
:1007d0000001eb00de0007000400320002002000f0
:1007e00003f8230001f0a7007cff070000000600cb
:1007f0000400200000003700889fbe008a9fbe00d2
:100800008c1f78004f26dd00850007008c00330028
:100810006120e100430032006250e10041003e00ef
:100820003e0039006420e1003c00320005825500a2
:100830000f003b000402e80038003a00800f53002c
:10084000818f5b00350034000800be0003f0a1007a
:1008500001f0a60003f0a0000cf0a70060ff070065
:10086000800037000603430087834b000c46460098
:100870000005530081855b00020033000a03be00bf
:100880000c00a0000402e900f6ff3b00850578009b
:100890000602430087824b0004003a006000b80063
:1008a00009f0a70001f0a0006e003700000252001e
:1008b00081825a000704e00004003300060343006d
:1008c00087834b008b05e900faff370009057800a4
:1008d0000604be000203be006011b8001500070048
:1008e000e00f5200e08f5a000700350002003c0084
:1008f0000c08a300040032000601be0003f0a000b3
:100900000cf0a70036ff07000a85680001f0a1007f
:100910000af0a70001f0a000520037000800be0056
:1009200050003700100220000cf0a600a041880003
:100930005000370081002000618055000b003d0011
:100940000b00200061fe2f000100e1001d003400bb
:1009500082817100610164008904d1000884d300a0
:100960000000e800faff3a00710020006100640016
:1009700003007000020060000900320061044400be
:10098000e0844c000988a500050032008b05e800d2
:100990006808e10002003a008904d1000884d3000d
:1009a000f20f20000258e10005003d00c75ddd00a8
:1009b000f907b20089807500080078000000060081
:1009c0000bf827008b00780000000500c70ade0046
:1009d000f107b200f50fb20008003200e1cf42008b
:1009e000020032000170a00024000500810f700099
:1009f000010032000408050044000500810f70006a
:100a000002003a00140005008502e90000004000e1
:100a100081c04800fcff3b000170a00024000500dd
:100a20000004be00e9ff07000003be000405be008d
:100a30000200be00e5ff0700844f750000000600bd
:100a40000200be006450e100050036006420e100b1
:100a5000020036000968a30001003a000800be0049
:100a60000160a0004f0678004f05be004f04be0095
:100a700000000600f0ff2f00f1ff2700f9ff37000c
:100a8000889fbe008a9fbe008c1f7800e4ff07008d
:100a9000ebff330003866c006450e1002400320059
:100aa0006420e100270032006150e10022003200a2
:100ab0006120e100210032008b854200eb07b1008c
:100ac0000134b800003ab8000804420089844a00a2
:100ad000013ab8000030b8008880400009014a009f
:100ae00004003300000040008180480002014900fa
:100af0008b05e900c909dd008301700001003200a7
:100b000013002000c814de004814dd004709de0091
:100b10001200b200c808de000884700085ff0700dc
:100b200001f0a1000cf0a70001f0a000cdff3700fc
:100b30006120e100cfff32000801be000200be00cc
:100b4000f7ff37006150e100fcff3a00c9ff3700b2
:100b5000889fbe008a9fbe000003be009bff070067
:100b60008505780082815200020020006220e100a9
:100b700004003a00f307b100040035007718e100e3
:100b8000040035000600be00140037006000b80005
:100b90000f003700f50f2000faff2f008502d1006b
:100ba0000a85d3008301e900fcff3b0081846200d9
:100bb00000046500890f7400f2ff32008582ea00ac
:100bc0000a85ea00818462000004650059ff07007d
:100bd00007f0a70001f0a0000081eb000200e00098
:100be0004f05be004f04be0000000600889fbe00f7
:100bf0008a9fbe00841f780089ff07004f0078009d
:100c000011003300f0ff2f00838f6c0006003b00c3
:100c1000040565000a00a7000800370009f0a600d7
:100c20001000200008003700820f5400838f5c0002
:100c3000030039001000200001003e0000002000e9
:100c400009f0a7000000ea004f05be004f04be00f7
:0c0c50000000e0000000060000000500ad
:020000040000fa
:0200000401f009
:04001c00dfff000002
:020000040000fa
:0200000401f009
:040014005f00000089
:020000040000fa
:0200000401f009
:04001000620000008a
:020000040000fa
:0200000401f009
:04000c00820000006e
:020000040000fa
:04003400c8020000fe
:020000040000fa
:100c5c00889fbe008a1f7800024478008344780085
:100c6c00040578006011b800b9fe07000000e00030
:100c7c000400340010c0b30088cf540004003600c8
:100c8c00004d78004f0578004f04be0000000600b0
:100c9c000040eb00004d7800faff3700889fbe0043
:100cac008a1f780082447800034478000405780099
:100cbc006011b800a6fe07000000e000040034003c
:100ccc0010c0b30088cf540004003600004d7800eb
:100cdc004f0578004f04be00000006000040eb00fa
:100cec00004d7800faff3700889fbe008a9fbe0037
:100cfc008c9fbe008e1f78004841800059418000b7
:100d0c0002f02300c37124000800be0059ff070045
:100d1c00acfe07000005be000f0107000004e00058
:100d2c007d0032008005eb006b4188009c16800032
:100d3c0061466600d202d500e14660007a4180002f
:100d4c00614765006011b8000041800011418000ce
:100d5c007ffe07000000e0000400340010c0b30068
:100d6c008ecf56008600360030e8b7006011b80010
:100d7c00204180003141800075fe07000000e0003a
:100d8c000400340010c0b3008ecf5600790031003f
:100d9c0031e8b7000a07d100614767006011b8005d
:100dac00c0408000d140800069fe07000000e000d8
:100dbc000400340010c0b3008e4f5600760036008d
:100dcc0032e8b7006011b800e0408000f1408000cc
:100ddc005ffe07000000e0000400340010c0b30008
:100dec008e4f56006900310033e8b7003208e2003c
:100dfc0027003200d2cc2c00c3dc23008802780000
:100e0c00090278000500780084007800f0fd0700e6
:100e1c000004be000200200003f823000800be00fe
:100e2c004bfe07000000e00029003c006011b800f8
:100e3c000800be0044fe07000000e0005900350029
:100e4c00880178000901780003007800820078009e
:100e5c004041880051418800bb0e8800e186660045
:100e6c000a00a1000a857600610666000c064600a1
:100e7c000a10a1000a0576007a4188004f07780015
:100e8c004f06be004f05be004f04be00000006001a
:100e9c003008e200dfff3200d2cc2c00c3dc230090
:100eac008802780009027800050078008400780038
:100ebc00c8fd07000004be000200200003f8230058
:100ecc000800be0022fe07000000e000d7ff34003f
:100edc002828ef0000f8230050418800bb0e880042
:100eec00e18666000a00a1000a85760061066600ac
:100efc000c0646000a10a1000a0576007a4188000b
:100f0c004f0778004f06be004f05be004f04be00d1
:100f1c0000000600deff37000a00be005e0007007e
:100f2c000004e0007fff3a00020020000378240058
:100f3c000a00be002bfe0700800678000106780030
:100f4c000d0578008c0578006011b8000d00780054
:100f5c008c007800fcfd07000000e00022003d0042
:100f6c000a00be0001f0a200fbfd07008005ea00ac
:100f7c006dff37000040eb0031e8b70085ff37000c
:100f8c000040eb0030e8b70078ff37000040eb0082
:100f9c0033e8b70095ff37000040eb0032e8b700ac
:100fac0088ff37002828ef002a28ef00bb0e8800a6
:100fbc00e18666000a00a1000a85760061066600db
:100fcc000c0646000a10a1000a0576007a4188003a
:100fdc004f0778004f06be004f05be004f04be0001
:100fec0000000600aaff37000d0078008c00780086
:100ffc00d9fd0700800578004bff3700400020002a
:10100c001200070010012000400e88006000200034
:10101c00500e8800202b2f00600e8800100020003e
:10102c00700e880070082000800e880000e22400fa
:10103c00200e8800300e880030002800000e88003a
:10104c00000006000000060027ff3700db00070049
:10105c004040880051408800db000700a040880019
:10106c00b1408800c900070000408800114088008a
:10107c00c90007006040880071408800c900070063
:10108c002040880031408800c9000700804088005b
:10109c009140880000000600889fbe008a1f7800df
:1010ac000004be000240800013408000a6fd070033
:1010bc001ac0b3000000e00006003200224080009d
:1010cc00334080000800be009ffd07000000e000d8
:1010dc0004003a000a4078004f0578004f04be0027
:1010ec00000006000040eb004f0578004f04be00e6
:1010fc0000000600fbff3700889fbe008a1f7800a7
:10110c000004be0062408000734080008efd07002a
:10111c001ac0b3000000e0000600320082408000dc
:10112c00934080000800be0087fd07000000e0002f
:10113c0004003a000a4078004f0578004f04be00c6
:10114c00000006000040eb004f0578004f04be0085
:10115c0000000600fbff37000003780004002000ad
:10116c0005f82700058160008001eb00c011dd004f
:10117c00020020000040eb00840f5100858f5900c5
:10118c00010032000000060001007800f007b200f8
:10119c0080007800060078000001be00028171001a
:1011ac0002f0a7000201ea000201ea004f10de0083
:1011bc0000000600000378000400200005f827005a
:1011cc00058160008001eb00c011dd0002002000f1
:1011dc000040eb00840f5100858f59000100320054
:1011ec000000060001007800f007b20080007800d3
:1011fc00060078000001be000281710002f0a70019
:10120c000201ea000201ea004f10de0000000600b5
:10121c004387ab0004003200103a80004c00de0023
:10122c00640060002f003200e0062000303a880095
:10123c0050002000203a8800a10920003200200034
:10124c0080072000337420008049780081497800a1
:10125c0082497800710520001200200060042000f3
:10126c0023742000804978008149780082497800f5
:10127c00400c2000601988009826ef00f0ff230036
:10128c00401688000100270000002300133a80005c
:10129c0003816000800f5100fcff3a0042a7ab00b5
:1012ac00feff320055ff07000421ef00f0ff28007d
:1012bc00a400b60000d0a000200588008460a9001e
:1012cc009460a800f0342c00100888000001200065
:1012dc0020088800e0342c000008880005e1a800f4
:1012ec00ffff3700a2092000810720003374200083
:1012fc008149780082497800804978007105200086
:10130c001200200060042000237420008049780023
:10131c00814978008249780000000000000000003c
:10132c0000002700123a800082006000beff3200ed
:10133c00123a800082006000faff3a00baff3700d0
:020000040000fa
:10134c0018080000100000000200000000008000df
:10135c003f0000000000000000803f000000000083
:10136c000000000000080000180000000000000051
:10137c00280800000c0000000000000034080000e9
:0c138c0002000000000000000000000053
:020000040000fa
:101398000000200001f827000000060000002000df
:1013a80001f82700000006000000200001f82f00c7
:1013b800000006000000200001f82f0000000600d1
:1013c8000000200001fc2f000000060000002000a3
:0813d80001fc2f0000000600db
:00000001FF
