:020000040000fa
:04005c00920300000b
:020000040000fa
:040010009203000057
:020000040000fa
:04025c009203000009
:020000040000fa
:040210009203000055
:020000040000fa
:0402740092030000f1
:020000040000fa
:040324009203000040
:020000040000fa
:040350009203000014
:020000040000fa
:04022c009203000039
:020000040000fa
:04023c009203000029
:020000040000fa
:0402800092030000e5
:020000040000fa
:0402840092030000e1
:020000040000fa
:04022800920300003d
:020000040000fa
:0402780092030000ed
:020000040000fa
:04029c0092030000c9
:020000040000fa
:040260009203000005
:020000040000fa
:040264009203000001
:020000040000fa
:0402700092030000f5
:020000040000fa
:04027c0092030000e9
:020000040000fa
:0402880092030000dd
:020000040000fa
:04028c0092030000d9
:020000040000fa
:0402900092030000d5
:020000040000fa
:0402940092030000d1
:020000040000fa
:0402980092030000cd
:020000040000fa
:0402a00092030000c5
:020000040000fa
:0402a40092030000c1
:020000040000fa
:0402a80092030000bd
:020000040000fa
:0402ac0092030000b9
:020000040000fa
:0402b00092030000b5
:020000040000fa
:0402b40092030000b1
:020000040000fa
:0402b80092030000ad
:020000040000fa
:0402bc0092030000a9
:020000040000fa
:0402c00092030000a5
:020000040000fa
:0402c40092030000a1
:020000040000fa
:04023800920300002d
:020000040000fa
:0402c800920300009d
:020000040000fa
:0402cc009203000099
:020000040000fa
:0402d0009203000095
:020000040000fa
:0402d4009203000091
:020000040000fa
:0402d800920300008d
:020000040000fa
:0402dc009203000089
:020000040000fa
:0402e0009203000085
:020000040000fa
:0402e4009203000081
:020000040000fa
:0402e800920300007d
:020000040000fa
:0402ec009203000079
:020000040000fa
:0402f0009203000075
:020000040000fa
:0402f4009203000071
:020000040000fa
:0402f800920300006d
:020000040000fa
:0402fc009203000069
:020000040000fa
:040300009203000064
:020000040000fa
:040304009203000060
:020000040000fa
:04030800920300005c
:020000040000fa
:040314009203000050
:020000040000fa
:04031800920300004c
:020000040000fa
:04031c009203000048
:020000040000fa
:040320009203000044
:020000040000fa
:04032800920300003c
:020000040000fa
:040330009203000034
:020000040000fa
:040334009203000030
:020000040000fa
:04033800920300002c
:020000040000fa
:04033c009203000028
:020000040000fa
:040340009203000024
:020000040000fa
:040344009203000020
:020000040000fa
:04034800920300001c
:020000040000fa
:04026c0092030000f9
:020000040000fa
:04030c009203000058
:020000040000fa
:04034c009203000018
:020000040000fa
:04021800920300004d
:020000040000fa
:040230009203000035
:020000040000fa
:040240009203000025
:020000040000fa
:04020c009203000059
:020000040000fa
:040310009203000054
:020000040000fa
:04020800920300005d
:020000040000fa
:04021c009203000049
:020000040000fa
:040220009203000045
:020000040000fa
:040224009203000041
:020000040000fa
:0402680092030000fd
:020000040000fa
:04024c009203000019
:020000040000fa
:040250009203000015
:020000040000fa
:040214009203000051
:020000040000fa
:04023400460300007d
:020000040000fa
:040244009203000021
:020000040000fa
:04024800920300001d
:020000040000fa
:04032c009203000038
:020000040000fa
:04025400c8020000dc
:020000040000fa
:040258001e03000081
:020000040000fa
:0400740092030000f3
:020000040000fa
:040124009203000042
:020000040000fa
:040150009203000016
:020000040000fa
:04002c00920300003b
:020000040000fa
:04003c00920300002b
:020000040000fa
:0400800092030000e7
:020000040000fa
:0400840092030000e3
:020000040000fa
:04002800920300003f
:020000040000fa
:0400780092030000ef
:020000040000fa
:04009c0092030000cb
:020000040000fa
:040060009203000007
:020000040000fa
:040064009203000003
:020000040000fa
:0400700092030000f7
:020000040000fa
:04007c0092030000eb
:020000040000fa
:0400880092030000df
:020000040000fa
:04008c0092030000db
:020000040000fa
:0400900092030000d7
:020000040000fa
:0400940092030000d3
:020000040000fa
:0400980092030000cf
:020000040000fa
:0400a00092030000c7
:020000040000fa
:0400a40092030000c3
:020000040000fa
:0400a80092030000bf
:020000040000fa
:0400ac0092030000bb
:020000040000fa
:0400b00092030000b7
:020000040000fa
:0400b40092030000b3
:020000040000fa
:0400b80092030000af
:020000040000fa
:0400bc0092030000ab
:020000040000fa
:0400c00092030000a7
:020000040000fa
:0400c40092030000a3
:020000040000fa
:04003800920300002f
:020000040000fa
:0400c800920300009f
:020000040000fa
:0400cc00920300009b
:020000040000fa
:0400d0009203000097
:020000040000fa
:0400d4009203000093
:020000040000fa
:0400d800920300008f
:020000040000fa
:0400dc00920300008b
:020000040000fa
:0400e0009203000087
:020000040000fa
:0400e4009203000083
:020000040000fa
:0400e800920300007f
:020000040000fa
:0400ec00920300007b
:020000040000fa
:0400f0009203000077
:020000040000fa
:0400f4009203000073
:020000040000fa
:0400f800920300006f
:020000040000fa
:0400fc00920300006b
:020000040000fa
:040100009203000066
:020000040000fa
:040104009203000062
:020000040000fa
:04010800920300005e
:020000040000fa
:040114009203000052
:020000040000fa
:04011800920300004e
:020000040000fa
:04011c00920300004a
:020000040000fa
:040120009203000046
:020000040000fa
:04012800920300003e
:020000040000fa
:040130009203000036
:020000040000fa
:040134009203000032
:020000040000fa
:04013800920300002e
:020000040000fa
:04013c00920300002a
:020000040000fa
:040140009203000026
:020000040000fa
:040144009203000022
:020000040000fa
:04014800920300001e
:020000040000fa
:04006c0092030000fb
:020000040000fa
:04010c00920300005a
:020000040000fa
:04014c00920300001a
:020000040000fa
:04001800920300004f
:020000040000fa
:040030009203000037
:020000040000fa
:040040009203000027
:020000040000fa
:04000c00920300005b
:020000040000fa
:040110009203000056
:020000040000fa
:04000800920300005f
:020000040000fa
:04001c00920300004b
:020000040000fa
:040020009203000047
:020000040000fa
:040024009203000043
:020000040000fa
:0400680092030000ff
:020000040000fa
:04004c00920300001b
:020000040000fa
:040050009203000017
:020000040000fa
:040014009203000053
:020000040000fa
:040044009203000023
:020000040000fa
:04004800920300001f
:020000040000fa
:04012c00920300003a
:020000040000fa
:080000000002040000000000f2
:020000040000fa
:10040000af9120000eff20000e01880000000000c8
:10041000000020000000e000020032000001200087
:100420002002880014000700c00007000000e00060
:1004300003003a00e05420000100200002003700d1
:100440000000200001002000810f70000100320038
:1004500014000700000020000000e000020032004d
:100460000000020000000000b004020000000000d4
:100470000040da000000fe004440a9000000200017
:100480000000e0000300320000002000a00188000e
:100490004440a800000006008a1f78008b1f7800e7
:1004a0000000060091018800800478000000eb0045
:1004b0001a003700e284440032a0b4009905ba0063
:1004c000e284440032a0b4009906ba00e2844400f9
:1004d00032a0b4000006eb00476fde00fd07b2005b
:1004e000636ce10003003a00ebff07000000eb0043
:1004f0000a003700606ce10004003a00005deb0088
:100500008b05e900fdff3e00040037006168e10053
:10051000010032000086eb000b00070019c7ba008b
:100520001905ba000e04e00003003a000a00e000da
:10053000e0ff3a0000000600fe07b2009e018800be
:100540008a047800f5ff3700395dba008b05e900b1
:100550000c003200295dba008b05e900080032006a
:100560000c00e00003003a00e284440032a0b40032
:10057000f5ff370019ddba008b05e900faff3a00f4
:100580008904e800e184440032a0b40000000600c1
:1005900000a0fe0001448000104480008560a90096
:1005a0002202ab0019003200808050008180ea00f6
:1005b000f107b2001a0032008100e9000380200038
:1005c0000044800032118000827178008008ec00c5
:1005d000f007b200004488002202ab000b0032009a
:1005e0000100e0000e0032008100e90000448000bc
:1005f00032118000827178008008ec00f007b200b0
:10060000004488002202ab00f5ff3a002222ab0032
:10061000010032002222a9000080fe0000400600f6
:10062000301180002202ab00f8ff32003011800050
:100630002202ab00faff3a00f4ff370000a0fe00f0
:10064000304880008580a9002322ab000c003a00ce
:100650000409e3000a00320042882000e2407800ea
:100660008180fb00211188000000e800f007b20043
:100670002322ab0002003a000409e300f7ff3a002e
:10068000304888000080fe00004006003600f80078
:10069000809fbe00829fbe00849fbe00869fbe00da
:1006a0003400f80000002000a00188008460a90048
:1006b0001809ed00c048880003003a0040062000f9
:1006c000c04888001009a8008460ab000e003a0002
:1006d00042a0a80042c0a9001209ab000a003a00db
:1006e0001009ab00050032001209a8001009a9008a
:1006f000100007001009ab00fbff3a001209a90027
:1007000042c0a80042a0a9003400f9004f03be0077
:100710004f02be004f01be004f00be003600f90080
:10072000004006000040da000000fe000000050066
:020000040000fa
:04005400c8020000de
:020000040000fa
:040058001e03000083
:020000040000fa
:0200000401f009
:04001c00dfff000002
:020000040000fa
:0200000401f009
:040014005f00000089
:020000040000fa
:0200000401f009
:04001000620000008a
:020000040000fa
:0200000401f009
:04000c00820000006e
:020000040000fa
:04003400460300007f
:020000040000fa
:1007300000000600a5902000954278000540e800e2
:10074000614060000ae9b7002202ab001d003200e0
:1007500014028000048ab200040eb2000400780083
:1007600042a0b60000448000114480008560a900ca
:100770002202ab0010003200810050008180ea00ac
:10078000f107b2000380200008003200321180001f
:10079000827178000000e800f007b2002202ab008e
:1007a000050032008100e900f8ff3a0031118000b5
:1007b0002202ab00fdff3a000044880004007800ec
:1007c00042a0b600004480008208e30042003200ec
:1007d00010448000018020006140780008e9b700e3
:1007e000114480008100e800f107b2001144880044
:1007f00014e9b7000504e000220032000040e800e0
:1008000009e9b7008080fb0061168800214880005c
:1008100031488000214880004288200000f17800a3
:100820000100e800f007b2002048880013028000b1
:10083000038ab200030eb2000300780042a0b600a3
:10084000304880008580a9002322ab0009003a00cf
:100850000409e30007003200e24078008180fb00d9
:10086000211188000000e800f007b2002322ab004d
:10087000f7ff3200304888000300780042a0b6003d
:100880000000060009e9b7008080fb0061168800bf
:1008900021488000314880002148800042882000a3
:1008a00000f178000100e800f007b200204888005d
:1008b00013028000038ab200030eb2000300780026
:1008c00042a0b600304880008580a9002322ab00fa
:1008d000dfff3200e7ff37002222ab0001003200c9
:1008e0002222a90014c9bf0008e9b700c1ff3700e0
:1008f00010c0b3000ee9b70040c6b3000fe9b7005f
:10090000104120004011880080002800001188005c
:10091000803fb0001011880080ff2f00aa00b600b1
:100920005000b300500588008580a9009580a8007c
:10093000f1ff280040058000808060000000250055
:1009400001007000400588008560a9009560a8003e
:10095000000006002302ab00feff3200000006008c
:100960004387ab0004003200103a80004c00de00e8
:100970006400600032003200e0062000303a880057
:1009800050002000203a8800a109200032002000f9
:100990008007200033742000804978008149780066
:1009a00082497800710520001200200060042000b8
:1009b00023742000804978008149780082497800ba
:1009c000c00f200060198800000120002035880039
:1009d000003020008036880000c02f0040168800bc
:1009e0000100270000002300133a8000038160000b
:1009f000800f5100fcff3a0042a7ab00feff32001f
:100a0000bbff07000421ef00f0ff2800a400b600a0
:100a100000d0a000200588008460a9009460a80090
:100a2000f0342c0010088800000120002008880005
:100a3000e0342c000008880005e1a800ffff370023
:100a4000a20920008107200033742000814978002a
:100a5000824978008049780071052000120020004a
:100a600060042000237420008049780081497800c8
:100a7000824978000000000000000000000027000c
:100a8000123a800082006000bbff3200123a800000
:0c0a900082006000faff3a00b7ff370058
:020000040000fa
:100a9c000008000084000000000000008408000032
:100aac008400000000000000160900000400000093
:100abc00020000000c090100000000000809000001
:0c0acc000e000000000000000000000010
:00000001FF
