:020000040000fa
:04005c00da020000c4
:020000040000fa
:04001000da02000010
:020000040000fa
:04025c00da020000c2
:020000040000fa
:04021000da0200000e
:020000040000fa
:04027400da020000aa
:020000040000fa
:04032400da020000f9
:020000040000fa
:04035000da020000cd
:020000040000fa
:04022c00da020000f2
:020000040000fa
:04023c00da020000e2
:020000040000fa
:04028000da0200009e
:020000040000fa
:04028400da0200009a
:020000040000fa
:04022800da020000f6
:020000040000fa
:04027800da020000a6
:020000040000fa
:04029c00da02000082
:020000040000fa
:04026000da020000be
:020000040000fa
:04026400da020000ba
:020000040000fa
:04027000da020000ae
:020000040000fa
:04027c00da020000a2
:020000040000fa
:04028800da02000096
:020000040000fa
:04028c00da02000092
:020000040000fa
:04029000da0200008e
:020000040000fa
:04029400da0200008a
:020000040000fa
:04029800da02000086
:020000040000fa
:0402a000da0200007e
:020000040000fa
:0402a400da0200007a
:020000040000fa
:0402a800da02000076
:020000040000fa
:0402ac00da02000072
:020000040000fa
:0402b000da0200006e
:020000040000fa
:0402b400da0200006a
:020000040000fa
:0402b800da02000066
:020000040000fa
:0402bc00da02000062
:020000040000fa
:0402c000da0200005e
:020000040000fa
:0402c400da0200005a
:020000040000fa
:04023800da020000e6
:020000040000fa
:0402c800da02000056
:020000040000fa
:0402cc00da02000052
:020000040000fa
:0402d000da0200004e
:020000040000fa
:0402d400da0200004a
:020000040000fa
:0402d800da02000046
:020000040000fa
:0402dc00da02000042
:020000040000fa
:0402e000da0200003e
:020000040000fa
:0402e400da0200003a
:020000040000fa
:0402e800da02000036
:020000040000fa
:0402ec00da02000032
:020000040000fa
:0402f000da0200002e
:020000040000fa
:0402f400da0200002a
:020000040000fa
:0402f800da02000026
:020000040000fa
:0402fc00da02000022
:020000040000fa
:04030000da0200001d
:020000040000fa
:04030400da02000019
:020000040000fa
:04030800da02000015
:020000040000fa
:04031400da02000009
:020000040000fa
:04031800da02000005
:020000040000fa
:04031c00da02000001
:020000040000fa
:04032000da020000fd
:020000040000fa
:04032800da020000f5
:020000040000fa
:04033000da020000ed
:020000040000fa
:04033400da020000e9
:020000040000fa
:04033800da020000e5
:020000040000fa
:04033c00da020000e1
:020000040000fa
:04034000da020000dd
:020000040000fa
:04034400da020000d9
:020000040000fa
:04034800da020000d5
:020000040000fa
:04026c00da020000b2
:020000040000fa
:04030c00da02000011
:020000040000fa
:04034c00da020000d1
:020000040000fa
:04021800da02000006
:020000040000fa
:04023000da020000ee
:020000040000fa
:04024000da020000de
:020000040000fa
:04020c00da02000012
:020000040000fa
:04031000da0200000d
:020000040000fa
:04020800da02000016
:020000040000fa
:04021c00da02000002
:020000040000fa
:04022000da020000fe
:020000040000fa
:04022400da020000fa
:020000040000fa
:04026800da020000b6
:020000040000fa
:04024c00da020000d2
:020000040000fa
:04025000da020000ce
:020000040000fa
:04021400da0200000a
:020000040000fa
:04023400c8020000fc
:020000040000fa
:04024400da020000da
:020000040000fa
:04024800da020000d6
:020000040000fa
:04032c00da020000f1
:020000040000fa
:04025400da020000ca
:020000040000fa
:04025800da020000c6
:020000040000fa
:04007400da020000ac
:020000040000fa
:04012400da020000fb
:020000040000fa
:04015000da020000cf
:020000040000fa
:04002c00da020000f4
:020000040000fa
:04003c00da020000e4
:020000040000fa
:04008000da020000a0
:020000040000fa
:04008400da0200009c
:020000040000fa
:04002800da020000f8
:020000040000fa
:04007800da020000a8
:020000040000fa
:04009c00da02000084
:020000040000fa
:04006000da020000c0
:020000040000fa
:04006400da020000bc
:020000040000fa
:04007000da020000b0
:020000040000fa
:04007c00da020000a4
:020000040000fa
:04008800da02000098
:020000040000fa
:04008c00da02000094
:020000040000fa
:04009000da02000090
:020000040000fa
:04009400da0200008c
:020000040000fa
:04009800da02000088
:020000040000fa
:0400a000da02000080
:020000040000fa
:0400a400da0200007c
:020000040000fa
:0400a800da02000078
:020000040000fa
:0400ac00da02000074
:020000040000fa
:0400b000da02000070
:020000040000fa
:0400b400da0200006c
:020000040000fa
:0400b800da02000068
:020000040000fa
:0400bc00da02000064
:020000040000fa
:0400c000da02000060
:020000040000fa
:0400c400da0200005c
:020000040000fa
:04003800da020000e8
:020000040000fa
:0400c800da02000058
:020000040000fa
:0400cc00da02000054
:020000040000fa
:0400d000da02000050
:020000040000fa
:0400d400da0200004c
:020000040000fa
:0400d800da02000048
:020000040000fa
:0400dc00da02000044
:020000040000fa
:0400e000da02000040
:020000040000fa
:0400e400da0200003c
:020000040000fa
:0400e800da02000038
:020000040000fa
:0400ec00da02000034
:020000040000fa
:0400f000da02000030
:020000040000fa
:0400f400da0200002c
:020000040000fa
:0400f800da02000028
:020000040000fa
:0400fc00da02000024
:020000040000fa
:04010000da0200001f
:020000040000fa
:04010400da0200001b
:020000040000fa
:04010800da02000017
:020000040000fa
:04011400da0200000b
:020000040000fa
:04011800da02000007
:020000040000fa
:04011c00da02000003
:020000040000fa
:04012000da020000ff
:020000040000fa
:04012800da020000f7
:020000040000fa
:04013000da020000ef
:020000040000fa
:04013400da020000eb
:020000040000fa
:04013800da020000e7
:020000040000fa
:04013c00da020000e3
:020000040000fa
:04014000da020000df
:020000040000fa
:04014400da020000db
:020000040000fa
:04014800da020000d7
:020000040000fa
:04006c00da020000b4
:020000040000fa
:04010c00da02000013
:020000040000fa
:04014c00da020000d3
:020000040000fa
:04001800da02000008
:020000040000fa
:04003000da020000f0
:020000040000fa
:04004000da020000e0
:020000040000fa
:04000c00da02000014
:020000040000fa
:04011000da0200000f
:020000040000fa
:04000800da02000018
:020000040000fa
:04001c00da02000004
:020000040000fa
:04002000da02000000
:020000040000fa
:04002400da020000fc
:020000040000fa
:04006800da020000b8
:020000040000fa
:04004c00da020000d4
:020000040000fa
:04005000da020000d0
:020000040000fa
:04001400da0200000c
:020000040000fa
:04004400da020000dc
:020000040000fa
:04004800da020000d8
:020000040000fa
:04012c00da020000f3
:020000040000fa
:04005400da020000cc
:020000040000fa
:04005800da020000c8
:020000040000fa
:080000000002040000000000f2
:020000040000fa
:100400000f8220000eff20000e0188000000000077
:10041000000020000000e000020032000001200087
:100420002002880014000700340107000000e000eb
:1004300003003a0040632000010020000200370062
:100440000000200001002000810f70000100320038
:1004500014000700000020000000e000020032004d
:1004600000000200000000009e05020000000000e5
:100470000040da000000fe004440a9000000200017
:100480000000e0000300320000002000a00188000e
:100490004440a800000006008a1f78008b1f7800e7
:1004a0000000060091018800800478000000eb0045
:1004b0001a003700e284440032a0b4009905ba0063
:1004c000e284440032a0b4009906ba00e2844400f9
:1004d00032a0b4000006eb00476fde00fd07b2005b
:1004e000636ce10003003a00ebff07000000eb0043
:1004f0000a003700606ce10004003a00005deb0088
:100500008b05e900fdff3e00040037006168e10053
:10051000010032000086eb000b00070019c7ba008b
:100520001905ba000e04e00003003a000a00e000da
:10053000e0ff3a0000000600fe07b2009e018800be
:100540008a047800f5ff3700395dba008b05e900b1
:100550000c003200295dba008b05e900080032006a
:100560000c00e00003003a00e284440032a0b40032
:10057000f5ff370019ddba008b05e900faff3a00f4
:100580008904e800e184440032a0b40000000600c1
:100590003400f800881f780008002000a8018800b7
:1005a0004f0478001808a8008460a9003400f900fe
:1005b000004006000040da000000fe0003f0a20048
:1005c000889fbe008a9fbe008c1f780083000700b2
:1005d0008a0033006450e1004f0032006420e100e3
:1005e0005200320003826c0007003b000905d00076
:1005f0000306d000820f54000c065d000200390093
:1006000002003200890178000306780085825500d7
:1006100004003d000003fd008103fd008502ea00a7
:100620008b854200840f720002003b0060001000c6
:10063000e08018006011b8000005eb007a28e100a6
:100640000a00390006007800c75ddd00f707b20038
:10065000878075002d003700828171000a017800c3
:10066000610560008180d1000080d3008502e9002f
:10067000f9ff3b00060440008784480002003b006d
:1006800060041400e0841c000988a3000700320005
:100690008a81710082817100610164008904d10046
:1006a0000884d3008b05e800170037000978a30001
:1006b00013003a000b00e000130034008b05e90042
:1006c0000804440089844c000a4474000978a3009b
:1006d0000d003a000b00e000070034008b05e90034
:1006e0000804440089844c0001003a000b002000fb
:1006f0000978a300f7ff32000001eb000200370089
:10070000828171000a0178000e0007000cf0a7003a
:1007100001f0a000420037006420e10002003a002e
:10072000838f6c00420033000801be000200be004f
:100730003b0037001400200040003700f4ff2f007a
:100740003e00370081002000618055000b003d0015
:100750000b00200061fe2f000100e1001d003400ad
:1007600082817100610164008904d1000884d30092
:100770000000e800faff3a00710020006100640008
:1007800003007000020060000900320061044400b0
:10079000e0844c000988a500050032008b05e800c4
:1007a0006808e10002003a008904d1000884d300ff
:1007b000f20f20000258e10005003d00c75ddd009a
:1007c000f907b20089807500080078000000060073
:1007d0000bf827008b007800000005000004be0025
:1007e000310007000003be000405be000200be0089
:1007f0002d000700844f7500000006000200be00b7
:100800006450e100050036006420e100020036007b
:100810000968a30001003a000800be000160a000c2
:100820004f0678004f05be004f04be0000000600d2
:10083000f0ff2f00f1ff2700f9ff3700889fbe006f
:100840008a9fbe00841f7800e4ff07004f007800f5
:1008500011003300f0ff2f00838f6c0006003b0077
:10086000040565000a00a7000800370009f0a6008b
:100870001000200008003700820f5400838f5c00b6
:10088000030039001000200001003e00000020009d
:1008900009f0a7000000ea004f05be004f04be00ab
:1008a0000000e00000000600c70ade00f107b20009
:1008b000f50fb20008003200e1cf42000200320022
:1008c0000170a00024000500810f700001003200bb
:1008d0000408050044000500810f700002003a0082
:1008e000140005008502e9000000400081c04800b6
:1008f000fcff3b000170a000240005000000050083
:020000040000fa
:0200000401f009
:04001c00dfff000002
:020000040000fa
:0200000401f009
:040014005f00000089
:020000040000fa
:0200000401f009
:04001000620000008a
:020000040000fa
:0200000401f009
:04000c00820000006e
:020000040000fa
:04003400c8020000fe
:020000040000fa
:10090000889fbe008a9fbe008c9fbe00dc40800096
:10091000ed4080006011b8000c00be0087ff0700aa
:100920000000e00042003400020020000304240024
:100930000c00be007fff07000000e0003c003c0010
:100940001ac0b3008a4578000a85fb006016800053
:100950000000a10000007500601688009916800054
:10096000e1c464006011b8000040800011408000c4
:1009700072ff07000000e0003c003c00f8408000ef
:100980006011b80020408000314080006bff0700fc
:100990000000e0000a003400c240de00e180600098
:1009a0008b85fb0010c0b3008b8f50003f003400dc
:1009b00061006000000040000810a1000804700001
:1009c0008984fb0089844400630064000000ea001d
:1009d0004f00de0080844400898444004340de00f0
:1009e000610060008084440080802000e0c47c00be
:1009f0000904e00033003a001a28ef001c28ef0039
:100a00004255dd000820a10008047500e18464005f
:100a1000c34cdd000830a10008847400f840880051
:100a20004f06be004f05be004f04be00000006008a
:100a30000045eb008a4578000a85fb0060168000bf
:100a40000000a10000007500601688009916800063
:100a5000e1c464006011b8000040800011408000d3
:100a600036ff07000000e000c4ff34000b81fb00ec
:100a7000f8408000c240de00e180600010c0b3009a
:100a8000810f510004003400610060000800a100e3
:100a900008047000baff37000040eb0061006000fe
:100aa0000800a10008047000b5ff37000040eb000b
:100ab00061006000000040000810a1000804700000
:100ac000bfff3700d2cc2c00c3dc23000c00be00db
:100ad000bbfe0700d0408800e14088004255dd00a1
:100ae0000820a10008047500e1846400c34cdd0007
:100af0000830a10008847400f84088004f06be004a
:100b00004f05be004f04be0000000600c8ff3700be
:100b100000000600000006001808e200feff320098
:100b200042a0a8001808a90075ff070042a0a9006c
:100b30001808e200f8ff3200f9ff37004387ab00e6
:100b400004003200103a80004c00de0064006000b7
:100b50002e003200e0062000303a880050002000cd
:100b6000203a8800a10920003200200080072000e0
:100b700033742000804978008149780082497800e8
:100b80007105200012002000600420002374200062
:100b90008049780081497800824978000080e90026
:100ba00060198800e0ff2f0040168800020027002f
:100bb00001002300133a800003006100810f500000
:100bc000fcff3a0042a7ab00feff3200d0ff070057
:100bd0000421ef00f0ff2800a400b60000d0a00020
:100be000200588008460a9009460a80030422f008e
:100bf00010088800000220002008880020422f00f2
:100c00000008880005e1a800c3ff0700a209200032
:100c100081072000337420008149780082497800e0
:100c20008049780071052000120020006004200037
:100c30002374200080497800814978008249780037
:100c4000000000000000000001002700123a8000b0
:100c500002806000bfff3200123a80000280600014
:080c6000faff3a00bbff370068
:020000040000fa
:100c6800000800001800000002000000000000005a
:100c780000000000803f00000100000001010000aa
:100c88000001000001010000000000001808000039
:0c0c980008000000000000000000000048
:00000001FF
