:020000040000fa
:04005c00da020000c4
:020000040000fa
:04001000da02000010
:020000040000fa
:04025c00da020000c2
:020000040000fa
:04021000da0200000e
:020000040000fa
:04027400da020000aa
:020000040000fa
:04032400da020000f9
:020000040000fa
:04035000da020000cd
:020000040000fa
:04022c00da020000f2
:020000040000fa
:04023c00da020000e2
:020000040000fa
:04028000da0200009e
:020000040000fa
:04028400da0200009a
:020000040000fa
:04022800da020000f6
:020000040000fa
:04027800da020000a6
:020000040000fa
:04029c00da02000082
:020000040000fa
:04026000da020000be
:020000040000fa
:04026400da020000ba
:020000040000fa
:04027000da020000ae
:020000040000fa
:04027c00da020000a2
:020000040000fa
:04028800da02000096
:020000040000fa
:04028c00da02000092
:020000040000fa
:04029000da0200008e
:020000040000fa
:04029400da0200008a
:020000040000fa
:04029800da02000086
:020000040000fa
:0402a000da0200007e
:020000040000fa
:0402a400da0200007a
:020000040000fa
:0402a800da02000076
:020000040000fa
:0402ac00da02000072
:020000040000fa
:0402b000da0200006e
:020000040000fa
:0402b400da0200006a
:020000040000fa
:0402b800da02000066
:020000040000fa
:0402bc00da02000062
:020000040000fa
:0402c000da0200005e
:020000040000fa
:0402c400da0200005a
:020000040000fa
:04023800da020000e6
:020000040000fa
:0402c800da02000056
:020000040000fa
:0402cc00da02000052
:020000040000fa
:0402d000da0200004e
:020000040000fa
:0402d400da0200004a
:020000040000fa
:0402d800da02000046
:020000040000fa
:0402dc00da02000042
:020000040000fa
:0402e000da0200003e
:020000040000fa
:0402e400da0200003a
:020000040000fa
:0402e800da02000036
:020000040000fa
:0402ec00da02000032
:020000040000fa
:0402f000da0200002e
:020000040000fa
:0402f400da0200002a
:020000040000fa
:0402f800da02000026
:020000040000fa
:0402fc00da02000022
:020000040000fa
:04030000da0200001d
:020000040000fa
:04030400da02000019
:020000040000fa
:04030800da02000015
:020000040000fa
:04031400da02000009
:020000040000fa
:04031800da02000005
:020000040000fa
:04031c00da02000001
:020000040000fa
:04032000da020000fd
:020000040000fa
:04032800da020000f5
:020000040000fa
:04033000da020000ed
:020000040000fa
:04033400da020000e9
:020000040000fa
:04033800da020000e5
:020000040000fa
:04033c00da020000e1
:020000040000fa
:04034000da020000dd
:020000040000fa
:04034400da020000d9
:020000040000fa
:04034800da020000d5
:020000040000fa
:04026c00da020000b2
:020000040000fa
:04030c00da02000011
:020000040000fa
:04034c00da020000d1
:020000040000fa
:04021800da02000006
:020000040000fa
:04023000da020000ee
:020000040000fa
:04024000da020000de
:020000040000fa
:04020c00da02000012
:020000040000fa
:04031000da0200000d
:020000040000fa
:04020800da02000016
:020000040000fa
:04021c00da02000002
:020000040000fa
:04022000da020000fe
:020000040000fa
:04022400da020000fa
:020000040000fa
:04026800da020000b6
:020000040000fa
:04024c00da020000d2
:020000040000fa
:04025000da020000ce
:020000040000fa
:04021400da0200000a
:020000040000fa
:04023400c8020000fc
:020000040000fa
:04024400da020000da
:020000040000fa
:04024800da020000d6
:020000040000fa
:04032c00da020000f1
:020000040000fa
:04025400da020000ca
:020000040000fa
:04025800da020000c6
:020000040000fa
:04007400da020000ac
:020000040000fa
:04012400da020000fb
:020000040000fa
:04015000da020000cf
:020000040000fa
:04002c00da020000f4
:020000040000fa
:04003c00da020000e4
:020000040000fa
:04008000da020000a0
:020000040000fa
:04008400da0200009c
:020000040000fa
:04002800da020000f8
:020000040000fa
:04007800da020000a8
:020000040000fa
:04009c00da02000084
:020000040000fa
:04006000da020000c0
:020000040000fa
:04006400da020000bc
:020000040000fa
:04007000da020000b0
:020000040000fa
:04007c00da020000a4
:020000040000fa
:04008800da02000098
:020000040000fa
:04008c00da02000094
:020000040000fa
:04009000da02000090
:020000040000fa
:04009400da0200008c
:020000040000fa
:04009800da02000088
:020000040000fa
:0400a000da02000080
:020000040000fa
:0400a400da0200007c
:020000040000fa
:0400a800da02000078
:020000040000fa
:0400ac00da02000074
:020000040000fa
:0400b000da02000070
:020000040000fa
:0400b400da0200006c
:020000040000fa
:0400b800da02000068
:020000040000fa
:0400bc00da02000064
:020000040000fa
:0400c000da02000060
:020000040000fa
:0400c400da0200005c
:020000040000fa
:04003800da020000e8
:020000040000fa
:0400c800da02000058
:020000040000fa
:0400cc00da02000054
:020000040000fa
:0400d000da02000050
:020000040000fa
:0400d400da0200004c
:020000040000fa
:0400d800da02000048
:020000040000fa
:0400dc00da02000044
:020000040000fa
:0400e000da02000040
:020000040000fa
:0400e400da0200003c
:020000040000fa
:0400e800da02000038
:020000040000fa
:0400ec00da02000034
:020000040000fa
:0400f000da02000030
:020000040000fa
:0400f400da0200002c
:020000040000fa
:0400f800da02000028
:020000040000fa
:0400fc00da02000024
:020000040000fa
:04010000da0200001f
:020000040000fa
:04010400da0200001b
:020000040000fa
:04010800da02000017
:020000040000fa
:04011400da0200000b
:020000040000fa
:04011800da02000007
:020000040000fa
:04011c00da02000003
:020000040000fa
:04012000da020000ff
:020000040000fa
:04012800da020000f7
:020000040000fa
:04013000da020000ef
:020000040000fa
:04013400da020000eb
:020000040000fa
:04013800da020000e7
:020000040000fa
:04013c00da020000e3
:020000040000fa
:04014000da020000df
:020000040000fa
:04014400da020000db
:020000040000fa
:04014800da020000d7
:020000040000fa
:04006c00da020000b4
:020000040000fa
:04010c00da02000013
:020000040000fa
:04014c00da020000d3
:020000040000fa
:04001800da02000008
:020000040000fa
:04003000da020000f0
:020000040000fa
:04004000da020000e0
:020000040000fa
:04000c00da02000014
:020000040000fa
:04011000da0200000f
:020000040000fa
:04000800da02000018
:020000040000fa
:04001c00da02000004
:020000040000fa
:04002000da02000000
:020000040000fa
:04002400da020000fc
:020000040000fa
:04006800da020000b8
:020000040000fa
:04004c00da020000d4
:020000040000fa
:04005000da020000d0
:020000040000fa
:04001400da0200000c
:020000040000fa
:04004400da020000dc
:020000040000fa
:04004800da020000d8
:020000040000fa
:04012c00da020000f3
:020000040000fa
:04005400da020000cc
:020000040000fa
:04005800da020000c8
:020000040000fa
:080000000002040000000000f2
:020000040000fa
:100400000f8e20000eff20000e018800000000006b
:10041000000020000000e000020032000001200087
:100420002002880014000700990107000000e00086
:1004300003003a00e07820000100200002003700ad
:100440000000200001002000810f70000100320038
:1004500014000700000020000000e000020032004d
:100460000000020000000000f8060200000000008a
:100470000040da000000fe004440a9000000200017
:100480000000e0000300320000002000a00188000e
:100490004440a800000006008a1f78008b1f7800e7
:1004a0000000060091018800800478000000eb0045
:1004b0001a003700e284440032a0b4009905ba0063
:1004c000e284440032a0b4009906ba00e2844400f9
:1004d00032a0b4000006eb00476fde00fd07b2005b
:1004e000636ce10003003a00ebff07000000eb0043
:1004f0000a003700606ce10004003a00005deb0088
:100500008b05e900fdff3e00040037006168e10053
:10051000010032000086eb000b00070019c7ba008b
:100520001905ba000e04e00003003a000a00e000da
:10053000e0ff3a0000000600fe07b2009e018800be
:100540008a047800f5ff3700395dba008b05e900b1
:100550000c003200295dba008b05e900080032006a
:100560000c00e00003003a00e284440032a0b40032
:10057000f5ff370019ddba008b05e900faff3a00f4
:100580008904e800e184440032a0b40000000600c1
:100590003400f800881f780008002000a8018800b7
:1005a0004f0478000008a8008460a9003400f90016
:1005b000004006000040da000000fe0003f0a20048
:1005c000889fbe008a9fbe008c1f780085000700b0
:1005d0008c0033006450e1004f0032006420e100e1
:1005e0005200320003826c0007003b000905d00076
:1005f0000306d000820f54000c065d000200390093
:1006000002003200890178000306780085825500d7
:1006100004003d000003fd008103fd008502ea00a7
:100620008b854200840f720002003b0060001000c6
:10063000e08018006011b8000005eb007a28e100a6
:100640000a00390006007800c75ddd00f707b20038
:10065000878075002d003700828171000a017800c3
:10066000610560008180d1000080d3008502e9002f
:10067000f9ff3b00060440008784480002003b006d
:1006800060041400e0841c000988a3000700320005
:100690008a81710082817100610164008904d10046
:1006a0000884d3008b05e800170037000978a30001
:1006b00013003a000b00e000130034008b05e90042
:1006c0000804440089844c000a4474000978a3009b
:1006d0000d003a000b00e000070034008b05e90034
:1006e0000804440089844c0001003a000b002000fb
:1006f0000978a300f7ff32000001eb000200370089
:10070000828171000a017800100007000cf0a70038
:1007100001f0a000440037006420e10002003a002c
:10072000838f6c00440033000801be000200be004d
:100730003d0037001400200076003700f4ff2f0042
:10074000740037006011b8008d0037008100200070
:10075000618055000b003d000b00200061fe2f0062
:100760000100e1001d00340082817100610164001c
:100770008904d1000884d3000000e800faff3a00a1
:10078000710020006100640003007000020060003e
:100790000900320061044400e0844c000988a5008f
:1007a000050032008b05e8006808e10002003a000d
:1007b0008904d1000884d300f20f20000258e10020
:1007c00005003d00c75ddd00f907b20089807500b6
:1007d00008007800000006000bf827008b00780066
:1007e000000005000004be00940007000003be00e6
:1007f0000405be000200be0090000700844f750093
:10080000000006000200be006450e1000500360052
:100810006420e100020036000968a30001003a00ec
:100820000800be000160a0004f0678004f05be0022
:100830004f04be0000000600f0ff2f00f1ff27006c
:10084000f9ff3700889fbe008a9fbe008c1f78008a
:10085000e4ff0700ebff330003866c006450e10007
:10086000240032006420e100270032006150e100e2
:10087000220032006120e100210032008b8542001d
:10088000eb07b1000134b800003ab8000804420098
:1008900089844a00013ab8000030b80088804000de
:1008a00009014a0004003300000040008180480034
:1008b000020149008b05e900c909dd0083017000d0
:1008c0000100320013002000c814de004814dd00cf
:1008d0004709de001200b200c808de00088470007c
:1008e0009aff070001f0a1000cf0a70001f0a000a2
:1008f000cdff37006120e100cfff32000801be00cc
:100900000200be00f7ff37006150e100fcff3a0033
:10091000c9ff3700889fbe008a9fbe00841f7800f1
:10092000b0ff07004f00780011003300f0ff2f00e8
:10093000838f6c0006003b00040565000a00a700d9
:100940000800370009f0a60010002000080037005a
:10095000820f5400838f5c000300390010002000d8
:1009600001003e000000200009f0a7000000ea009e
:100970004f05be004f04be000000e000000006006e
:10098000889fbe008a9fbe00008270000402710032
:1009900004827100260032000004be000200be0086
:1009a0006011b8006b092000950220000182cf0081
:1009b0000a0039000541b1000082cf00070039006c
:1009c0000541b1000982cf00040039000541b100a2
:1009d0000882cf00010039000541b10005425200f4
:1009e000120032000a003b00828171006101640044
:1009f0008100d1000080d3008984d3000884d30013
:100a00008b05e8000442e800f7ff3a0007003700d2
:100a10000804440089844c0000004800818048009c
:100a20008b05e9000442e900f9ff3a0047ff07009f
:100a30004f05be004f04be0000000600c70ade00de
:100a4000f107b200f50fb20008003200e1cf42001a
:100a5000020032000170a00024000500810f700028
:100a6000010032000408050044000500810f7000f9
:100a700002003a00140005008502e9000000400071
:100a800081c04800fcff3b000170a000240005006d
:040a9000000005005d
:020000040000fa
:0200000401f009
:04001c00dfff000002
:020000040000fa
:0200000401f009
:040014005f00000089
:020000040000fa
:0200000401f009
:04001000620000008a
:020000040000fa
:0200000401f009
:04000c00820000006e
:020000040000fa
:04003400c8020000fe
:020000040000fa
:100a9400889fbe008a9fbe008c9fbe008e1f780078
:100aa4003c4080004d4080006011b8000c00be0046
:100ab40021ff07000000e000700034000200200065
:100ac400030424000c00be0019ff07000000e0002e
:100ad4006a003c0018c0b3000840780010e8b70072
:100ae4000884fb005b4080000b00a1008b057400b0
:100af4008b0478005b4088006a4080006147650091
:100b04006011b800a0458000b14580000aff0700cd
:100b14000000e000090034000e80fb0019c0b3009f
:100b2400880f50005f003d00e18464008984440024
:100b34000b10a1008b847400594088006011b80028
:100b4400c0458000d1458000fbfe07000000e000a6
:100b5400090034000e87fb0010c0b300880f570053
:100b640049003400610060004200dd000920a1005a
:100b74008904700059408800601680000000a100bc
:100b8400000074006016880090168000e6856400fa
:100b94008b05ea00cf5dde008b80fb006100600006
:100ba4000000400080804000818040000a00d100a5
:100bb4006100600080804000c08b2000e0c47800a9
:100bc400e280200009497800e8804000e0c1780014
:100bd400f2802000034978000904e00038003a005c
:100be4000228ef000428ef00208120000b48780041
:100bf4001240800023408000324088004340880037
:100c04000a00a1000a047400e18464008984440099
:100c14000810a1000884740068408800e244800041
:100c2400f344800061004100e0804900e044880012
:100c3400f1448800c2fe070002458000134580008d
:100c4400fffe07000001be00514580008288be00ff
:100c5400204580003145800061004000e08048006c
:100c640020458800314588004f0778004f06be00b4
:100c74004f05be004f04be00000006000044eb0018
:100c84000840780095ff37000040eb0061006000e9
:100c94004200dd000920a100890470005940880049
:100ca400b5ff37008044eb00e1846400898444008c
:100cb4000b10a1008b847400594088009fff3700fb
:100cc400d2cc2c00c3dc23000c00be003bfe07008a
:100cd4001040880021408800208120000b487800c3
:100ce4001240800023408000324088004340880046
:100cf4000a00a1000a047400e184640089844400a9
:100d04000810a1000884740068408800e244800050
:100d1400f344800061004100e0804900e044880021
:100d2400f144880086fe07000245800013458000d8
:100d3400c3fe07000001be00514580008288be004a
:100d4400204580003145800061004000e08048007b
:100d540020458800314588004f0778004f06be00c3
:100d64004f05be004f04be0000000600c3ff37005d
:100d7400808a2000c04088000080e80090428800fb
:100d84006a0050003041880040812000e043880020
:100d9400b04088001000200040458800e18c20000d
:100da400e1408800c18a200051458800d1cc2c0044
:100db40001458800c1dc23001145880012e8b70012
:100dc40000000600000006000008e200feff3200fa
:100dd40042a0a8000008a9002dff070042a0a90016
:100de4000008e200f8ff3200f9ff37004387ab0048
:100df40004003200103a80004c00de006400600001
:100e04002e003200e0062000303a88005000200016
:100e1400203a8800a1092000320020008007200029
:100e24003374200080497800814978008249780031
:100e340071052000120020006004200023742000ab
:100e44008049780081497800824978000080e9006f
:100e540060198800e0ff2f00401688000200270078
:100e640001002300133a800003006100810f500049
:100e7400fcff3a0042a7ab00feff3200bcff0700b4
:100e84000421ef00f0ff2800a400b60000d0a00069
:100e9400200588008460a9009460a80030422f00d7
:100ea40010088800000220002008880020422f003b
:100eb4000008880005e1a800c3ff0700a20920007c
:100ec400810720003374200081497800824978002a
:100ed4008049780071052000120020006004200081
:100ee4002374200080497800814978008249780081
:100ef400000000000000000001002700123a8000fa
:100f040002806000bfff3200123a8000028060005d
:080f1400faff3a00bbff3700b1
:020000040000fa
:100f1c00b4080000180000000200000000000000ef
:100f2c0000000000803f00000100000001010000f3
:100f3c00000100000101000000000000ce080000cc
:100f4c00120000000200000046697800656453003e
:100f5c007465700044697300637265007465000009
:100f6c00cc08000002000000020000001408000081
:100f7c0000080000b40000000000000000000000a9
:00000001FF
