:020000040000fa
:04005c005e0300003f
:020000040000fa
:040010005e0300008b
:020000040000fa
:04025c005e0300003d
:020000040000fa
:040210005e03000089
:020000040000fa
:040274005e03000025
:020000040000fa
:040324005e03000074
:020000040000fa
:040350005e03000048
:020000040000fa
:04022c005e0300006d
:020000040000fa
:04023c005e0300005d
:020000040000fa
:040280005e03000019
:020000040000fa
:040284005e03000015
:020000040000fa
:040228005e03000071
:020000040000fa
:040278005e03000021
:020000040000fa
:04029c005e030000fd
:020000040000fa
:040260005e03000039
:020000040000fa
:040264005e03000035
:020000040000fa
:040270005e03000029
:020000040000fa
:04027c005e0300001d
:020000040000fa
:040288005e03000011
:020000040000fa
:04028c005e0300000d
:020000040000fa
:040290005e03000009
:020000040000fa
:040294005e03000005
:020000040000fa
:040298005e03000001
:020000040000fa
:0402a0005e030000f9
:020000040000fa
:0402a4005e030000f5
:020000040000fa
:0402a8005e030000f1
:020000040000fa
:0402ac005e030000ed
:020000040000fa
:0402b0005e030000e9
:020000040000fa
:0402b4005e030000e5
:020000040000fa
:0402b8005e030000e1
:020000040000fa
:0402bc005e030000dd
:020000040000fa
:0402c0005e030000d9
:020000040000fa
:0402c4005e030000d5
:020000040000fa
:040238005e03000061
:020000040000fa
:0402c8005e030000d1
:020000040000fa
:0402cc005e030000cd
:020000040000fa
:0402d0005e030000c9
:020000040000fa
:0402d4005e030000c5
:020000040000fa
:0402d8005e030000c1
:020000040000fa
:0402dc005e030000bd
:020000040000fa
:0402e0005e030000b9
:020000040000fa
:0402e4005e030000b5
:020000040000fa
:0402e8005e030000b1
:020000040000fa
:0402ec005e030000ad
:020000040000fa
:0402f0005e030000a9
:020000040000fa
:0402f4005e030000a5
:020000040000fa
:0402f8005e030000a1
:020000040000fa
:0402fc005e0300009d
:020000040000fa
:040300005e03000098
:020000040000fa
:040304005e03000094
:020000040000fa
:040308005e03000090
:020000040000fa
:040314005e03000084
:020000040000fa
:040318005e03000080
:020000040000fa
:04031c005e0300007c
:020000040000fa
:040320005e03000078
:020000040000fa
:040328005e03000070
:020000040000fa
:040330005e03000068
:020000040000fa
:040334005e03000064
:020000040000fa
:040338005e03000060
:020000040000fa
:04033c005e0300005c
:020000040000fa
:040340005e03000058
:020000040000fa
:040344005e03000054
:020000040000fa
:040348005e03000050
:020000040000fa
:04026c005e0300002d
:020000040000fa
:04030c005e0300008c
:020000040000fa
:04034c005e0300004c
:020000040000fa
:040218005e03000081
:020000040000fa
:040230005e03000069
:020000040000fa
:040240005e03000059
:020000040000fa
:04020c005e0300008d
:020000040000fa
:040310005e03000088
:020000040000fa
:040208005e03000091
:020000040000fa
:04021c005e0300007d
:020000040000fa
:040220005e03000079
:020000040000fa
:040224005e03000075
:020000040000fa
:040268005e03000031
:020000040000fa
:04024c005e0300004d
:020000040000fa
:040250005e03000049
:020000040000fa
:040214005e03000085
:020000040000fa
:04023400c8020000fc
:020000040000fa
:040244005e03000055
:020000040000fa
:040248005e03000051
:020000040000fa
:04032c005e0300006c
:020000040000fa
:040254005e03000045
:020000040000fa
:040258005e03000041
:020000040000fa
:040074005e03000027
:020000040000fa
:040124005e03000076
:020000040000fa
:040150005e0300004a
:020000040000fa
:04002c005e0300006f
:020000040000fa
:04003c005e0300005f
:020000040000fa
:040080005e0300001b
:020000040000fa
:040084005e03000017
:020000040000fa
:040028005e03000073
:020000040000fa
:040078005e03000023
:020000040000fa
:04009c005e030000ff
:020000040000fa
:040060005e0300003b
:020000040000fa
:040064005e03000037
:020000040000fa
:040070005e0300002b
:020000040000fa
:04007c005e0300001f
:020000040000fa
:040088005e03000013
:020000040000fa
:04008c005e0300000f
:020000040000fa
:040090005e0300000b
:020000040000fa
:040094005e03000007
:020000040000fa
:040098005e03000003
:020000040000fa
:0400a0005e030000fb
:020000040000fa
:0400a4005e030000f7
:020000040000fa
:0400a8005e030000f3
:020000040000fa
:0400ac005e030000ef
:020000040000fa
:0400b0005e030000eb
:020000040000fa
:0400b4005e030000e7
:020000040000fa
:0400b8005e030000e3
:020000040000fa
:0400bc005e030000df
:020000040000fa
:0400c0005e030000db
:020000040000fa
:0400c4005e030000d7
:020000040000fa
:040038005e03000063
:020000040000fa
:0400c8005e030000d3
:020000040000fa
:0400cc005e030000cf
:020000040000fa
:0400d0005e030000cb
:020000040000fa
:0400d4005e030000c7
:020000040000fa
:0400d8005e030000c3
:020000040000fa
:0400dc005e030000bf
:020000040000fa
:0400e0005e030000bb
:020000040000fa
:0400e4005e030000b7
:020000040000fa
:0400e8005e030000b3
:020000040000fa
:0400ec005e030000af
:020000040000fa
:0400f0005e030000ab
:020000040000fa
:0400f4005e030000a7
:020000040000fa
:0400f8005e030000a3
:020000040000fa
:0400fc005e0300009f
:020000040000fa
:040100005e0300009a
:020000040000fa
:040104005e03000096
:020000040000fa
:040108005e03000092
:020000040000fa
:040114005e03000086
:020000040000fa
:040118005e03000082
:020000040000fa
:04011c005e0300007e
:020000040000fa
:040120005e0300007a
:020000040000fa
:040128005e03000072
:020000040000fa
:040130005e0300006a
:020000040000fa
:040134005e03000066
:020000040000fa
:040138005e03000062
:020000040000fa
:04013c005e0300005e
:020000040000fa
:040140005e0300005a
:020000040000fa
:040144005e03000056
:020000040000fa
:040148005e03000052
:020000040000fa
:04006c005e0300002f
:020000040000fa
:04010c005e0300008e
:020000040000fa
:04014c005e0300004e
:020000040000fa
:040018005e03000083
:020000040000fa
:040030005e0300006b
:020000040000fa
:040040005e0300005b
:020000040000fa
:04000c005e0300008f
:020000040000fa
:040110005e0300008a
:020000040000fa
:040008005e03000093
:020000040000fa
:04001c005e0300007f
:020000040000fa
:040020005e0300007b
:020000040000fa
:040024005e03000077
:020000040000fa
:040068005e03000033
:020000040000fa
:04004c005e0300004f
:020000040000fa
:040050005e0300004b
:020000040000fa
:040014005e03000087
:020000040000fa
:040044005e03000057
:020000040000fa
:040048005e03000053
:020000040000fa
:04012c005e0300006e
:020000040000fa
:040054005e03000047
:020000040000fa
:040058005e03000043
:020000040000fa
:080000000002040000000000f2
:020000040000fa
:100400004f8120000eff20000e0188000000000038
:10041000000020000000e000020032000001200087
:100420002002880014000700740107000000e000ab
:1004300003003a00605d2000010020000200370048
:100440000000200001002000810f70000100320038
:1004500014000700000020000000e000020032004d
:100460000000020000000000000502000000000083
:100470000040da000000fe004440a9000000200017
:100480000000e0000300320000002000a00188000e
:100490004440a800000006008a1f78008b1f7800e7
:1004a0000000060091018800800478000000eb0045
:1004b0001a003700e284440032a0b4009905ba0063
:1004c000e284440032a0b4009906ba00e2844400f9
:1004d00032a0b4000006eb00476fde00fd07b2005b
:1004e000636ce10003003a00ebff07000000eb0043
:1004f0000a003700606ce10004003a00005deb0088
:100500008b05e900fdff3e00040037006168e10053
:10051000010032000086eb000b00070019c7ba008b
:100520001905ba000e04e00003003a000a00e000da
:10053000e0ff3a0000000600fe07b2009e018800be
:100540008a047800f5ff3700395dba008b05e900b1
:100550000c003200295dba008b05e900080032006a
:100560000c00e00003003a00e284440032a0b40032
:10057000f5ff370019ddba008b05e900faff3a00f4
:100580008904e800e184440032a0b40000000600c1
:100590003600f800809fbe00829fbe00849fbe0090
:1005a000869fbe00889fbe008a9fbe008c1f780079
:1005b0003400f80000002000a00188008460a90039
:1005c0001208ed009040880003003a00401f200010
:1005d000904088000c08a8008460ab002d003a0011
:1005e00042a0a80042c0a9000e08ab0029003a00b2
:1005f0000c08ab0024003200094080001840800045
:100600000e08a8000c08a9000800be00010178002f
:10061000800178000000200001f823002900070075
:1006200000067800810578008c0478000b047800bf
:100630001ac0b3006011b8000c0078008b0078007d
:100640007e0007000000e00001003a000045eb00da
:10065000610565004955dd00201680000090a1006d
:1006600000007500201688000c08ab00e4ff3a007b
:100670008c0178000b01780003007800820078007c
:1006800000408800114088000e08a90042c0a80060
:1006900042a0a9003400f9004f0678004f05be00c3
:1006a0004f04be004f03be004f02be004f01be000c
:1006b0004f00be003600f900004006000040da009e
:1006c0000000fe0003f0a200889fbe008a9fbe00cb
:1006d0008c1f780081000700880033006450e1001f
:1006e0004f0032006420e1005200320003826c00af
:1006f00007003b000905d0000306d000820f54001c
:100700000c065d0002003900020032008901780009
:10071000030678008582550004003d000003fd00bb
:100720008103fd008502ea008b854200840f720080
:1007300002003b0060001000e08018006011b8006b
:100740000005eb007a28e1000a0039000600780075
:10075000c75ddd00f707b200878075002d00370008
:10076000828171000a017800610560008180d100fa
:100770000080d3008502e900f9ff3b000604400039
:100780008784480002003b0060041400e0841c00e1
:100790000988a300070032008a81710082817100fc
:1007a000610164008904d1000884d3008b05e8004e
:1007b000170037000978a30013003a000b00e0008f
:1007c000130034008b05e9000804440089844c00c0
:1007d0000a4474000978a3000d003a000b00e00001
:1007e000070034008b05e9000804440089844c00ac
:1007f00001003a000b0020000978a300f7ff320047
:100800000001eb0002003700828171000a017800cc
:100810000c0007000cf0a70001f0a000400037001a
:100820006420e10002003a00838f6c004000330036
:100830000801be000200be0039003700040020009d
:100840003e00370081002000618055000b003d0014
:100850000b00200061fe2f000100e1001d003400ac
:1008600082817100610164008904d1000884d30091
:100870000000e800faff3a00710020006100640007
:1008800003007000020060000900320061044400af
:10089000e0844c000988a500050032008b05e800c3
:1008a0006808e10002003a008904d1000884d300fe
:1008b000f20f20000258e10005003d00c75ddd0099
:1008c000f907b20089807500080078000000060072
:1008d0000bf827008b007800000005000004be0024
:1008e000310007000003be000405be000200be0088
:1008f0002d000700844f7500000006000200be00b6
:100900006450e100050036006420e100020036007a
:100910000968a30001003a000800be000160a000c1
:100920004f0678004f05be004f04be0000000600d1
:10093000f0ff2f00f1ff2700f9ff3700889fbe006e
:100940008a9fbe00841f7800e4ff07004f007800f4
:1009500011003300f0ff2f00838f6c0006003b0076
:10096000040565000a00a7000800370009f0a6008a
:100970001000200008003700820f5400838f5c00b5
:10098000030039001000200001003e00000020009c
:1009900009f0a7000000ea004f05be004f04be00aa
:1009a0000000e00000000600c70ade00f107b20008
:1009b000f50fb20008003200e1cf42000200320021
:1009c0000170a00024000500810f700001003200ba
:1009d0000408050044000500810f700002003a0081
:1009e000140005008502e9000000400081c04800b5
:1009f000fcff3b000170a000240005000000050082
:020000040000fa
:0200000401f009
:04001c00dfff000002
:020000040000fa
:0200000401f009
:040014005f00000089
:020000040000fa
:0200000401f009
:04001000620000008a
:020000040000fa
:0200000401f009
:04000c00820000006e
:020000040000fa
:04003400c8020000fe
:020000040000fa
:100a00004387ab0004003200103a80004c00de0047
:100a1000640060002b003200e0062000303a8800bd
:100a200050002000203a8800a10920003200200058
:100a300080072000337420008049780081497800c5
:100a40008249780071052000120020006004200017
:100a50002374200080497800814978008249780019
:100a60002c23ef00f0df2f00001688000100270084
:100a700000002300133a800003816000800f5100c2
:100a8000fcff3a0042a7ab00feff32004100070026
:100a90000421ef00f0ff2800a400b60000d0a00061
:100aa000200588008460a9009460a800f0c3290094
:100ab000100888000000e9000008880005e1a8008f
:100ac000ffff3700a20920008107200033742000b7
:100ad00081497800824978008049780071052000ba
:100ae0001200200060042000237420008049780058
:100af0008149780082497800000000000000000071
:100b000000002700123a800082006000c2ff32001d
:100b1000123a800082006000faff3a00beff370000
:100b200000000600881f780002408000134080000b
:100b30000000200001f82300e2fe07008002780098
:100b400001027800050178008401780002408800e5
:100b50001340880018c0b3006011b8000500780089
:100b60008400780035ff07000000e00001003a0033
:100b70000044eb00610464004944dd00201680005d
:100b80000090a10000007400201688004f04780037
:100b9000000006001000200040408800401f200098
:0c0ba00050408800000006000000060025
:020000040000fa
:100bac00100800000400000002000000040801000e
:100bbc000000000000080000100000000000000011
:040bcc000000000025
:00000001FF
